{
  "_format": "hh-sol-artifact-1",
  "contractName": "Operator",
  "sourceName": "contracts/owner/Operator.sol",
  "abi": [
    {
      "inputs": [],
      "stateMutability": "nonpayable",
      "type": "constructor"
    },
    {
      "anonymous": false,
      "inputs": [
        {
          "indexed": true,
          "internalType": "address",
          "name": "previousOperator",
          "type": "address"
        },
        {
          "indexed": true,
          "internalType": "address",
          "name": "newOperator",
          "type": "address"
        }
      ],
      "name": "OperatorTransferred",
      "type": "event"
    },
    {
      "anonymous": false,
      "inputs": [
        {
          "indexed": true,
          "internalType": "address",
          "name": "previousOwner",
          "type": "address"
        },
        {
          "indexed": true,
          "internalType": "address",
          "name": "newOwner",
          "type": "address"
        }
      ],
      "name": "OwnershipTransferred",
      "type": "event"
    },
    {
      "inputs": [],
      "name": "isOperator",
      "outputs": [
        {
          "internalType": "bool",
          "name": "",
          "type": "bool"
        }
      ],
      "stateMutability": "view",
      "type": "function"
    },
    {
      "inputs": [],
      "name": "operator",
      "outputs": [
        {
          "internalType": "address",
          "name": "",
          "type": "address"
        }
      ],
      "stateMutability": "view",
      "type": "function"
    },
    {
      "inputs": [],
      "name": "owner",
      "outputs": [
        {
          "internalType": "address",
          "name": "",
          "type": "address"
        }
      ],
      "stateMutability": "view",
      "type": "function"
    },
    {
      "inputs": [],
      "name": "renounceOwnership",
      "outputs": [],
      "stateMutability": "nonpayable",
      "type": "function"
    },
    {
      "inputs": [
        {
          "internalType": "address",
          "name": "newOperator_",
          "type": "address"
        }
      ],
      "name": "transferOperator",
      "outputs": [],
      "stateMutability": "nonpayable",
      "type": "function"
    },
    {
      "inputs": [
        {
          "internalType": "address",
          "name": "newOwner",
          "type": "address"
        }
      ],
      "name": "transferOwnership",
      "outputs": [],
      "stateMutability": "nonpayable",
      "type": "function"
    }
  ],
  "bytecode": "0x608060405234801561001057600080fd5b5061001a3361005f565b600180546001600160a01b031916339081179091556040516000907f74da04524d50c64947f5dd5381ef1a4dca5cba8ed1d816243f9e48aa0b5617ed908290a36100af565b600080546001600160a01b038381166001600160a01b0319831681178455604051919092169283917f8be0079c531659141344cd1fd0a4f28419497f9722a3daafe3b4186f6b6457e09190a35050565b6103ac806100be6000396000f3fe608060405234801561001057600080fd5b50600436106100625760003560e01c806329605e77146100675780634456eda21461007c578063570ca7351461009f578063715018a6146100c45780638da5cb5b146100cc578063f2fde38b146100dd575b600080fd5b61007a610075366004610311565b6100f0565b005b6001546001600160a01b0316331460405190151581526020015b60405180910390f35b6001546001600160a01b03165b6040516001600160a01b039091168152602001610096565b61007a61012f565b6000546001600160a01b03166100ac565b61007a6100eb366004610311565b610165565b6000546001600160a01b031633146101235760405162461bcd60e51b815260040161011a90610341565b60405180910390fd5b61012c816101fd565b50565b6000546001600160a01b031633146101595760405162461bcd60e51b815260040161011a90610341565b61016360006102c1565b565b6000546001600160a01b0316331461018f5760405162461bcd60e51b815260040161011a90610341565b6001600160a01b0381166101f45760405162461bcd60e51b815260206004820152602660248201527f4f776e61626c653a206e6577206f776e657220697320746865207a65726f206160448201526564647265737360d01b606482015260840161011a565b61012c816102c1565b6001600160a01b0381166102695760405162461bcd60e51b815260206004820152602d60248201527f6f70657261746f723a207a65726f206164647265737320676976656e20666f7260448201526c103732bb9037b832b930ba37b960991b606482015260840161011a565b6040516001600160a01b038216906000907f74da04524d50c64947f5dd5381ef1a4dca5cba8ed1d816243f9e48aa0b5617ed908290a3600180546001600160a01b0319166001600160a01b0392909216919091179055565b600080546001600160a01b038381166001600160a01b0319831681178455604051919092169283917f8be0079c531659141344cd1fd0a4f28419497f9722a3daafe3b4186f6b6457e09190a35050565b60006020828403121561032357600080fd5b81356001600160a01b038116811461033a57600080fd5b9392505050565b6020808252818101527f4f776e61626c653a2063616c6c6572206973206e6f7420746865206f776e657260408201526060019056fea2646970667358221220fdb436dbce6841e257815880f27ef9eb04fad194d2327322c6f78a77969c666f64736f6c63430008070033",
  "linkReferences": {},
  "deployedLinkReferences": {}
}