{
  "_format": "hh-sol-artifact-1",
  "contractName": "RebateTreasury",
  "sourceName": "contracts/RebateTreasury.sol",
  "abi": [
    {
      "inputs": [
        {
          "internalType": "address",
          "name": "mry",
          "type": "address"
        },
        {
          "internalType": "address",
          "name": "mryOracle",
          "type": "address"
        },
        {
          "internalType": "address",
          "name": "treasury",
          "type": "address"
        }
      ],
      "stateMutability": "nonpayable",
      "type": "constructor"
    },
    {
      "anonymous": false,
      "inputs": [
        {
          "indexed": true,
          "internalType": "address",
          "name": "previousOwner",
          "type": "address"
        },
        {
          "indexed": true,
          "internalType": "address",
          "name": "newOwner",
          "type": "address"
        }
      ],
      "name": "OwnershipTransferred",
      "type": "event"
    },
    {
      "inputs": [],
      "name": "DENOMINATOR",
      "outputs": [
        {
          "internalType": "uint256",
          "name": "",
          "type": "uint256"
        }
      ],
      "stateMutability": "view",
      "type": "function"
    },
    {
      "inputs": [],
      "name": "Mry",
      "outputs": [
        {
          "internalType": "contract IERC20",
          "name": "",
          "type": "address"
        }
      ],
      "stateMutability": "view",
      "type": "function"
    },
    {
      "inputs": [],
      "name": "MryOracle",
      "outputs": [
        {
          "internalType": "contract IOracle",
          "name": "",
          "type": "address"
        }
      ],
      "stateMutability": "view",
      "type": "function"
    },
    {
      "inputs": [],
      "name": "Treasury",
      "outputs": [
        {
          "internalType": "contract ITreasury",
          "name": "",
          "type": "address"
        }
      ],
      "stateMutability": "view",
      "type": "function"
    },
    {
      "inputs": [],
      "name": "WFTM",
      "outputs": [
        {
          "internalType": "address",
          "name": "",
          "type": "address"
        }
      ],
      "stateMutability": "view",
      "type": "function"
    },
    {
      "inputs": [
        {
          "internalType": "address",
          "name": "",
          "type": "address"
        }
      ],
      "name": "assets",
      "outputs": [
        {
          "internalType": "bool",
          "name": "isAdded",
          "type": "bool"
        },
        {
          "internalType": "uint256",
          "name": "multiplier",
          "type": "uint256"
        },
        {
          "internalType": "address",
          "name": "oracle",
          "type": "address"
        },
        {
          "internalType": "bool",
          "name": "isLP",
          "type": "bool"
        },
        {
          "internalType": "address",
          "name": "pair",
          "type": "address"
        }
      ],
      "stateMutability": "view",
      "type": "function"
    },
    {
      "inputs": [
        {
          "internalType": "address",
          "name": "token",
          "type": "address"
        },
        {
          "internalType": "uint256",
          "name": "amount",
          "type": "uint256"
        }
      ],
      "name": "bond",
      "outputs": [],
      "stateMutability": "nonpayable",
      "type": "function"
    },
    {
      "inputs": [],
      "name": "bondFactor",
      "outputs": [
        {
          "internalType": "uint256",
          "name": "",
          "type": "uint256"
        }
      ],
      "stateMutability": "view",
      "type": "function"
    },
    {
      "inputs": [],
      "name": "bondThreshold",
      "outputs": [
        {
          "internalType": "uint256",
          "name": "",
          "type": "uint256"
        }
      ],
      "stateMutability": "view",
      "type": "function"
    },
    {
      "inputs": [],
      "name": "bondVesting",
      "outputs": [
        {
          "internalType": "uint256",
          "name": "",
          "type": "uint256"
        }
      ],
      "stateMutability": "view",
      "type": "function"
    },
    {
      "inputs": [],
      "name": "buybackAmount",
      "outputs": [
        {
          "internalType": "uint256",
          "name": "",
          "type": "uint256"
        }
      ],
      "stateMutability": "view",
      "type": "function"
    },
    {
      "inputs": [],
      "name": "claimRewards",
      "outputs": [],
      "stateMutability": "nonpayable",
      "type": "function"
    },
    {
      "inputs": [
        {
          "internalType": "address",
          "name": "account",
          "type": "address"
        }
      ],
      "name": "claimableMry",
      "outputs": [
        {
          "internalType": "uint256",
          "name": "",
          "type": "uint256"
        }
      ],
      "stateMutability": "view",
      "type": "function"
    },
    {
      "inputs": [],
      "name": "getBondPremium",
      "outputs": [
        {
          "internalType": "uint256",
          "name": "",
          "type": "uint256"
        }
      ],
      "stateMutability": "view",
      "type": "function"
    },
    {
      "inputs": [],
      "name": "getMryPrice",
      "outputs": [
        {
          "internalType": "uint256",
          "name": "",
          "type": "uint256"
        }
      ],
      "stateMutability": "view",
      "type": "function"
    },
    {
      "inputs": [
        {
          "internalType": "address",
          "name": "token",
          "type": "address"
        },
        {
          "internalType": "uint256",
          "name": "amount",
          "type": "uint256"
        }
      ],
      "name": "getMryReturn",
      "outputs": [
        {
          "internalType": "uint256",
          "name": "",
          "type": "uint256"
        }
      ],
      "stateMutability": "view",
      "type": "function"
    },
    {
      "inputs": [
        {
          "internalType": "address",
          "name": "token",
          "type": "address"
        }
      ],
      "name": "getTokenPrice",
      "outputs": [
        {
          "internalType": "uint256",
          "name": "",
          "type": "uint256"
        }
      ],
      "stateMutability": "view",
      "type": "function"
    },
    {
      "inputs": [],
      "name": "lastBuyback",
      "outputs": [
        {
          "internalType": "uint256",
          "name": "",
          "type": "uint256"
        }
      ],
      "stateMutability": "view",
      "type": "function"
    },
    {
      "inputs": [],
      "name": "owner",
      "outputs": [
        {
          "internalType": "address",
          "name": "",
          "type": "address"
        }
      ],
      "stateMutability": "view",
      "type": "function"
    },
    {
      "inputs": [
        {
          "internalType": "address[]",
          "name": "tokens",
          "type": "address[]"
        }
      ],
      "name": "redeemAssetsForBuyback",
      "outputs": [],
      "stateMutability": "nonpayable",
      "type": "function"
    },
    {
      "inputs": [],
      "name": "renounceOwnership",
      "outputs": [],
      "stateMutability": "nonpayable",
      "type": "function"
    },
    {
      "inputs": [],
      "name": "secondaryFactor",
      "outputs": [
        {
          "internalType": "uint256",
          "name": "",
          "type": "uint256"
        }
      ],
      "stateMutability": "view",
      "type": "function"
    },
    {
      "inputs": [],
      "name": "secondaryThreshold",
      "outputs": [
        {
          "internalType": "uint256",
          "name": "",
          "type": "uint256"
        }
      ],
      "stateMutability": "view",
      "type": "function"
    },
    {
      "inputs": [
        {
          "internalType": "address",
          "name": "token",
          "type": "address"
        },
        {
          "internalType": "bool",
          "name": "isAdded",
          "type": "bool"
        },
        {
          "internalType": "uint256",
          "name": "multiplier",
          "type": "uint256"
        },
        {
          "internalType": "address",
          "name": "oracle",
          "type": "address"
        },
        {
          "internalType": "bool",
          "name": "isLP",
          "type": "bool"
        },
        {
          "internalType": "address",
          "name": "pair",
          "type": "address"
        }
      ],
      "name": "setAsset",
      "outputs": [],
      "stateMutability": "nonpayable",
      "type": "function"
    },
    {
      "inputs": [
        {
          "internalType": "uint256",
          "name": "primaryThreshold",
          "type": "uint256"
        },
        {
          "internalType": "uint256",
          "name": "primaryFactor",
          "type": "uint256"
        },
        {
          "internalType": "uint256",
          "name": "secondThreshold",
          "type": "uint256"
        },
        {
          "internalType": "uint256",
          "name": "secondFactor",
          "type": "uint256"
        },
        {
          "internalType": "uint256",
          "name": "vestingPeriod",
          "type": "uint256"
        }
      ],
      "name": "setBondParameters",
      "outputs": [],
      "stateMutability": "nonpayable",
      "type": "function"
    },
    {
      "inputs": [
        {
          "internalType": "address",
          "name": "mry",
          "type": "address"
        }
      ],
      "name": "setMry",
      "outputs": [],
      "stateMutability": "nonpayable",
      "type": "function"
    },
    {
      "inputs": [
        {
          "internalType": "address",
          "name": "oracle",
          "type": "address"
        }
      ],
      "name": "setMryOracle",
      "outputs": [],
      "stateMutability": "nonpayable",
      "type": "function"
    },
    {
      "inputs": [
        {
          "internalType": "address",
          "name": "treasury",
          "type": "address"
        }
      ],
      "name": "setTreasury",
      "outputs": [],
      "stateMutability": "nonpayable",
      "type": "function"
    },
    {
      "inputs": [],
      "name": "totalVested",
      "outputs": [
        {
          "internalType": "uint256",
          "name": "",
          "type": "uint256"
        }
      ],
      "stateMutability": "view",
      "type": "function"
    },
    {
      "inputs": [
        {
          "internalType": "address",
          "name": "newOwner",
          "type": "address"
        }
      ],
      "name": "transferOwnership",
      "outputs": [],
      "stateMutability": "nonpayable",
      "type": "function"
    },
    {
      "inputs": [
        {
          "internalType": "address",
          "name": "",
          "type": "address"
        }
      ],
      "name": "vesting",
      "outputs": [
        {
          "internalType": "uint256",
          "name": "amount",
          "type": "uint256"
        },
        {
          "internalType": "uint256",
          "name": "period",
          "type": "uint256"
        },
        {
          "internalType": "uint256",
          "name": "end",
          "type": "uint256"
        },
        {
          "internalType": "uint256",
          "name": "claimed",
          "type": "uint256"
        },
        {
          "internalType": "uint256",
          "name": "lastClaimed",
          "type": "uint256"
        }
      ],
      "stateMutability": "view",
      "type": "function"
    }
  ],
  "bytecode": "0x608060405262030d40600655620c3500600755620aae60600855620249f06009556203f480600a556000600b55620186a0600d553480156200004057600080fd5b5060405162001cf738038062001cf783398101604081905262000063916200011e565b6200006e33620000b1565b600180546001600160a01b039485166001600160a01b03199182161790915560028054938516938216939093179092556003805491909316911617905562000168565b600080546001600160a01b038381166001600160a01b0319831681178455604051919092169283917f8be0079c531659141344cd1fd0a4f28419497f9722a3daafe3b4186f6b6457e09190a35050565b80516001600160a01b03811681146200011957600080fd5b919050565b6000806000606084860312156200013457600080fd5b6200013f8462000101565b92506200014f6020850162000101565b91506200015f6040850162000101565b90509250925092565b611b7f80620001786000396000f3fe608060405234801561001057600080fd5b50600436106101e55760003560e01c80639235f1971161010f578063d411401d116100a2578063e388c42311610071578063e388c42314610399578063f0f44260146103fe578063f11b818814610411578063f2fde38b1461049a57600080fd5b8063d411401d14610361578063d5035a4d1461036a578063db0a9c3d1461037d578063de6d8a361461038657600080fd5b8063bee2a653116100de578063bee2a6531461032b578063bf855e8714610333578063c4bdb8921461033b578063d02641a01461034e57600080fd5b80639235f197146102e957806399a2faaf146102f25780639f882bd514610305578063a515366a1461031857600080fd5b8063563df32f11610187578063715018a611610156578063715018a6146102b35780637e5a9830146102bb5780638da5cb5b146102ce578063918f8674146102df57600080fd5b8063563df32f1461027b5780635f390ec01461028e57806363fd7f49146102a157806367f77e9b146102aa57600080fd5b806324d57db2116101c357806324d57db21461024c57806333920e291461025f578063372500ab146102685780633dd788a11461027257600080fd5b8063199cbc54146101ea5780631b2326ae1461020657806321dbe87614610219575b600080fd5b6101f3600b5481565b6040519081526020015b60405180910390f35b6101f36102143660046117a8565b6104ad565b6102347321be370d5312f44cb42ce377bc9b8a0cef1a4c8381565b6040516001600160a01b0390911681526020016101fd565b6101f361025a366004611862565b610576565b6101f3600a5481565b610270610652565b005b6101f3600c5481565b600354610234906001600160a01b031681565b61027061029c36600461188e565b61065d565b6101f360065481565b6101f360095481565b6102706109ea565b6102706102c93660046117a8565b610a1e565b6000546001600160a01b0316610234565b6101f3620f424081565b6101f360085481565b6102706103003660046119b2565b610a6a565b6102706103133660046117e9565b610aab565b610270610326366004611862565b610b47565b6101f3610dd9565b6101f3610e79565b600154610234906001600160a01b031681565b6101f361035c3660046117a8565b610f83565b6101f360075481565b6102706103783660046117a8565b61147e565b6101f3600d5481565b600254610234906001600160a01b031681565b6103d66103a73660046117a8565b600560205260009081526040902080546001820154600283015460038401546004909401549293919290919085565b604080519586526020860194909452928401919091526060830152608082015260a0016101fd565b61027061040c3660046117a8565b6114ca565b61046261041f3660046117a8565b600460205260009081526040902080546001820154600283015460039093015460ff9283169391926001600160a01b0380841693600160a01b9004909116911685565b60408051951515865260208601949094526001600160a01b03928316938501939093521515606084015216608082015260a0016101fd565b6102706104a83660046117a8565b611516565b6001600160a01b0381166000908152600560209081526040808320815160a081018352815481526001820154938101939093526002810154918301919091526003810154606083015260040154608082018190524211158061051757508060400151816080015110155b156105255750600092915050565b600081608001518260400151421161053d5742610543565b82604001515b61054d9190611ac8565b905081602001518183600001516105649190611aa9565b61056e9190611a87565b949350505050565b6001600160a01b038216600090815260046020526040812054839060ff166105b95760405162461bcd60e51b81526004016105b0906119ed565b60405180910390fd5b60006105c3610dd9565b905060006105d086610f83565b905060006105dc610e79565b9050826105ec620f424080611aa9565b6001600160a01b038916600090815260046020526040902060010154610615620f424085611a6f565b61061f868b611aa9565b6106299190611aa9565b6106339190611aa9565b61063d9190611a87565b6106479190611a87565b979650505050505050565b61065b336115b1565b565b6000546001600160a01b031633146106875760405162461bcd60e51b81526004016105b090611a3a565b670de0b6b3a7640000610698610dd9565b106106f05760405162461bcd60e51b815260206004820152602260248201527f52656261746554726561737572793a20756e61626c6520746f20627579206261604482015261636b60f01b60648201526084016105b0565b6003546040805163900cf0cf60e01b815290516000926001600160a01b03169163900cf0cf916004808301926020929190829003018186803b15801561073557600080fd5b505afa158015610749573d6000803e3d6000fd5b505050506040513d601f19601f8201168201806040525081019061076d9190611999565b905080600c5414156107cd5760405162461bcd60e51b815260206004820152602360248201527f52656261746554726561737572793a20616c726561647920626f75676874206260448201526261636b60e81b60648201526084016105b0565b600c81905560005b828110156109e457600460008585848181106107f3576107f3611b10565b905060200201602081019061080891906117a8565b6001600160a01b0316815260208101919091526040016000205460ff166108715760405162461bcd60e51b815260206004820152601d60248201527f52656261746554726561737572793a20696e76616c696420746f6b656e00000060448201526064016105b0565b600084848381811061088557610885611b10565b905060200201602081019061089a91906117a8565b9050806001600160a01b031663a9059cbb6108bd6000546001600160a01b031690565b600d546040516370a0823160e01b8152306004820152620f424091906001600160a01b038716906370a082319060240160206040518083038186803b15801561090557600080fd5b505afa158015610919573d6000803e3d6000fd5b505050506040513d601f19601f8201168201806040525081019061093d9190611999565b6109479190611aa9565b6109519190611a87565b6040516001600160e01b031960e085901b1681526001600160a01b0390921660048301526024820152604401602060405180830381600087803b15801561099757600080fd5b505af11580156109ab573d6000803e3d6000fd5b505050506040513d601f19601f820116820180604052508101906109cf9190611903565b505080806109dc90611adf565b9150506107d5565b50505050565b6000546001600160a01b03163314610a145760405162461bcd60e51b81526004016105b090611a3a565b61065b600061173c565b6000546001600160a01b03163314610a485760405162461bcd60e51b81526004016105b090611a3a565b600180546001600160a01b0319166001600160a01b0392909216919091179055565b6000546001600160a01b03163314610a945760405162461bcd60e51b81526004016105b090611a3a565b600694909455600792909255600855600955600a55565b6000546001600160a01b03163314610ad55760405162461bcd60e51b81526004016105b090611a3a565b6001600160a01b039586166000908152600460205260409020805460ff191695151595909517855560018501939093556002840180549286166001600160a81b031990931692909217600160a01b91151591909102179055600390910180546001600160a01b03191691909216179055565b6001600160a01b038216600090815260046020526040902054829060ff16610b815760405162461bcd60e51b81526004016105b0906119ed565b60008211610bdd5760405162461bcd60e51b815260206004820152602360248201527f52656261746554726561737572793a20696e76616c696420626f6e6420616d6f6044820152621d5b9d60ea1b60648201526084016105b0565b6000610be98484610576565b600b546001546040516370a0823160e01b815230600482015292935090916001600160a01b03909116906370a082319060240160206040518083038186803b158015610c3457600080fd5b505afa158015610c48573d6000803e3d6000fd5b505050506040513d601f19601f82011682018060405250810190610c6c9190611999565b610c769190611ac8565b811115610cd65760405162461bcd60e51b815260206004820152602860248201527f52656261746554726561737572793a20696e73756666696369656e74206d72796044820152672062616c616e636560c01b60648201526084016105b0565b6040516323b872dd60e01b8152336004820152306024820152604481018490526001600160a01b038516906323b872dd90606401602060405180830381600087803b158015610d2457600080fd5b505af1158015610d38573d6000803e3d6000fd5b505050506040513d601f19601f82011682018060405250810190610d5c9190611903565b50610d66336115b1565b336000908152600560205260409020600381015481548391610d8791611ac8565b610d919190611a6f565b8155600a5460018201819055610da79042611a6f565b6002820155600060038201819055426004830155600b8054849290610dcd908490611a6f565b90915550505050505050565b600254600154604051633ddac95360e01b81526001600160a01b039182166004820152670de0b6b3a764000060248201526000929190911690633ddac9539060440160206040518083038186803b158015610e3357600080fd5b505afa158015610e47573d6000803e3d6000fd5b505050506040513d601f19601f82011682018060405250810190610e6b9190611970565b6001600160901b0316905090565b600080610e84610dd9565b9050670de0b6b3a7640000811015610e9e57600091505090565b6000620f4240670de0b6b3a7640000610eb78285611aa9565b610ec19190611a87565b610ecb9190611ac8565b9050600654811015610ee05760009250505090565b6008548111610f1957620f424060075460065483610efe9190611ac8565b610f089190611aa9565b610f129190611a87565b9250505090565b6000620f4240600754600654600854610f329190611ac8565b610f3c9190611aa9565b610f469190611a87565b9050620f424060095460085484610f5d9190611ac8565b610f679190611aa9565b610f719190611a87565b610f7b9082611a6f565b935050505090565b6001600160a01b038116600090815260046020526040812054829060ff16610fbd5760405162461bcd60e51b81526004016105b0906119ed565b6001600160a01b03808416600090815260046020908152604091829020825160a081018452815460ff908116151582526001830154938201939093526002820154808616948201859052600160a01b90049092161515606083018190526003909101549093166080820152916110c657604051633ddac95360e01b81526001600160a01b038681166004830152670de0b6b3a76400006024830152821690633ddac9539060440160206040518083038186803b15801561107c57600080fd5b505afa158015611090573d6000803e3d6000fd5b505050506040513d601f19601f820116820180604052508101906110b49190611970565b6001600160901b031693505050611478565b6000826080015190506000816001600160a01b03166318160ddd6040518163ffffffff1660e01b815260040160206040518083038186803b15801561110a57600080fd5b505afa15801561111e573d6000803e3d6000fd5b505050506040513d601f19601f820116820180604052508101906111429190611999565b90506000826001600160a01b0316630dfe16816040518163ffffffff1660e01b815260040160206040518083038186803b15801561117f57600080fd5b505afa158015611193573d6000803e3d6000fd5b505050506040513d601f19601f820116820180604052508101906111b791906117cc565b90506000836001600160a01b031663d21220a76040518163ffffffff1660e01b815260040160206040518083038186803b1580156111f457600080fd5b505afa158015611208573d6000803e3d6000fd5b505050506040513d601f19601f8201168201806040525081019061122c91906117cc565b9050600080856001600160a01b0316630902f1ac6040518163ffffffff1660e01b815260040160606040518083038186803b15801561126a57600080fd5b505afa15801561127e573d6000803e3d6000fd5b505050506040513d601f19601f820116820180604052508101906112a29190611920565b506001600160701b0391821693501690506001600160a01b0383167321be370d5312f44cb42ce377bc9b8a0cef1a4c8314156113ba57604051633ddac95360e01b81526001600160a01b038581166004830152670de0b6b3a7640000602483015260009190891690633ddac9539060440160206040518083038186803b15801561132b57600080fd5b505afa15801561133f573d6000803e3d6000fd5b505050506040513d601f19601f820116820180604052508101906113639190611970565b6001600160901b031690508561138183670de0b6b3a7640000611aa9565b61138b9190611a87565b866113968584611aa9565b6113a09190611a87565b6113aa9190611a6f565b9a50505050505050505050611478565b604051633ddac95360e01b81526001600160a01b038481166004830152670de0b6b3a7640000602483015260009190891690633ddac9539060440160206040518083038186803b15801561140d57600080fd5b505afa158015611421573d6000803e3d6000fd5b505050506040513d601f19601f820116820180604052508101906114459190611970565b6001600160901b031690508561146384670de0b6b3a7640000611aa9565b61146d9190611a87565b866113968484611aa9565b50919050565b6000546001600160a01b031633146114a85760405162461bcd60e51b81526004016105b090611a3a565b600280546001600160a01b0319166001600160a01b0392909216919091179055565b6000546001600160a01b031633146114f45760405162461bcd60e51b81526004016105b090611a3a565b600380546001600160a01b0319166001600160a01b0392909216919091179055565b6000546001600160a01b031633146115405760405162461bcd60e51b81526004016105b090611a3a565b6001600160a01b0381166115a55760405162461bcd60e51b815260206004820152602660248201527f4f776e61626c653a206e6577206f776e657220697320746865207a65726f206160448201526564647265737360d01b60648201526084016105b0565b6115ae8161173c565b50565b6001600160a01b0381166000908152600560205260409020805415806115db575060038101548154145b156115e4575050565b8060040154421115806115ff57508060020154816004015410155b15611608575050565b60008160040154826002015442116116205742611626565b82600201545b6116309190611ac8565b9050600082600101548284600001546116499190611aa9565b6116539190611a87565b9050806116605750505050565b808360030160008282546116749190611a6f565b90915550506002830154421161168a5742611690565b82600201545b836004018190555080600b60008282546116aa9190611ac8565b909155505060015460405163a9059cbb60e01b81526001600160a01b038681166004830152602482018490529091169063a9059cbb90604401602060405180830381600087803b1580156116fd57600080fd5b505af1158015611711573d6000803e3d6000fd5b505050506040513d601f19601f820116820180604052508101906117359190611903565b5050505050565b600080546001600160a01b038381166001600160a01b0319831681178455604051919092169283917f8be0079c531659141344cd1fd0a4f28419497f9722a3daafe3b4186f6b6457e09190a35050565b80516001600160701b03811681146117a357600080fd5b919050565b6000602082840312156117ba57600080fd5b81356117c581611b26565b9392505050565b6000602082840312156117de57600080fd5b81516117c581611b26565b60008060008060008060c0878903121561180257600080fd5b863561180d81611b26565b9550602087013561181d81611b3b565b945060408701359350606087013561183481611b26565b9250608087013561184481611b3b565b915060a087013561185481611b26565b809150509295509295509295565b6000806040838503121561187557600080fd5b823561188081611b26565b946020939093013593505050565b600080602083850312156118a157600080fd5b823567ffffffffffffffff808211156118b957600080fd5b818501915085601f8301126118cd57600080fd5b8135818111156118dc57600080fd5b8660208260051b85010111156118f157600080fd5b60209290920196919550909350505050565b60006020828403121561191557600080fd5b81516117c581611b3b565b60008060006060848603121561193557600080fd5b61193e8461178c565b925061194c6020850161178c565b9150604084015163ffffffff8116811461196557600080fd5b809150509250925092565b60006020828403121561198257600080fd5b81516001600160901b03811681146117c557600080fd5b6000602082840312156119ab57600080fd5b5051919050565b600080600080600060a086880312156119ca57600080fd5b505083359560208501359550604085013594606081013594506080013592509050565b6020808252602d908201527f52656261746554726561737572793a20746f6b656e206973206e6f742061206260408201526c1bdb9918589b1948185cdcd95d609a1b606082015260800190565b6020808252818101527f4f776e61626c653a2063616c6c6572206973206e6f7420746865206f776e6572604082015260600190565b60008219821115611a8257611a82611afa565b500190565b600082611aa457634e487b7160e01b600052601260045260246000fd5b500490565b6000816000190483118215151615611ac357611ac3611afa565b500290565b600082821015611ada57611ada611afa565b500390565b6000600019821415611af357611af3611afa565b5060010190565b634e487b7160e01b600052601160045260246000fd5b634e487b7160e01b600052603260045260246000fd5b6001600160a01b03811681146115ae57600080fd5b80151581146115ae57600080fdfea264697066735822122092849e63f6365f56fdc2f61b6e2ca4553e0a0ed98ab2895da19be5352c348d3364736f6c63430008070033",
  "linkReferences": {},
  "deployedLinkReferences": {}
}