{
  "_format": "hh-sol-artifact-1",
  "contractName": "TaxOffice",
  "sourceName": "contracts/TaxOffice.sol",
  "abi": [
    {
      "inputs": [
        {
          "internalType": "address",
          "name": "_mry",
          "type": "address"
        }
      ],
      "stateMutability": "nonpayable",
      "type": "constructor"
    },
    {
      "anonymous": false,
      "inputs": [
        {
          "indexed": true,
          "internalType": "address",
          "name": "previousOperator",
          "type": "address"
        },
        {
          "indexed": true,
          "internalType": "address",
          "name": "newOperator",
          "type": "address"
        }
      ],
      "name": "OperatorTransferred",
      "type": "event"
    },
    {
      "anonymous": false,
      "inputs": [
        {
          "indexed": true,
          "internalType": "address",
          "name": "previousOwner",
          "type": "address"
        },
        {
          "indexed": true,
          "internalType": "address",
          "name": "newOwner",
          "type": "address"
        }
      ],
      "name": "OwnershipTransferred",
      "type": "event"
    },
    {
      "inputs": [],
      "name": "disableAutoCalculateTax",
      "outputs": [],
      "stateMutability": "nonpayable",
      "type": "function"
    },
    {
      "inputs": [],
      "name": "enableAutoCalculateTax",
      "outputs": [],
      "stateMutability": "nonpayable",
      "type": "function"
    },
    {
      "inputs": [
        {
          "internalType": "address",
          "name": "_address",
          "type": "address"
        }
      ],
      "name": "excludeAddressFromTax",
      "outputs": [
        {
          "internalType": "bool",
          "name": "",
          "type": "bool"
        }
      ],
      "stateMutability": "nonpayable",
      "type": "function"
    },
    {
      "inputs": [
        {
          "internalType": "address",
          "name": "_address",
          "type": "address"
        }
      ],
      "name": "includeAddressInTax",
      "outputs": [
        {
          "internalType": "bool",
          "name": "",
          "type": "bool"
        }
      ],
      "stateMutability": "nonpayable",
      "type": "function"
    },
    {
      "inputs": [],
      "name": "isOperator",
      "outputs": [
        {
          "internalType": "bool",
          "name": "",
          "type": "bool"
        }
      ],
      "stateMutability": "view",
      "type": "function"
    },
    {
      "inputs": [],
      "name": "mry",
      "outputs": [
        {
          "internalType": "address",
          "name": "",
          "type": "address"
        }
      ],
      "stateMutability": "view",
      "type": "function"
    },
    {
      "inputs": [],
      "name": "operator",
      "outputs": [
        {
          "internalType": "address",
          "name": "",
          "type": "address"
        }
      ],
      "stateMutability": "view",
      "type": "function"
    },
    {
      "inputs": [],
      "name": "owner",
      "outputs": [
        {
          "internalType": "address",
          "name": "",
          "type": "address"
        }
      ],
      "stateMutability": "view",
      "type": "function"
    },
    {
      "inputs": [],
      "name": "renounceOwnership",
      "outputs": [],
      "stateMutability": "nonpayable",
      "type": "function"
    },
    {
      "inputs": [
        {
          "internalType": "uint256",
          "name": "_burnThreshold",
          "type": "uint256"
        }
      ],
      "name": "setBurnThreshold",
      "outputs": [],
      "stateMutability": "nonpayable",
      "type": "function"
    },
    {
      "inputs": [
        {
          "internalType": "address",
          "name": "_taxCollectorAddress",
          "type": "address"
        }
      ],
      "name": "setTaxCollectorAddress",
      "outputs": [],
      "stateMutability": "nonpayable",
      "type": "function"
    },
    {
      "inputs": [
        {
          "internalType": "uint256",
          "name": "_taxRate",
          "type": "uint256"
        }
      ],
      "name": "setTaxRate",
      "outputs": [],
      "stateMutability": "nonpayable",
      "type": "function"
    },
    {
      "inputs": [
        {
          "internalType": "uint8",
          "name": "_index",
          "type": "uint8"
        },
        {
          "internalType": "uint256",
          "name": "_value",
          "type": "uint256"
        }
      ],
      "name": "setTaxTiersRate",
      "outputs": [
        {
          "internalType": "bool",
          "name": "",
          "type": "bool"
        }
      ],
      "stateMutability": "nonpayable",
      "type": "function"
    },
    {
      "inputs": [
        {
          "internalType": "uint8",
          "name": "_index",
          "type": "uint8"
        },
        {
          "internalType": "uint256",
          "name": "_value",
          "type": "uint256"
        }
      ],
      "name": "setTaxTiersTwap",
      "outputs": [
        {
          "internalType": "bool",
          "name": "",
          "type": "bool"
        }
      ],
      "stateMutability": "nonpayable",
      "type": "function"
    },
    {
      "inputs": [
        {
          "internalType": "address",
          "name": "_mryOracle",
          "type": "address"
        }
      ],
      "name": "setTaxableMryOracle",
      "outputs": [],
      "stateMutability": "nonpayable",
      "type": "function"
    },
    {
      "inputs": [
        {
          "internalType": "address",
          "name": "newOperator_",
          "type": "address"
        }
      ],
      "name": "transferOperator",
      "outputs": [],
      "stateMutability": "nonpayable",
      "type": "function"
    },
    {
      "inputs": [
        {
          "internalType": "address",
          "name": "newOwner",
          "type": "address"
        }
      ],
      "name": "transferOwnership",
      "outputs": [],
      "stateMutability": "nonpayable",
      "type": "function"
    },
    {
      "inputs": [
        {
          "internalType": "address",
          "name": "_newTaxOffice",
          "type": "address"
        }
      ],
      "name": "transferTaxOffice",
      "outputs": [],
      "stateMutability": "nonpayable",
      "type": "function"
    }
  ],
  "bytecode": "0x608060405234801561001057600080fd5b50604051610ca5380380610ca583398101604081905261002f91610147565b610038336100f7565b600180546001600160a01b031916339081179091556040516000907f74da04524d50c64947f5dd5381ef1a4dca5cba8ed1d816243f9e48aa0b5617ed908290a36001600160a01b0381166100d25760405162461bcd60e51b815260206004820152601760248201527f6d727920616464726573732063616e6e6f742062652030000000000000000000604482015260640160405180910390fd5b600280546001600160a01b0319166001600160a01b0392909216919091179055610177565b600080546001600160a01b038381166001600160a01b0319831681178455604051919092169283917f8be0079c531659141344cd1fd0a4f28419497f9722a3daafe3b4186f6b6457e09190a35050565b60006020828403121561015957600080fd5b81516001600160a01b038116811461017057600080fd5b9392505050565b610b1f806101866000396000f3fe608060405234801561001057600080fd5b50600436106101165760003560e01c80638da5cb5b116100a2578063be94f86b11610071578063be94f86b14610227578063c6d69a301461023a578063d1d31a371461024d578063f2fde38b14610260578063ff87fc7c1461027357600080fd5b80638da5cb5b146101dd5780639d6b5f21146101ee578063a2ff6a9d14610201578063b87c5a4a1461021457600080fd5b8063570ca735116100e9578063570ca7351461019657806365bbacd9146101a757806366206ce9146101af57806369356d47146101c2578063715018a6146101d557600080fd5b806319db099d1461011b57806329605e77146101435780633ab1f35f146101585780634456eda214610183575b600080fd5b61012e6101293660046109da565b61027b565b60405190151581526020015b60405180910390f35b6101566101513660046109da565b610337565b005b60025461016b906001600160a01b031681565b6040516001600160a01b03909116815260200161013a565b6001546001600160a01b0316331461012e565b6001546001600160a01b031661016b565b61015661036d565b61012e6101bd366004610a3e565b610401565b6101566101d03660046109da565b6104bd565b61015661054a565b6000546001600160a01b031661016b565b6101566101fc366004610a25565b610580565b61015661020f3660046109da565b6105db565b61012e610222366004610a3e565b610637565b61012e6102353660046109da565b61069e565b610156610248366004610a25565b6106fd565b61015661025b3660046109da565b610758565b61015661026e3660046109da565b6107b4565b61015661084c565b6001546000906001600160a01b031633146102b15760405162461bcd60e51b81526004016102a890610aa5565b60405180910390fd5b6002546040516393995d4b60e01b81526001600160a01b038481166004830152909116906393995d4b906024015b602060405180830381600087803b1580156102f957600080fd5b505af115801561030d573d6000803e3d6000fd5b505050506040513d601f19601f820116820180604052508101906103319190610a03565b92915050565b6000546001600160a01b031633146103615760405162461bcd60e51b81526004016102a890610a70565b61036a816108c6565b50565b6001546001600160a01b031633146103975760405162461bcd60e51b81526004016102a890610aa5565b600260009054906101000a90046001600160a01b03166001600160a01b03166365bbacd96040518163ffffffff1660e01b8152600401600060405180830381600087803b1580156103e757600080fd5b505af11580156103fb573d6000803e3d6000fd5b50505050565b6001546000906001600160a01b0316331461042e5760405162461bcd60e51b81526004016102a890610aa5565b6002546040516366206ce960e01b815260ff85166004820152602481018490526001600160a01b03909116906366206ce9906044015b602060405180830381600087803b15801561047e57600080fd5b505af1158015610492573d6000803e3d6000fd5b505050506040513d601f19601f820116820180604052508101906104b69190610a03565b9392505050565b6001546001600160a01b031633146104e75760405162461bcd60e51b81526004016102a890610aa5565b6002546040516369356d4760e01b81526001600160a01b038381166004830152909116906369356d47906024015b600060405180830381600087803b15801561052f57600080fd5b505af1158015610543573d6000803e3d6000fd5b5050505050565b6000546001600160a01b031633146105745760405162461bcd60e51b81526004016102a890610a70565b61057e600061098a565b565b6001546001600160a01b031633146105aa5760405162461bcd60e51b81526004016102a890610aa5565b600254604051639d6b5f2160e01b8152600481018390526001600160a01b0390911690639d6b5f2190602401610515565b6001546001600160a01b031633146106055760405162461bcd60e51b81526004016102a890610aa5565b60025460405163d5035a4d60e01b81526001600160a01b0383811660048301529091169063d5035a4d90602401610515565b6001546000906001600160a01b031633146106645760405162461bcd60e51b81526004016102a890610aa5565b600254604051635c3e2d2560e11b815260ff85166004820152602481018490526001600160a01b039091169063b87c5a4a90604401610464565b6001546000906001600160a01b031633146106cb5760405162461bcd60e51b81526004016102a890610aa5565b600254604051631bac736760e11b81526001600160a01b03848116600483015290911690633758e6ce906024016102df565b6001546001600160a01b031633146107275760405162461bcd60e51b81526004016102a890610aa5565b600254604051630c6d69a360e41b8152600481018390526001600160a01b039091169063c6d69a3090602401610515565b6001546001600160a01b031633146107825760405162461bcd60e51b81526004016102a890610aa5565b600254604051631f83ebb560e11b81526001600160a01b03838116600483015290911690633f07d76a90602401610515565b6000546001600160a01b031633146107de5760405162461bcd60e51b81526004016102a890610a70565b6001600160a01b0381166108435760405162461bcd60e51b815260206004820152602660248201527f4f776e61626c653a206e6577206f776e657220697320746865207a65726f206160448201526564647265737360d01b60648201526084016102a8565b61036a8161098a565b6001546001600160a01b031633146108765760405162461bcd60e51b81526004016102a890610aa5565b600260009054906101000a90046001600160a01b03166001600160a01b031663ff87fc7c6040518163ffffffff1660e01b8152600401600060405180830381600087803b1580156103e757600080fd5b6001600160a01b0381166109325760405162461bcd60e51b815260206004820152602d60248201527f6f70657261746f723a207a65726f206164647265737320676976656e20666f7260448201526c103732bb9037b832b930ba37b960991b60648201526084016102a8565b6040516001600160a01b038216906000907f74da04524d50c64947f5dd5381ef1a4dca5cba8ed1d816243f9e48aa0b5617ed908290a3600180546001600160a01b0319166001600160a01b0392909216919091179055565b600080546001600160a01b038381166001600160a01b0319831681178455604051919092169283917f8be0079c531659141344cd1fd0a4f28419497f9722a3daafe3b4186f6b6457e09190a35050565b6000602082840312156109ec57600080fd5b81356001600160a01b03811681146104b657600080fd5b600060208284031215610a1557600080fd5b815180151581146104b657600080fd5b600060208284031215610a3757600080fd5b5035919050565b60008060408385031215610a5157600080fd5b823560ff81168114610a6257600080fd5b946020939093013593505050565b6020808252818101527f4f776e61626c653a2063616c6c6572206973206e6f7420746865206f776e6572604082015260600190565b60208082526024908201527f6f70657261746f723a2063616c6c6572206973206e6f7420746865206f70657260408201526330ba37b960e11b60608201526080019056fea2646970667358221220e337ce043c3bd1aa48ce709f6a985e5ab70ba31133d8f0a287dbc9f63702fe5d64736f6c63430008070033",
  "linkReferences": {},
  "deployedLinkReferences": {}
}