{
  "_format": "hh-sol-artifact-1",
  "contractName": "MRY",
  "sourceName": "contracts/MRY.sol",
  "abi": [
    {
      "inputs": [
        {
          "internalType": "uint256",
          "name": "_taxRate",
          "type": "uint256"
        },
        {
          "internalType": "address",
          "name": "_taxCollectorAddress",
          "type": "address"
        }
      ],
      "stateMutability": "nonpayable",
      "type": "constructor"
    },
    {
      "anonymous": false,
      "inputs": [
        {
          "indexed": true,
          "internalType": "address",
          "name": "owner",
          "type": "address"
        },
        {
          "indexed": true,
          "internalType": "address",
          "name": "spender",
          "type": "address"
        },
        {
          "indexed": false,
          "internalType": "uint256",
          "name": "value",
          "type": "uint256"
        }
      ],
      "name": "Approval",
      "type": "event"
    },
    {
      "anonymous": false,
      "inputs": [
        {
          "indexed": true,
          "internalType": "address",
          "name": "previousOperator",
          "type": "address"
        },
        {
          "indexed": true,
          "internalType": "address",
          "name": "newOperator",
          "type": "address"
        }
      ],
      "name": "OperatorTransferred",
      "type": "event"
    },
    {
      "anonymous": false,
      "inputs": [
        {
          "indexed": true,
          "internalType": "address",
          "name": "previousOwner",
          "type": "address"
        },
        {
          "indexed": true,
          "internalType": "address",
          "name": "newOwner",
          "type": "address"
        }
      ],
      "name": "OwnershipTransferred",
      "type": "event"
    },
    {
      "anonymous": false,
      "inputs": [
        {
          "indexed": false,
          "internalType": "address",
          "name": "oldAddress",
          "type": "address"
        },
        {
          "indexed": false,
          "internalType": "address",
          "name": "newAddress",
          "type": "address"
        }
      ],
      "name": "TaxOfficeTransferred",
      "type": "event"
    },
    {
      "anonymous": false,
      "inputs": [
        {
          "indexed": true,
          "internalType": "address",
          "name": "from",
          "type": "address"
        },
        {
          "indexed": true,
          "internalType": "address",
          "name": "to",
          "type": "address"
        },
        {
          "indexed": false,
          "internalType": "uint256",
          "name": "value",
          "type": "uint256"
        }
      ],
      "name": "Transfer",
      "type": "event"
    },
    {
      "inputs": [],
      "name": "INITIAL_GENESIS_POOL_DISTRIBUTION",
      "outputs": [
        {
          "internalType": "uint256",
          "name": "",
          "type": "uint256"
        }
      ],
      "stateMutability": "view",
      "type": "function"
    },
    {
      "inputs": [
        {
          "internalType": "address",
          "name": "owner",
          "type": "address"
        },
        {
          "internalType": "address",
          "name": "spender",
          "type": "address"
        }
      ],
      "name": "allowance",
      "outputs": [
        {
          "internalType": "uint256",
          "name": "",
          "type": "uint256"
        }
      ],
      "stateMutability": "view",
      "type": "function"
    },
    {
      "inputs": [
        {
          "internalType": "address",
          "name": "spender",
          "type": "address"
        },
        {
          "internalType": "uint256",
          "name": "amount",
          "type": "uint256"
        }
      ],
      "name": "approve",
      "outputs": [
        {
          "internalType": "bool",
          "name": "",
          "type": "bool"
        }
      ],
      "stateMutability": "nonpayable",
      "type": "function"
    },
    {
      "inputs": [],
      "name": "autoCalculateTax",
      "outputs": [
        {
          "internalType": "bool",
          "name": "",
          "type": "bool"
        }
      ],
      "stateMutability": "view",
      "type": "function"
    },
    {
      "inputs": [
        {
          "internalType": "address",
          "name": "account",
          "type": "address"
        }
      ],
      "name": "balanceOf",
      "outputs": [
        {
          "internalType": "uint256",
          "name": "",
          "type": "uint256"
        }
      ],
      "stateMutability": "view",
      "type": "function"
    },
    {
      "inputs": [
        {
          "internalType": "uint256",
          "name": "amount",
          "type": "uint256"
        }
      ],
      "name": "burn",
      "outputs": [],
      "stateMutability": "nonpayable",
      "type": "function"
    },
    {
      "inputs": [
        {
          "internalType": "address",
          "name": "account",
          "type": "address"
        },
        {
          "internalType": "uint256",
          "name": "amount",
          "type": "uint256"
        }
      ],
      "name": "burnFrom",
      "outputs": [],
      "stateMutability": "nonpayable",
      "type": "function"
    },
    {
      "inputs": [],
      "name": "burnThreshold",
      "outputs": [
        {
          "internalType": "uint256",
          "name": "",
          "type": "uint256"
        }
      ],
      "stateMutability": "view",
      "type": "function"
    },
    {
      "inputs": [],
      "name": "decimals",
      "outputs": [
        {
          "internalType": "uint8",
          "name": "",
          "type": "uint8"
        }
      ],
      "stateMutability": "view",
      "type": "function"
    },
    {
      "inputs": [
        {
          "internalType": "address",
          "name": "spender",
          "type": "address"
        },
        {
          "internalType": "uint256",
          "name": "subtractedValue",
          "type": "uint256"
        }
      ],
      "name": "decreaseAllowance",
      "outputs": [
        {
          "internalType": "bool",
          "name": "",
          "type": "bool"
        }
      ],
      "stateMutability": "nonpayable",
      "type": "function"
    },
    {
      "inputs": [],
      "name": "disableAutoCalculateTax",
      "outputs": [],
      "stateMutability": "nonpayable",
      "type": "function"
    },
    {
      "inputs": [
        {
          "internalType": "address",
          "name": "_genesisPool",
          "type": "address"
        }
      ],
      "name": "distributeReward",
      "outputs": [],
      "stateMutability": "nonpayable",
      "type": "function"
    },
    {
      "inputs": [],
      "name": "enableAutoCalculateTax",
      "outputs": [],
      "stateMutability": "nonpayable",
      "type": "function"
    },
    {
      "inputs": [
        {
          "internalType": "address",
          "name": "_address",
          "type": "address"
        }
      ],
      "name": "excludeAddress",
      "outputs": [
        {
          "internalType": "bool",
          "name": "",
          "type": "bool"
        }
      ],
      "stateMutability": "nonpayable",
      "type": "function"
    },
    {
      "inputs": [
        {
          "internalType": "address",
          "name": "",
          "type": "address"
        }
      ],
      "name": "excludedAddresses",
      "outputs": [
        {
          "internalType": "bool",
          "name": "",
          "type": "bool"
        }
      ],
      "stateMutability": "view",
      "type": "function"
    },
    {
      "inputs": [],
      "name": "getTaxTiersRatesCount",
      "outputs": [
        {
          "internalType": "uint256",
          "name": "count",
          "type": "uint256"
        }
      ],
      "stateMutability": "view",
      "type": "function"
    },
    {
      "inputs": [],
      "name": "getTaxTiersTwapsCount",
      "outputs": [
        {
          "internalType": "uint256",
          "name": "count",
          "type": "uint256"
        }
      ],
      "stateMutability": "view",
      "type": "function"
    },
    {
      "inputs": [
        {
          "internalType": "contract IERC20",
          "name": "_token",
          "type": "address"
        },
        {
          "internalType": "uint256",
          "name": "_amount",
          "type": "uint256"
        },
        {
          "internalType": "address",
          "name": "_to",
          "type": "address"
        }
      ],
      "name": "governanceRecoverUnsupported",
      "outputs": [],
      "stateMutability": "nonpayable",
      "type": "function"
    },
    {
      "inputs": [
        {
          "internalType": "address",
          "name": "_address",
          "type": "address"
        }
      ],
      "name": "includeAddress",
      "outputs": [
        {
          "internalType": "bool",
          "name": "",
          "type": "bool"
        }
      ],
      "stateMutability": "nonpayable",
      "type": "function"
    },
    {
      "inputs": [
        {
          "internalType": "address",
          "name": "spender",
          "type": "address"
        },
        {
          "internalType": "uint256",
          "name": "addedValue",
          "type": "uint256"
        }
      ],
      "name": "increaseAllowance",
      "outputs": [
        {
          "internalType": "bool",
          "name": "",
          "type": "bool"
        }
      ],
      "stateMutability": "nonpayable",
      "type": "function"
    },
    {
      "inputs": [
        {
          "internalType": "address",
          "name": "_address",
          "type": "address"
        }
      ],
      "name": "isAddressExcluded",
      "outputs": [
        {
          "internalType": "bool",
          "name": "",
          "type": "bool"
        }
      ],
      "stateMutability": "view",
      "type": "function"
    },
    {
      "inputs": [],
      "name": "isOperator",
      "outputs": [
        {
          "internalType": "bool",
          "name": "",
          "type": "bool"
        }
      ],
      "stateMutability": "view",
      "type": "function"
    },
    {
      "inputs": [
        {
          "internalType": "address",
          "name": "recipient_",
          "type": "address"
        },
        {
          "internalType": "uint256",
          "name": "amount_",
          "type": "uint256"
        }
      ],
      "name": "mint",
      "outputs": [
        {
          "internalType": "bool",
          "name": "",
          "type": "bool"
        }
      ],
      "stateMutability": "nonpayable",
      "type": "function"
    },
    {
      "inputs": [],
      "name": "mryOracle",
      "outputs": [
        {
          "internalType": "address",
          "name": "",
          "type": "address"
        }
      ],
      "stateMutability": "view",
      "type": "function"
    },
    {
      "inputs": [],
      "name": "name",
      "outputs": [
        {
          "internalType": "string",
          "name": "",
          "type": "string"
        }
      ],
      "stateMutability": "view",
      "type": "function"
    },
    {
      "inputs": [],
      "name": "operator",
      "outputs": [
        {
          "internalType": "address",
          "name": "",
          "type": "address"
        }
      ],
      "stateMutability": "view",
      "type": "function"
    },
    {
      "inputs": [],
      "name": "owner",
      "outputs": [
        {
          "internalType": "address",
          "name": "",
          "type": "address"
        }
      ],
      "stateMutability": "view",
      "type": "function"
    },
    {
      "inputs": [],
      "name": "renounceOwnership",
      "outputs": [],
      "stateMutability": "nonpayable",
      "type": "function"
    },
    {
      "inputs": [],
      "name": "rewardPoolDistributed",
      "outputs": [
        {
          "internalType": "bool",
          "name": "",
          "type": "bool"
        }
      ],
      "stateMutability": "view",
      "type": "function"
    },
    {
      "inputs": [
        {
          "internalType": "uint256",
          "name": "_burnThreshold",
          "type": "uint256"
        }
      ],
      "name": "setBurnThreshold",
      "outputs": [
        {
          "internalType": "bool",
          "name": "",
          "type": "bool"
        }
      ],
      "stateMutability": "nonpayable",
      "type": "function"
    },
    {
      "inputs": [
        {
          "internalType": "address",
          "name": "_mryOracle",
          "type": "address"
        }
      ],
      "name": "setMryOracle",
      "outputs": [],
      "stateMutability": "nonpayable",
      "type": "function"
    },
    {
      "inputs": [
        {
          "internalType": "address",
          "name": "_taxCollectorAddress",
          "type": "address"
        }
      ],
      "name": "setTaxCollectorAddress",
      "outputs": [],
      "stateMutability": "nonpayable",
      "type": "function"
    },
    {
      "inputs": [
        {
          "internalType": "address",
          "name": "_taxOffice",
          "type": "address"
        }
      ],
      "name": "setTaxOffice",
      "outputs": [],
      "stateMutability": "nonpayable",
      "type": "function"
    },
    {
      "inputs": [
        {
          "internalType": "uint256",
          "name": "_taxRate",
          "type": "uint256"
        }
      ],
      "name": "setTaxRate",
      "outputs": [],
      "stateMutability": "nonpayable",
      "type": "function"
    },
    {
      "inputs": [
        {
          "internalType": "uint8",
          "name": "_index",
          "type": "uint8"
        },
        {
          "internalType": "uint256",
          "name": "_value",
          "type": "uint256"
        }
      ],
      "name": "setTaxTiersRate",
      "outputs": [
        {
          "internalType": "bool",
          "name": "",
          "type": "bool"
        }
      ],
      "stateMutability": "nonpayable",
      "type": "function"
    },
    {
      "inputs": [
        {
          "internalType": "uint8",
          "name": "_index",
          "type": "uint8"
        },
        {
          "internalType": "uint256",
          "name": "_value",
          "type": "uint256"
        }
      ],
      "name": "setTaxTiersTwap",
      "outputs": [
        {
          "internalType": "bool",
          "name": "",
          "type": "bool"
        }
      ],
      "stateMutability": "nonpayable",
      "type": "function"
    },
    {
      "inputs": [],
      "name": "symbol",
      "outputs": [
        {
          "internalType": "string",
          "name": "",
          "type": "string"
        }
      ],
      "stateMutability": "view",
      "type": "function"
    },
    {
      "inputs": [],
      "name": "taxCollectorAddress",
      "outputs": [
        {
          "internalType": "address",
          "name": "",
          "type": "address"
        }
      ],
      "stateMutability": "view",
      "type": "function"
    },
    {
      "inputs": [],
      "name": "taxOffice",
      "outputs": [
        {
          "internalType": "address",
          "name": "",
          "type": "address"
        }
      ],
      "stateMutability": "view",
      "type": "function"
    },
    {
      "inputs": [],
      "name": "taxRate",
      "outputs": [
        {
          "internalType": "uint256",
          "name": "",
          "type": "uint256"
        }
      ],
      "stateMutability": "view",
      "type": "function"
    },
    {
      "inputs": [
        {
          "internalType": "uint256",
          "name": "",
          "type": "uint256"
        }
      ],
      "name": "taxTiersRates",
      "outputs": [
        {
          "internalType": "uint256",
          "name": "",
          "type": "uint256"
        }
      ],
      "stateMutability": "view",
      "type": "function"
    },
    {
      "inputs": [
        {
          "internalType": "uint256",
          "name": "",
          "type": "uint256"
        }
      ],
      "name": "taxTiersTwaps",
      "outputs": [
        {
          "internalType": "uint256",
          "name": "",
          "type": "uint256"
        }
      ],
      "stateMutability": "view",
      "type": "function"
    },
    {
      "inputs": [],
      "name": "totalSupply",
      "outputs": [
        {
          "internalType": "uint256",
          "name": "",
          "type": "uint256"
        }
      ],
      "stateMutability": "view",
      "type": "function"
    },
    {
      "inputs": [
        {
          "internalType": "address",
          "name": "recipient",
          "type": "address"
        },
        {
          "internalType": "uint256",
          "name": "amount",
          "type": "uint256"
        }
      ],
      "name": "transfer",
      "outputs": [
        {
          "internalType": "bool",
          "name": "",
          "type": "bool"
        }
      ],
      "stateMutability": "nonpayable",
      "type": "function"
    },
    {
      "inputs": [
        {
          "internalType": "address",
          "name": "sender",
          "type": "address"
        },
        {
          "internalType": "address",
          "name": "recipient",
          "type": "address"
        },
        {
          "internalType": "uint256",
          "name": "amount",
          "type": "uint256"
        }
      ],
      "name": "transferFrom",
      "outputs": [
        {
          "internalType": "bool",
          "name": "",
          "type": "bool"
        }
      ],
      "stateMutability": "nonpayable",
      "type": "function"
    },
    {
      "inputs": [
        {
          "internalType": "address",
          "name": "newOperator_",
          "type": "address"
        }
      ],
      "name": "transferOperator",
      "outputs": [],
      "stateMutability": "nonpayable",
      "type": "function"
    },
    {
      "inputs": [
        {
          "internalType": "address",
          "name": "newOwner",
          "type": "address"
        }
      ],
      "name": "transferOwnership",
      "outputs": [],
      "stateMutability": "nonpayable",
      "type": "function"
    }
  ],
  "bytecode": "0x6006805460ff60a01b19169055670f43fc2c04ee0000600a819055610240604052600060809081526706f05b59d3b2000060a052670853a0d2313c000060c0526709b6e64a8ec6000060e052670b1a2bc2ec50000061010052670c7d713b49da000061012052670d2f13f7789f000061014052670de0b6b3a764000061016052670e92596fd6290000610180526101a0919091526710a741a4627800006101c05267120a871cc00200006101e05267136dcc951d8c0000610200526714d1120d7b16000061022052620000d790600c90600e620005c7565b50604080516101c0810182526107d0815261076c6020820152610708918101919091526106a4606082015261064060808201526105dc60a0820181905260c0820181905260e0820181905261010082015261057861012082015261038461014082015261019061016082015260c861018082015260646101a08201526200016390600d90600e62000622565b503480156200017157600080fd5b5060405162002a3938038062002a398339810160408190526200019491620006fa565b6040518060400160405280600981526020016826b93c902a37b5b2b760b91b815250604051806040016040528060038152602001624d525960e81b8152508160039080519060200190620001ea92919062000666565b5080516200020090600490602084019062000666565b5050506200021d620002176200036e60201b60201c565b62000372565b600680546001600160a01b031916339081179091556040516000907f74da04524d50c64947f5dd5381ef1a4dca5cba8ed1d816243f9e48aa0b5617ed908290a36127108210620002b45760405162461bcd60e51b815260206004820152601b60248201527f74617820657175616c206f722062696767657220746f2031303025000000000060448201526064015b60405180910390fd5b6001600160a01b038116620003235760405162461bcd60e51b815260206004820152602e60248201527f74617820636f6c6c6563746f722061646472657373206d757374206265206e6f60448201526d6e2d7a65726f206164647265737360901b6064820152608401620002ab565b6200032e30620003c4565b506200034333670de0b6b3a7640000620004e2565b600991909155600b80546001600160a01b0319166001600160a01b039092169190911790556200079d565b3390565b600580546001600160a01b038381166001600160a01b0319831681179093556040519116919082907f8be0079c531659141344cd1fd0a4f28419497f9722a3daafe3b4186f6b6457e090600090a35050565b6006546000906001600160a01b0316331480620003eb57506008546001600160a01b031633145b6200044e5760405162461bcd60e51b815260206004820152602c60248201527f43616c6c6572206973206e6f7420746865206f70657261746f72206f7220746860448201526b6520746178206f666669636560a01b6064820152608401620002ab565b6001600160a01b0382166000908152600e602052604090205460ff1615620004b95760405162461bcd60e51b815260206004820152601960248201527f616464726573732063616e2774206265206578636c75646564000000000000006044820152606401620002ab565b506001600160a01b03166000908152600e60205260409020805460ff1916600190811790915590565b6001600160a01b0382166200053a5760405162461bcd60e51b815260206004820152601f60248201527f45524332303a206d696e7420746f20746865207a65726f2061646472657373006044820152606401620002ab565b80600260008282546200054e919062000739565b90915550506001600160a01b038216600090815260208190526040812080548392906200057d90849062000739565b90915550506040518181526001600160a01b038316906000907fddf252ad1be2c89b69c2b068fc378daa952ba7f163c4a11628f55a4df523b3ef9060200160405180910390a35050565b82805482825590600052602060002090810192821562000610579160200282015b828111156200061057825182906001600160401b0316905591602001919060010190620005e8565b506200061e929150620006e3565b5090565b82805482825590600052602060002090810192821562000610579160200282015b8281111562000610578251829061ffff1690559160200191906001019062000643565b828054620006749062000760565b90600052602060002090601f01602090048101928262000698576000855562000610565b82601f10620006b357805160ff191683800117855562000610565b8280016001018555821562000610579182015b8281111562000610578251825591602001919060010190620006c6565b5b808211156200061e5760008155600101620006e4565b600080604083850312156200070e57600080fd5b825160208401519092506001600160a01b03811681146200072e57600080fd5b809150509250929050565b600082198211156200075b57634e487b7160e01b600052601160045260246000fd5b500190565b600181811c908216806200077557607f821691505b602082108114156200079757634e487b7160e01b600052602260045260246000fd5b50919050565b61228c80620007ad6000396000f3fe608060405234801561001057600080fd5b50600436106102955760003560e01c806370a0823111610167578063a6431bba116100ce578063d5035a4d11610087578063d5035a4d146105b7578063dd62ed3e146105ca578063ebca1bd914610603578063ee2a95351461062f578063f2fde38b14610637578063ff87fc7c1461064a57600080fd5b8063a6431bba14610540578063a9059cbb14610548578063b87c5a4a1461055b578063c3bdf6131461056e578063c6d69a3014610581578063cf011b261461059457600080fd5b80638da5cb5b116101205780638da5cb5b146104da57806393995d4b146104eb57806395d89b41146104fe5780639662676c146105065780639d6b5f211461051a578063a457c2d71461052d57600080fd5b806370a0823114610466578063715018a61461048f578063771a3a1d1461049757806377af5d92146104a057806379cc6790146104b35780638d3cc818146104c657600080fd5b806340c10f191161020b57806354575af4116101c457806354575af414610401578063570ca735146104145780635c29908d1461042557806365bbacd91461043857806366206ce91461044057806369356d471461045357600080fd5b806340c10f191461039b57806342966c68146103ae57806342c6b4f1146103c15780634456eda2146103d45780634e20a02c146103e75780634f6d38d0146103f857600080fd5b806329605e771161025d57806329605e7714610315578063313ce567146103285780633758e6ce14610337578063395093511461034a5780633e5f13d41461035d5780633f07d76a1461038857600080fd5b806306fdde031461029a578063092193ab146102b8578063095ea7b3146102cd57806318160ddd146102f057806323b872dd14610302575b600080fd5b6102a2610652565b6040516102af9190611f48565b60405180910390f35b6102cb6102c6366004611dbb565b6106e4565b005b6102e06102db366004611e52565b6107e1565b60405190151581526020016102af565b6002545b6040519081526020016102af565b6102e0610310366004611e11565b6107f7565b6102cb610323366004611dbb565b6108c4565b604051601281526020016102af565b6102e0610345366004611dbb565b6108f7565b6102e0610358366004611e52565b6109cf565b600854610370906001600160a01b031681565b6040516001600160a01b0390911681526020016102af565b6102cb610396366004611dbb565b610a06565b6102e06103a9366004611e52565b610b13565b6102cb6103bc366004611f0b565b610b88565b6102f46103cf366004611f0b565b610b91565b6006546001600160a01b031633146102e0565b6102f469054b40b1f852bda0000081565b6102f4600a5481565b6102cb61040f366004611ea0565b610bb2565b6006546001600160a01b0316610370565b6102f4610433366004611f0b565b610c64565b6102cb610c74565b6102e061044e366004611f24565b610cad565b6102cb610461366004611dbb565b610dbd565b6102f4610474366004611dbb565b6001600160a01b031660009081526020819052604090205490565b6102cb610e76565b6102f460095481565b600754610370906001600160a01b031681565b6102cb6104c1366004611e52565b610eac565b600b546102e090600160a01b900460ff1681565b6005546001600160a01b0316610370565b6102e06104f9366004611dbb565b610ee4565b6102a2610fb3565b6006546102e090600160a01b900460ff1681565b6102e0610528366004611f0b565b610fc2565b6102e061053b366004611e52565b610ff8565b600c546102f4565b6102e0610556366004611e52565b611091565b6102e0610569366004611f24565b61109e565b600b54610370906001600160a01b031681565b6102cb61058f366004611f0b565b611106565b6102e06105a2366004611dbb565b600e6020526000908152604090205460ff1681565b6102cb6105c5366004611dbb565b6111ec565b6102f46105d8366004611dd8565b6001600160a01b03918216600090815260016020908152604080832093909416825291909152205490565b6102e0610611366004611dbb565b6001600160a01b03166000908152600e602052604090205460ff1690565b600d546102f4565b6102cb610645366004611dbb565b6112ae565b6102cb611346565b606060038054610661906121b8565b80601f016020809104026020016040519081016040528092919081815260200182805461068d906121b8565b80156106da5780601f106106af576101008083540402835291602001916106da565b820191906000526020600020905b8154815290600101906020018083116106bd57829003601f168201915b5050505050905090565b6006546001600160a01b031633146107175760405162461bcd60e51b815260040161070e90612009565b60405180910390fd5b600654600160a01b900460ff16156107715760405162461bcd60e51b815260206004820152601860248201527f6f6e6c792063616e2064697374726962757465206f6e63650000000000000000604482015260640161070e565b6001600160a01b0381166107b75760405162461bcd60e51b815260206004820152600d60248201526c0857d9d95b995cda5cd41bdbdb609a1b604482015260640161070e565b6006805460ff60a01b1916600160a01b1790556107de8169054b40b1f852bda00000611385565b50565b60006107ee338484611464565b50600192915050565b600b5460009081908190600160a01b900460ff161561083857600061081a611588565b905061082581611677565b9250600a5481101561083657600191505b505b81158061085d57506001600160a01b0386166000908152600e602052604090205460ff165b156108725761086d8686866117a6565b610880565b61087e86868684611974565b505b6108b886336108b38760405180606001604052806028815260200161222f602891396108ac8c336105d8565b91906119ed565b611464565b50600195945050505050565b6005546001600160a01b031633146108ee5760405162461bcd60e51b815260040161070e90611fd4565b6107de81611a19565b6006546000906001600160a01b031633148061091d57506008546001600160a01b031633145b6109395760405162461bcd60e51b815260040161070e90612097565b6001600160a01b0382166000908152600e602052604090205460ff16156109a25760405162461bcd60e51b815260206004820152601960248201527f616464726573732063616e2774206265206578636c7564656400000000000000604482015260640161070e565b506001600160a01b0381166000908152600e60205260409020805460ff191660019081179091555b919050565b3360008181526001602090815260408083206001600160a01b038716845290915281205490916107ee9185906108b39086906120e3565b6006546001600160a01b0316331480610a2957506008546001600160a01b031633145b610a455760405162461bcd60e51b815260040161070e90612097565b6001600160a01b038116610aaa5760405162461bcd60e51b815260206004820152602660248201527f746178206f666669636520616464726573732063616e6e6f742062652030206160448201526564647265737360d01b606482015260840161070e565b600854604080516001600160a01b03928316815291831660208301527f75237613d1cfb394eb7979839ecbeacaca4592ef0cf96791979625803948a601910160405180910390a1600880546001600160a01b0319166001600160a01b0392909216919091179055565b6006546000906001600160a01b03163314610b405760405162461bcd60e51b815260040161070e90612009565b6001600160a01b038316600090815260208190526040902054610b638484611385565b6001600160a01b03841660009081526020819052604081205491909111949350505050565b6107de81611add565b600c8181548110610ba157600080fd5b600091825260209091200154905081565b6006546001600160a01b03163314610bdc5760405162461bcd60e51b815260040161070e90612009565b60405163a9059cbb60e01b81526001600160a01b0382811660048301526024820184905284169063a9059cbb90604401602060405180830381600087803b158015610c2657600080fd5b505af1158015610c3a573d6000803e3d6000fd5b505050506040513d601f19601f82011682018060405250810190610c5e9190611e7e565b50505050565b600d8181548110610ba157600080fd5b6008546001600160a01b03163314610c9e5760405162461bcd60e51b815260040161070e90611f9d565b600b805460ff60a01b19169055565b6008546000906001600160a01b03163314610cda5760405162461bcd60e51b815260040161070e90611f9d565b600c548360ff1610610cfe5760405162461bcd60e51b815260040161070e9061204d565b60ff831615610d3d57600c610d14600185612178565b60ff1681548110610d2757610d27612203565b90600052602060002001548211610d3d57600080fd5b610d516001610d4b600c5490565b90611ae7565b8360ff161015610d9157600c610d688460016120fb565b60ff1681548110610d7b57610d7b612203565b90600052602060002001548210610d9157600080fd5b81600c8460ff1681548110610da857610da8612203565b60009182526020909120015550600192915050565b6008546001600160a01b03163314610de75760405162461bcd60e51b815260040161070e90611f9d565b6001600160a01b038116610e545760405162461bcd60e51b815260206004820152602e60248201527f74617820636f6c6c6563746f722061646472657373206d757374206265206e6f60448201526d6e2d7a65726f206164647265737360901b606482015260840161070e565b600b80546001600160a01b0319166001600160a01b0392909216919091179055565b6005546001600160a01b03163314610ea05760405162461bcd60e51b815260040161070e90611fd4565b610eaa6000611afa565b565b6006546001600160a01b03163314610ed65760405162461bcd60e51b815260040161070e90612009565b610ee08282611b4c565b5050565b6006546000906001600160a01b0316331480610f0a57506008546001600160a01b031633145b610f265760405162461bcd60e51b815260040161070e90612097565b6001600160a01b0382166000908152600e602052604090205460ff16610f8e5760405162461bcd60e51b815260206004820152601960248201527f616464726573732063616e277420626520696e636c7564656400000000000000604482015260640161070e565b506001600160a01b03166000908152600e60205260409020805460ff19169055600190565b606060048054610661906121b8565b6008546000906001600160a01b03163314610fef5760405162461bcd60e51b815260040161070e90611f9d565b600a9190915590565b3360009081526001602090815260408083206001600160a01b03861684529091528120548281101561107a5760405162461bcd60e51b815260206004820152602560248201527f45524332303a2064656372656173656420616c6c6f77616e63652062656c6f77604482015264207a65726f60d81b606482015260840161070e565b6110873385858403611464565b5060019392505050565b60006107ee3384846117a6565b6008546000906001600160a01b031633146110cb5760405162461bcd60e51b815260040161070e90611f9d565b600d548360ff16106110ef5760405162461bcd60e51b815260040161070e9061204d565b81600d8460ff1681548110610da857610da8612203565b6008546001600160a01b031633146111305760405162461bcd60e51b815260040161070e90611f9d565b600b54600160a01b900460ff16156111965760405162461bcd60e51b8152602060048201526024808201527f6175746f2063616c63756c617465207461782063616e6e6f7420626520656e61604482015263189b195960e21b606482015260840161070e565b61271081106111e75760405162461bcd60e51b815260206004820152601b60248201527f74617820657175616c206f722062696767657220746f20313030250000000000604482015260640161070e565b600955565b6006546001600160a01b031633148061120f57506008546001600160a01b031633145b61122b5760405162461bcd60e51b815260040161070e90612097565b6001600160a01b03811661128c5760405162461bcd60e51b815260206004820152602260248201527f6f7261636c6520616464726573732063616e6e6f742062652030206164647265604482015261737360f01b606482015260840161070e565b600780546001600160a01b0319166001600160a01b0392909216919091179055565b6005546001600160a01b031633146112d85760405162461bcd60e51b815260040161070e90611fd4565b6001600160a01b03811661133d5760405162461bcd60e51b815260206004820152602660248201527f4f776e61626c653a206e6577206f776e657220697320746865207a65726f206160448201526564647265737360d01b606482015260840161070e565b6107de81611afa565b6008546001600160a01b031633146113705760405162461bcd60e51b815260040161070e90611f9d565b600b805460ff60a01b1916600160a01b179055565b6001600160a01b0382166113db5760405162461bcd60e51b815260206004820152601f60248201527f45524332303a206d696e7420746f20746865207a65726f206164647265737300604482015260640161070e565b80600260008282546113ed91906120e3565b90915550506001600160a01b0382166000908152602081905260408120805483929061141a9084906120e3565b90915550506040518181526001600160a01b038316906000907fddf252ad1be2c89b69c2b068fc378daa952ba7f163c4a11628f55a4df523b3ef9060200160405180910390a35050565b6001600160a01b0383166114c65760405162461bcd60e51b8152602060048201526024808201527f45524332303a20617070726f76652066726f6d20746865207a65726f206164646044820152637265737360e01b606482015260840161070e565b6001600160a01b0382166115275760405162461bcd60e51b815260206004820152602260248201527f45524332303a20617070726f766520746f20746865207a65726f206164647265604482015261737360f01b606482015260840161070e565b6001600160a01b0383811660008181526001602090815260408083209487168084529482529182902085905590518481527f8c5be1e5ebec7d5bd14f71427d1e84f3dd0314c0f7b2291e5b200ac8c7c3b925910160405180910390a3505050565b600754604051633ddac95360e01b8152306004820152670de0b6b3a764000060248201526000916001600160a01b031690633ddac9539060440160206040518083038186803b1580156115da57600080fd5b505afa92505050801561160a575060408051601f3d908101601f1916820190925261160791810190611ee2565b60015b6116695760405162461bcd60e51b815260206004820152602a60248201527f4d72793a206661696c656420746f206665746368204d52592070726963652066604482015269726f6d204f7261636c6560b01b606482015260840161070e565b6001600160901b0316919050565b600b54600090600160a01b900460ff16156109ca5760006116a5600161169c600c5490565b60ff1690611bd2565b90505b600c8160ff16815481106116be576116be612203565b9060005260206000200154831061179057612710600d8260ff16815481106116e8576116e8612203565b9060005260206000200154106117405760405162461bcd60e51b815260206004820152601b60248201527f74617820657175616c206f722062696767657220746f20313030250000000000604482015260640161070e565b600d8160ff168154811061175657611756612203565b9060005260206000200154600981905550600d8160ff168154811061177d5761177d612203565b9060005260206000200154915050919050565b6117998161219b565b90506116a8565b50919050565b6001600160a01b03831661180a5760405162461bcd60e51b815260206004820152602560248201527f45524332303a207472616e736665722066726f6d20746865207a65726f206164604482015264647265737360d81b606482015260840161070e565b6001600160a01b03821661186c5760405162461bcd60e51b815260206004820152602360248201527f45524332303a207472616e7366657220746f20746865207a65726f206164647260448201526265737360e81b606482015260840161070e565b6001600160a01b038316600090815260208190526040902054818110156118e45760405162461bcd60e51b815260206004820152602660248201527f45524332303a207472616e7366657220616d6f756e7420657863656564732062604482015265616c616e636560d01b606482015260840161070e565b6001600160a01b0380851660009081526020819052604080822085850390559185168152908120805484929061191b9084906120e3565b92505081905550826001600160a01b0316846001600160a01b03167fddf252ad1be2c89b69c2b068fc378daa952ba7f163c4a11628f55a4df523b3ef8460405161196791815260200190565b60405180910390a3610c5e565b60008061199861271061199260095487611c1490919063ffffffff16565b90611c20565b905060006119a68583611ae7565b905083156119bd576119b88783611b4c565b6119d5565b600b546119d59088906001600160a01b0316846117a6565b6119e08787836117a6565b5060019695505050505050565b60008184841115611a115760405162461bcd60e51b815260040161070e9190611f48565b505050900390565b6001600160a01b038116611a855760405162461bcd60e51b815260206004820152602d60248201527f6f70657261746f723a207a65726f206164647265737320676976656e20666f7260448201526c103732bb9037b832b930ba37b960991b606482015260840161070e565b6040516001600160a01b038216906000907f74da04524d50c64947f5dd5381ef1a4dca5cba8ed1d816243f9e48aa0b5617ed908290a3600680546001600160a01b0319166001600160a01b0392909216919091179055565b6107de3382611c2c565b6000611af38284612161565b9392505050565b600580546001600160a01b038381166001600160a01b0319831681179093556040519116919082907f8be0079c531659141344cd1fd0a4f28419497f9722a3daafe3b4186f6b6457e090600090a35050565b6000611b5883336105d8565b905081811015611bb65760405162461bcd60e51b8152602060048201526024808201527f45524332303a206275726e20616d6f756e74206578636565647320616c6c6f77604482015263616e636560e01b606482015260840161070e565b611bc38333848403611464565b611bcd8383611c2c565b505050565b6000611af383836040518060400160405280601e81526020017f536166654d6174683a207375627472616374696f6e206f766572666c6f770000815250611d7a565b6000611af38284612142565b6000611af38284612120565b6001600160a01b038216611c8c5760405162461bcd60e51b815260206004820152602160248201527f45524332303a206275726e2066726f6d20746865207a65726f206164647265736044820152607360f81b606482015260840161070e565b6001600160a01b03821660009081526020819052604090205481811015611d005760405162461bcd60e51b815260206004820152602260248201527f45524332303a206275726e20616d6f756e7420657863656564732062616c616e604482015261636560f01b606482015260840161070e565b6001600160a01b0383166000908152602081905260408120838303905560028054849290611d2f908490612161565b90915550506040518281526000906001600160a01b038516907fddf252ad1be2c89b69c2b068fc378daa952ba7f163c4a11628f55a4df523b3ef9060200160405180910390a3505050565b60008360ff168360ff1611158290611da55760405162461bcd60e51b815260040161070e9190611f48565b506000611db28486612178565b95945050505050565b600060208284031215611dcd57600080fd5b8135611af381612219565b60008060408385031215611deb57600080fd5b8235611df681612219565b91506020830135611e0681612219565b809150509250929050565b600080600060608486031215611e2657600080fd5b8335611e3181612219565b92506020840135611e4181612219565b929592945050506040919091013590565b60008060408385031215611e6557600080fd5b8235611e7081612219565b946020939093013593505050565b600060208284031215611e9057600080fd5b81518015158114611af357600080fd5b600080600060608486031215611eb557600080fd5b8335611ec081612219565b9250602084013591506040840135611ed781612219565b809150509250925092565b600060208284031215611ef457600080fd5b81516001600160901b0381168114611af357600080fd5b600060208284031215611f1d57600080fd5b5035919050565b60008060408385031215611f3757600080fd5b823560ff81168114611e7057600080fd5b600060208083528351808285015260005b81811015611f7557858101830151858201604001528201611f59565b81811115611f87576000604083870101525b50601f01601f1916929092016040019392505050565b6020808252601c908201527f43616c6c6572206973206e6f742074686520746178206f666669636500000000604082015260600190565b6020808252818101527f4f776e61626c653a2063616c6c6572206973206e6f7420746865206f776e6572604082015260600190565b60208082526024908201527f6f70657261746f723a2063616c6c6572206973206e6f7420746865206f70657260408201526330ba37b960e11b606082015260800190565b6020808252602a908201527f496e6465782068617320746f206c6f776572207468616e20636f756e74206f666040820152692074617820746965727360b01b606082015260800190565b6020808252602c908201527f43616c6c6572206973206e6f7420746865206f70657261746f72206f7220746860408201526b6520746178206f666669636560a01b606082015260800190565b600082198211156120f6576120f66121ed565b500190565b600060ff821660ff84168060ff03821115612118576121186121ed565b019392505050565b60008261213d57634e487b7160e01b600052601260045260246000fd5b500490565b600081600019048311821515161561215c5761215c6121ed565b500290565b600082821015612173576121736121ed565b500390565b600060ff821660ff841680821015612192576121926121ed565b90039392505050565b600060ff8216806121ae576121ae6121ed565b6000190192915050565b600181811c908216806121cc57607f821691505b602082108114156117a057634e487b7160e01b600052602260045260246000fd5b634e487b7160e01b600052601160045260246000fd5b634e487b7160e01b600052603260045260246000fd5b6001600160a01b03811681146107de57600080fdfe45524332303a207472616e7366657220616d6f756e74206578636565647320616c6c6f77616e6365a2646970667358221220f22304d2d8b7b7c71146c60f751ae4ebda68baab2d18f4855a840a8793dd506c64736f6c63430008070033",
  "linkReferences": {},
  "deployedLinkReferences": {}
}