{
  "_format": "hh-sol-artifact-1",
  "contractName": "XShare",
  "sourceName": "contracts/XShare.sol",
  "abi": [
    {
      "inputs": [
        {
          "internalType": "uint256",
          "name": "_startTime",
          "type": "uint256"
        },
        {
          "internalType": "address",
          "name": "_devFund",
          "type": "address"
        }
      ],
      "stateMutability": "nonpayable",
      "type": "constructor"
    },
    {
      "anonymous": false,
      "inputs": [
        {
          "indexed": true,
          "internalType": "address",
          "name": "owner",
          "type": "address"
        },
        {
          "indexed": true,
          "internalType": "address",
          "name": "spender",
          "type": "address"
        },
        {
          "indexed": false,
          "internalType": "uint256",
          "name": "value",
          "type": "uint256"
        }
      ],
      "name": "Approval",
      "type": "event"
    },
    {
      "anonymous": false,
      "inputs": [
        {
          "indexed": true,
          "internalType": "address",
          "name": "previousOperator",
          "type": "address"
        },
        {
          "indexed": true,
          "internalType": "address",
          "name": "newOperator",
          "type": "address"
        }
      ],
      "name": "OperatorTransferred",
      "type": "event"
    },
    {
      "anonymous": false,
      "inputs": [
        {
          "indexed": true,
          "internalType": "address",
          "name": "previousOwner",
          "type": "address"
        },
        {
          "indexed": true,
          "internalType": "address",
          "name": "newOwner",
          "type": "address"
        }
      ],
      "name": "OwnershipTransferred",
      "type": "event"
    },
    {
      "anonymous": false,
      "inputs": [
        {
          "indexed": true,
          "internalType": "address",
          "name": "from",
          "type": "address"
        },
        {
          "indexed": true,
          "internalType": "address",
          "name": "to",
          "type": "address"
        },
        {
          "indexed": false,
          "internalType": "uint256",
          "name": "value",
          "type": "uint256"
        }
      ],
      "name": "Transfer",
      "type": "event"
    },
    {
      "inputs": [],
      "name": "DEV_FUND_POOL_ALLOCATION",
      "outputs": [
        {
          "internalType": "uint256",
          "name": "",
          "type": "uint256"
        }
      ],
      "stateMutability": "view",
      "type": "function"
    },
    {
      "inputs": [],
      "name": "FARMING_POOL_REWARD_ALLOCATION",
      "outputs": [
        {
          "internalType": "uint256",
          "name": "",
          "type": "uint256"
        }
      ],
      "stateMutability": "view",
      "type": "function"
    },
    {
      "inputs": [],
      "name": "VESTING_DURATION",
      "outputs": [
        {
          "internalType": "uint256",
          "name": "",
          "type": "uint256"
        }
      ],
      "stateMutability": "view",
      "type": "function"
    },
    {
      "inputs": [
        {
          "internalType": "address",
          "name": "owner",
          "type": "address"
        },
        {
          "internalType": "address",
          "name": "spender",
          "type": "address"
        }
      ],
      "name": "allowance",
      "outputs": [
        {
          "internalType": "uint256",
          "name": "",
          "type": "uint256"
        }
      ],
      "stateMutability": "view",
      "type": "function"
    },
    {
      "inputs": [
        {
          "internalType": "address",
          "name": "spender",
          "type": "address"
        },
        {
          "internalType": "uint256",
          "name": "amount",
          "type": "uint256"
        }
      ],
      "name": "approve",
      "outputs": [
        {
          "internalType": "bool",
          "name": "",
          "type": "bool"
        }
      ],
      "stateMutability": "nonpayable",
      "type": "function"
    },
    {
      "inputs": [
        {
          "internalType": "address",
          "name": "account",
          "type": "address"
        }
      ],
      "name": "balanceOf",
      "outputs": [
        {
          "internalType": "uint256",
          "name": "",
          "type": "uint256"
        }
      ],
      "stateMutability": "view",
      "type": "function"
    },
    {
      "inputs": [
        {
          "internalType": "uint256",
          "name": "amount",
          "type": "uint256"
        }
      ],
      "name": "burn",
      "outputs": [],
      "stateMutability": "nonpayable",
      "type": "function"
    },
    {
      "inputs": [
        {
          "internalType": "address",
          "name": "account",
          "type": "address"
        },
        {
          "internalType": "uint256",
          "name": "amount",
          "type": "uint256"
        }
      ],
      "name": "burnFrom",
      "outputs": [],
      "stateMutability": "nonpayable",
      "type": "function"
    },
    {
      "inputs": [],
      "name": "claimRewards",
      "outputs": [],
      "stateMutability": "nonpayable",
      "type": "function"
    },
    {
      "inputs": [],
      "name": "decimals",
      "outputs": [
        {
          "internalType": "uint8",
          "name": "",
          "type": "uint8"
        }
      ],
      "stateMutability": "view",
      "type": "function"
    },
    {
      "inputs": [
        {
          "internalType": "address",
          "name": "spender",
          "type": "address"
        },
        {
          "internalType": "uint256",
          "name": "subtractedValue",
          "type": "uint256"
        }
      ],
      "name": "decreaseAllowance",
      "outputs": [
        {
          "internalType": "bool",
          "name": "",
          "type": "bool"
        }
      ],
      "stateMutability": "nonpayable",
      "type": "function"
    },
    {
      "inputs": [],
      "name": "devFund",
      "outputs": [
        {
          "internalType": "address",
          "name": "",
          "type": "address"
        }
      ],
      "stateMutability": "view",
      "type": "function"
    },
    {
      "inputs": [],
      "name": "devFundLastClaimed",
      "outputs": [
        {
          "internalType": "uint256",
          "name": "",
          "type": "uint256"
        }
      ],
      "stateMutability": "view",
      "type": "function"
    },
    {
      "inputs": [],
      "name": "devFundRewardRate",
      "outputs": [
        {
          "internalType": "uint256",
          "name": "",
          "type": "uint256"
        }
      ],
      "stateMutability": "view",
      "type": "function"
    },
    {
      "inputs": [
        {
          "internalType": "address",
          "name": "_farmingIncentiveFund",
          "type": "address"
        }
      ],
      "name": "distributeReward",
      "outputs": [],
      "stateMutability": "nonpayable",
      "type": "function"
    },
    {
      "inputs": [],
      "name": "endTime",
      "outputs": [
        {
          "internalType": "uint256",
          "name": "",
          "type": "uint256"
        }
      ],
      "stateMutability": "view",
      "type": "function"
    },
    {
      "inputs": [
        {
          "internalType": "contract IERC20",
          "name": "_token",
          "type": "address"
        },
        {
          "internalType": "uint256",
          "name": "_amount",
          "type": "uint256"
        },
        {
          "internalType": "address",
          "name": "_to",
          "type": "address"
        }
      ],
      "name": "governanceRecoverUnsupported",
      "outputs": [],
      "stateMutability": "nonpayable",
      "type": "function"
    },
    {
      "inputs": [
        {
          "internalType": "address",
          "name": "spender",
          "type": "address"
        },
        {
          "internalType": "uint256",
          "name": "addedValue",
          "type": "uint256"
        }
      ],
      "name": "increaseAllowance",
      "outputs": [
        {
          "internalType": "bool",
          "name": "",
          "type": "bool"
        }
      ],
      "stateMutability": "nonpayable",
      "type": "function"
    },
    {
      "inputs": [],
      "name": "isOperator",
      "outputs": [
        {
          "internalType": "bool",
          "name": "",
          "type": "bool"
        }
      ],
      "stateMutability": "view",
      "type": "function"
    },
    {
      "inputs": [],
      "name": "name",
      "outputs": [
        {
          "internalType": "string",
          "name": "",
          "type": "string"
        }
      ],
      "stateMutability": "view",
      "type": "function"
    },
    {
      "inputs": [],
      "name": "operator",
      "outputs": [
        {
          "internalType": "address",
          "name": "",
          "type": "address"
        }
      ],
      "stateMutability": "view",
      "type": "function"
    },
    {
      "inputs": [],
      "name": "owner",
      "outputs": [
        {
          "internalType": "address",
          "name": "",
          "type": "address"
        }
      ],
      "stateMutability": "view",
      "type": "function"
    },
    {
      "inputs": [],
      "name": "renounceOwnership",
      "outputs": [],
      "stateMutability": "nonpayable",
      "type": "function"
    },
    {
      "inputs": [],
      "name": "rewardPoolDistributed",
      "outputs": [
        {
          "internalType": "bool",
          "name": "",
          "type": "bool"
        }
      ],
      "stateMutability": "view",
      "type": "function"
    },
    {
      "inputs": [
        {
          "internalType": "address",
          "name": "_devFund",
          "type": "address"
        }
      ],
      "name": "setDevFund",
      "outputs": [],
      "stateMutability": "nonpayable",
      "type": "function"
    },
    {
      "inputs": [],
      "name": "startTime",
      "outputs": [
        {
          "internalType": "uint256",
          "name": "",
          "type": "uint256"
        }
      ],
      "stateMutability": "view",
      "type": "function"
    },
    {
      "inputs": [],
      "name": "symbol",
      "outputs": [
        {
          "internalType": "string",
          "name": "",
          "type": "string"
        }
      ],
      "stateMutability": "view",
      "type": "function"
    },
    {
      "inputs": [],
      "name": "totalSupply",
      "outputs": [
        {
          "internalType": "uint256",
          "name": "",
          "type": "uint256"
        }
      ],
      "stateMutability": "view",
      "type": "function"
    },
    {
      "inputs": [
        {
          "internalType": "address",
          "name": "recipient",
          "type": "address"
        },
        {
          "internalType": "uint256",
          "name": "amount",
          "type": "uint256"
        }
      ],
      "name": "transfer",
      "outputs": [
        {
          "internalType": "bool",
          "name": "",
          "type": "bool"
        }
      ],
      "stateMutability": "nonpayable",
      "type": "function"
    },
    {
      "inputs": [
        {
          "internalType": "address",
          "name": "sender",
          "type": "address"
        },
        {
          "internalType": "address",
          "name": "recipient",
          "type": "address"
        },
        {
          "internalType": "uint256",
          "name": "amount",
          "type": "uint256"
        }
      ],
      "name": "transferFrom",
      "outputs": [
        {
          "internalType": "bool",
          "name": "",
          "type": "bool"
        }
      ],
      "stateMutability": "nonpayable",
      "type": "function"
    },
    {
      "inputs": [
        {
          "internalType": "address",
          "name": "newOperator_",
          "type": "address"
        }
      ],
      "name": "transferOperator",
      "outputs": [],
      "stateMutability": "nonpayable",
      "type": "function"
    },
    {
      "inputs": [
        {
          "internalType": "address",
          "name": "newOwner",
          "type": "address"
        }
      ],
      "name": "transferOwnership",
      "outputs": [],
      "stateMutability": "nonpayable",
      "type": "function"
    },
    {
      "inputs": [],
      "name": "unclaimedDevFund",
      "outputs": [
        {
          "internalType": "uint256",
          "name": "_pending",
          "type": "uint256"
        }
      ],
      "stateMutability": "view",
      "type": "function"
    }
  ],
  "bytecode": "0x6080604052600c805460ff191690553480156200001b57600080fd5b506040516200195a3803806200195a8339810160408190526200003e91620003d6565b604080518082018252600d81526c2c29a420a922a9902a37b5b2b760991b60208083019182528351808501909452600684526558534841524560d01b908401528151919291620000919160039162000330565b508051620000a790600490602084019062000330565b505050620000c4620000be620001e060201b60201c565b620001e4565b600680546001600160a01b031916339081179091556040516000907f74da04524d50c64947f5dd5381ef1a4dca5cba8ed1d816243f9e48aa0b5617ed908290a36200011833670de0b6b3a764000062000236565b60078290556200012c6276a7008362000415565b600855600754600b556200015a69010eff0fae29b1bc00006276a7006200031b602090811b62000b2a17901c565b6009556001600160a01b038116620001b95760405162461bcd60e51b815260206004820152601360248201527f416464726573732063616e6e6f7420626520300000000000000000000000000060448201526064015b60405180910390fd5b600a80546001600160a01b0319166001600160a01b0392909216919091179055506200049c565b3390565b600580546001600160a01b038381166001600160a01b0319831681179093556040519116919082907f8be0079c531659141344cd1fd0a4f28419497f9722a3daafe3b4186f6b6457e090600090a35050565b6001600160a01b0382166200028e5760405162461bcd60e51b815260206004820152601f60248201527f45524332303a206d696e7420746f20746865207a65726f2061646472657373006044820152606401620001b0565b8060026000828254620002a2919062000415565b90915550506001600160a01b03821660009081526020819052604081208054839290620002d190849062000415565b90915550506040518181526001600160a01b038316906000907fddf252ad1be2c89b69c2b068fc378daa952ba7f163c4a11628f55a4df523b3ef9060200160405180910390a35050565b60006200032982846200043c565b9392505050565b8280546200033e906200045f565b90600052602060002090601f016020900481019282620003625760008555620003ad565b82601f106200037d57805160ff1916838001178555620003ad565b82800160010185558215620003ad579182015b82811115620003ad57825182559160200191906001019062000390565b50620003bb929150620003bf565b5090565b5b80821115620003bb5760008155600101620003c0565b60008060408385031215620003ea57600080fd5b825160208401519092506001600160a01b03811681146200040a57600080fd5b809150509250929050565b600082198211156200043757634e487b7160e01b600052601160045260246000fd5b500190565b6000826200045a57634e487b7160e01b600052601260045260246000fd5b500490565b600181811c908216806200047457607f821691505b602082108114156200049657634e487b7160e01b600052602260045260246000fd5b50919050565b6114ae80620004ac6000396000f3fe608060405234801561001057600080fd5b50600436106101fb5760003560e01c80634cfc4d301161011a5780638da5cb5b116100ad578063a457c2d71161007c578063a457c2d7146103ef578063a9059cbb14610402578063ae4db91914610415578063dd62ed3e14610428578063f2fde38b1461046157600080fd5b80638da5cb5b146103b857806395d89b41146103c95780639662676c146103d1578063a06160fd146103de57600080fd5b806370a08231116100e957806370a082311461036b578063715018a61461039457806378e979251461039c57806379cc6790146103a557600080fd5b80634cfc4d301461032c5780634f337dd51461033657806354575af414610347578063570ca7351461035a57600080fd5b80632e3367ce11610192578063395093511161016157806339509351146102c857806342966c68146102db5780634390d2a8146102ee5780634456eda21461031957600080fd5b80632e3367ce1461029f578063313ce567146102a85780633197cbb6146102b7578063372500ab146102c057600080fd5b806318160ddd116101ce57806318160ddd1461026957806323b872dd1461027157806329605e77146102845780632c07a6241461029757600080fd5b8063040173151461020057806306fdde031461021c578063092193ab14610231578063095ea7b314610246575b600080fd5b610209600b5481565b6040519081526020015b60405180910390f35b610224610474565b60405161021391906112d4565b61024461023f366004611194565b610506565b005b61025961025436600461122b565b6105ff565b6040519015158152602001610213565b600254610209565b61025961027f3660046111ea565b610615565b610244610292366004611194565b6106bf565b6102096106f2565b61020960095481565b60405160128152602001610213565b61020960085481565b61024461073e565b6102596102d636600461122b565b610786565b6102446102e93660046112bb565b6107c2565b600a54610301906001600160a01b031681565b6040516001600160a01b039091168152602001610213565b6006546001600160a01b03163314610259565b6102096276a70081565b61020969010eff0fae29b1bc000081565b610244610355366004611279565b6107cb565b6006546001600160a01b0316610301565b610209610379366004611194565b6001600160a01b031660009081526020819052604090205490565b61024461087d565b61020960075481565b6102446103b336600461122b565b6108b3565b6005546001600160a01b0316610301565b610224610939565b600c546102599060ff1681565b61020969141df5d77c6d9d60000081565b6102596103fd36600461122b565b610948565b61025961041036600461122b565b6109e1565b610244610423366004611194565b6109ee565b6102096104363660046111b1565b6001600160a01b03918216600090815260016020908152604080832093909416825291909152205490565b61024461046f366004611194565b610a92565b60606003805461048390611412565b80601f01602080910402602001604051908101604052809291908181526020018280546104af90611412565b80156104fc5780601f106104d1576101008083540402835291602001916104fc565b820191906000526020600020905b8154815290600101906020018083116104df57829003601f168201915b5050505050905090565b6006546001600160a01b031633146105395760405162461bcd60e51b81526004016105309061135e565b60405180910390fd5b600c5460ff161561058c5760405162461bcd60e51b815260206004820152601860248201527f6f6e6c792063616e2064697374726962757465206f6e636500000000000000006044820152606401610530565b6001600160a01b0381166105db5760405162461bcd60e51b81526020600482015260166024820152750857d9985c9b5a5b99d25b98d95b9d1a5d99519d5b9960521b6044820152606401610530565b600c805460ff191660011790556105fc8169141df5d77c6d9d600000610b3d565b50565b600061060c338484610c1c565b50600192915050565b6000610622848484610d40565b6001600160a01b0384166000908152600160209081526040808320338452909152902054828110156106a75760405162461bcd60e51b815260206004820152602860248201527f45524332303a207472616e7366657220616d6f756e74206578636565647320616044820152676c6c6f77616e636560c01b6064820152608401610530565b6106b48533858403610c1c565b506001949350505050565b6005546001600160a01b031633146106e95760405162461bcd60e51b815260040161053090611329565b6105fc81610f0e565b600854600090429081111561070657506008545b80600b541061071757600091505090565b610738600954610732600b5484610fd290919063ffffffff16565b90610fde565b91505090565b60006107486106f2565b90506000811180156107645750600a546001600160a01b031615155b156105fc57600a5461077f906001600160a01b031682610b3d565b42600b5550565b3360008181526001602090815260408083206001600160a01b0387168452909152812054909161060c9185906107bd9086906113a2565b610c1c565b6105fc81610fea565b6006546001600160a01b031633146107f55760405162461bcd60e51b81526004016105309061135e565b60405163a9059cbb60e01b81526001600160a01b0382811660048301526024820184905284169063a9059cbb90604401602060405180830381600087803b15801561083f57600080fd5b505af1158015610853573d6000803e3d6000fd5b505050506040513d601f19601f820116820180604052508101906108779190611257565b50505050565b6005546001600160a01b031633146108a75760405162461bcd60e51b815260040161053090611329565b6108b16000610ff4565b565b60006108bf8333610436565b90508181101561091d5760405162461bcd60e51b8152602060048201526024808201527f45524332303a206275726e20616d6f756e74206578636565647320616c6c6f77604482015263616e636560e01b6064820152608401610530565b61092a8333848403610c1c565b6109348383611046565b505050565b60606004805461048390611412565b3360009081526001602090815260408083206001600160a01b0386168452909152812054828110156109ca5760405162461bcd60e51b815260206004820152602560248201527f45524332303a2064656372656173656420616c6c6f77616e63652062656c6f77604482015264207a65726f60d81b6064820152608401610530565b6109d73385858403610c1c565b5060019392505050565b600061060c338484610d40565b600a546001600160a01b03163314610a315760405162461bcd60e51b81526004016105309060208082526004908201526310b232bb60e11b604082015260600190565b6001600160a01b038116610a705760405162461bcd60e51b8152600401610530906020808252600490820152637a65726f60e01b604082015260600190565b600a80546001600160a01b0319166001600160a01b0392909216919091179055565b6005546001600160a01b03163314610abc5760405162461bcd60e51b815260040161053090611329565b6001600160a01b038116610b215760405162461bcd60e51b815260206004820152602660248201527f4f776e61626c653a206e6577206f776e657220697320746865207a65726f206160448201526564647265737360d01b6064820152608401610530565b6105fc81610ff4565b6000610b3682846113ba565b9392505050565b6001600160a01b038216610b935760405162461bcd60e51b815260206004820152601f60248201527f45524332303a206d696e7420746f20746865207a65726f2061646472657373006044820152606401610530565b8060026000828254610ba591906113a2565b90915550506001600160a01b03821660009081526020819052604081208054839290610bd29084906113a2565b90915550506040518181526001600160a01b038316906000907fddf252ad1be2c89b69c2b068fc378daa952ba7f163c4a11628f55a4df523b3ef9060200160405180910390a35050565b6001600160a01b038316610c7e5760405162461bcd60e51b8152602060048201526024808201527f45524332303a20617070726f76652066726f6d20746865207a65726f206164646044820152637265737360e01b6064820152608401610530565b6001600160a01b038216610cdf5760405162461bcd60e51b815260206004820152602260248201527f45524332303a20617070726f766520746f20746865207a65726f206164647265604482015261737360f01b6064820152608401610530565b6001600160a01b0383811660008181526001602090815260408083209487168084529482529182902085905590518481527f8c5be1e5ebec7d5bd14f71427d1e84f3dd0314c0f7b2291e5b200ac8c7c3b925910160405180910390a3505050565b6001600160a01b038316610da45760405162461bcd60e51b815260206004820152602560248201527f45524332303a207472616e736665722066726f6d20746865207a65726f206164604482015264647265737360d81b6064820152608401610530565b6001600160a01b038216610e065760405162461bcd60e51b815260206004820152602360248201527f45524332303a207472616e7366657220746f20746865207a65726f206164647260448201526265737360e81b6064820152608401610530565b6001600160a01b03831660009081526020819052604090205481811015610e7e5760405162461bcd60e51b815260206004820152602660248201527f45524332303a207472616e7366657220616d6f756e7420657863656564732062604482015265616c616e636560d01b6064820152608401610530565b6001600160a01b03808516600090815260208190526040808220858503905591851681529081208054849290610eb59084906113a2565b92505081905550826001600160a01b0316846001600160a01b03167fddf252ad1be2c89b69c2b068fc378daa952ba7f163c4a11628f55a4df523b3ef84604051610f0191815260200190565b60405180910390a3610877565b6001600160a01b038116610f7a5760405162461bcd60e51b815260206004820152602d60248201527f6f70657261746f723a207a65726f206164647265737320676976656e20666f7260448201526c103732bb9037b832b930ba37b960991b6064820152608401610530565b6040516001600160a01b038216906000907f74da04524d50c64947f5dd5381ef1a4dca5cba8ed1d816243f9e48aa0b5617ed908290a3600680546001600160a01b0319166001600160a01b0392909216919091179055565b6000610b3682846113fb565b6000610b3682846113dc565b6105fc3382611046565b600580546001600160a01b038381166001600160a01b0319831681179093556040519116919082907f8be0079c531659141344cd1fd0a4f28419497f9722a3daafe3b4186f6b6457e090600090a35050565b6001600160a01b0382166110a65760405162461bcd60e51b815260206004820152602160248201527f45524332303a206275726e2066726f6d20746865207a65726f206164647265736044820152607360f81b6064820152608401610530565b6001600160a01b0382166000908152602081905260409020548181101561111a5760405162461bcd60e51b815260206004820152602260248201527f45524332303a206275726e20616d6f756e7420657863656564732062616c616e604482015261636560f01b6064820152608401610530565b6001600160a01b03831660009081526020819052604081208383039055600280548492906111499084906113fb565b90915550506040518281526000906001600160a01b038516907fddf252ad1be2c89b69c2b068fc378daa952ba7f163c4a11628f55a4df523b3ef9060200160405180910390a3505050565b6000602082840312156111a657600080fd5b8135610b3681611463565b600080604083850312156111c457600080fd5b82356111cf81611463565b915060208301356111df81611463565b809150509250929050565b6000806000606084860312156111ff57600080fd5b833561120a81611463565b9250602084013561121a81611463565b929592945050506040919091013590565b6000806040838503121561123e57600080fd5b823561124981611463565b946020939093013593505050565b60006020828403121561126957600080fd5b81518015158114610b3657600080fd5b60008060006060848603121561128e57600080fd5b833561129981611463565b92506020840135915060408401356112b081611463565b809150509250925092565b6000602082840312156112cd57600080fd5b5035919050565b600060208083528351808285015260005b81811015611301578581018301518582016040015282016112e5565b81811115611313576000604083870101525b50601f01601f1916929092016040019392505050565b6020808252818101527f4f776e61626c653a2063616c6c6572206973206e6f7420746865206f776e6572604082015260600190565b60208082526024908201527f6f70657261746f723a2063616c6c6572206973206e6f7420746865206f70657260408201526330ba37b960e11b606082015260800190565b600082198211156113b5576113b561144d565b500190565b6000826113d757634e487b7160e01b600052601260045260246000fd5b500490565b60008160001904831182151516156113f6576113f661144d565b500290565b60008282101561140d5761140d61144d565b500390565b600181811c9082168061142657607f821691505b6020821081141561144757634e487b7160e01b600052602260045260246000fd5b50919050565b634e487b7160e01b600052601160045260246000fd5b6001600160a01b03811681146105fc57600080fdfea2646970667358221220d4a3837beaee96d949a90e84d9e02a94a8c094d3b7d560f76e4c3fbbf704a85364736f6c63430008070033",
  "linkReferences": {},
  "deployedLinkReferences": {}
}