{
  "_format": "hh-sol-artifact-1",
  "contractName": "MryGenesisRewardPool",
  "sourceName": "contracts/distribution/MryGenesisRewardPool.sol",
  "abi": [
    {
      "inputs": [
        {
          "internalType": "address",
          "name": "_mry",
          "type": "address"
        },
        {
          "internalType": "uint256",
          "name": "_poolStartTime",
          "type": "uint256"
        }
      ],
      "stateMutability": "nonpayable",
      "type": "constructor"
    },
    {
      "anonymous": false,
      "inputs": [
        {
          "indexed": true,
          "internalType": "address",
          "name": "user",
          "type": "address"
        },
        {
          "indexed": true,
          "internalType": "uint256",
          "name": "pid",
          "type": "uint256"
        },
        {
          "indexed": false,
          "internalType": "uint256",
          "name": "amount",
          "type": "uint256"
        }
      ],
      "name": "Deposit",
      "type": "event"
    },
    {
      "anonymous": false,
      "inputs": [
        {
          "indexed": true,
          "internalType": "address",
          "name": "user",
          "type": "address"
        },
        {
          "indexed": true,
          "internalType": "uint256",
          "name": "pid",
          "type": "uint256"
        },
        {
          "indexed": false,
          "internalType": "uint256",
          "name": "amount",
          "type": "uint256"
        }
      ],
      "name": "EmergencyWithdraw",
      "type": "event"
    },
    {
      "anonymous": false,
      "inputs": [
        {
          "indexed": true,
          "internalType": "address",
          "name": "user",
          "type": "address"
        },
        {
          "indexed": false,
          "internalType": "uint256",
          "name": "amount",
          "type": "uint256"
        }
      ],
      "name": "RewardPaid",
      "type": "event"
    },
    {
      "anonymous": false,
      "inputs": [
        {
          "indexed": true,
          "internalType": "address",
          "name": "user",
          "type": "address"
        },
        {
          "indexed": true,
          "internalType": "uint256",
          "name": "pid",
          "type": "uint256"
        },
        {
          "indexed": false,
          "internalType": "uint256",
          "name": "amount",
          "type": "uint256"
        }
      ],
      "name": "Withdraw",
      "type": "event"
    },
    {
      "inputs": [],
      "name": "TOTAL_REWARDS",
      "outputs": [
        {
          "internalType": "uint256",
          "name": "",
          "type": "uint256"
        }
      ],
      "stateMutability": "view",
      "type": "function"
    },
    {
      "inputs": [
        {
          "internalType": "uint256",
          "name": "_allocPoint",
          "type": "uint256"
        },
        {
          "internalType": "contract IERC20",
          "name": "_token",
          "type": "address"
        },
        {
          "internalType": "bool",
          "name": "_withUpdate",
          "type": "bool"
        },
        {
          "internalType": "uint256",
          "name": "_lastRewardTime",
          "type": "uint256"
        },
        {
          "internalType": "uint256",
          "name": "_depositFeeBP",
          "type": "uint256"
        }
      ],
      "name": "add",
      "outputs": [],
      "stateMutability": "nonpayable",
      "type": "function"
    },
    {
      "inputs": [
        {
          "internalType": "uint256",
          "name": "_pid",
          "type": "uint256"
        },
        {
          "internalType": "uint256",
          "name": "_amount",
          "type": "uint256"
        }
      ],
      "name": "deposit",
      "outputs": [],
      "stateMutability": "nonpayable",
      "type": "function"
    },
    {
      "inputs": [
        {
          "internalType": "uint256",
          "name": "_pid",
          "type": "uint256"
        }
      ],
      "name": "emergencyWithdraw",
      "outputs": [],
      "stateMutability": "nonpayable",
      "type": "function"
    },
    {
      "inputs": [],
      "name": "feeAddress",
      "outputs": [
        {
          "internalType": "address",
          "name": "",
          "type": "address"
        }
      ],
      "stateMutability": "view",
      "type": "function"
    },
    {
      "inputs": [
        {
          "internalType": "uint256",
          "name": "_fromTime",
          "type": "uint256"
        },
        {
          "internalType": "uint256",
          "name": "_toTime",
          "type": "uint256"
        }
      ],
      "name": "getGeneratedReward",
      "outputs": [
        {
          "internalType": "uint256",
          "name": "",
          "type": "uint256"
        }
      ],
      "stateMutability": "view",
      "type": "function"
    },
    {
      "inputs": [
        {
          "internalType": "contract IERC20",
          "name": "_token",
          "type": "address"
        },
        {
          "internalType": "uint256",
          "name": "amount",
          "type": "uint256"
        },
        {
          "internalType": "address",
          "name": "to",
          "type": "address"
        }
      ],
      "name": "governanceRecoverUnsupported",
      "outputs": [],
      "stateMutability": "nonpayable",
      "type": "function"
    },
    {
      "inputs": [],
      "name": "massUpdatePools",
      "outputs": [],
      "stateMutability": "nonpayable",
      "type": "function"
    },
    {
      "inputs": [],
      "name": "mry",
      "outputs": [
        {
          "internalType": "contract IERC20",
          "name": "",
          "type": "address"
        }
      ],
      "stateMutability": "view",
      "type": "function"
    },
    {
      "inputs": [],
      "name": "mryPerSecond",
      "outputs": [
        {
          "internalType": "uint256",
          "name": "",
          "type": "uint256"
        }
      ],
      "stateMutability": "view",
      "type": "function"
    },
    {
      "inputs": [],
      "name": "operator",
      "outputs": [
        {
          "internalType": "address",
          "name": "",
          "type": "address"
        }
      ],
      "stateMutability": "view",
      "type": "function"
    },
    {
      "inputs": [
        {
          "internalType": "uint256",
          "name": "_pid",
          "type": "uint256"
        },
        {
          "internalType": "address",
          "name": "_user",
          "type": "address"
        }
      ],
      "name": "pendingMRY",
      "outputs": [
        {
          "internalType": "uint256",
          "name": "",
          "type": "uint256"
        }
      ],
      "stateMutability": "view",
      "type": "function"
    },
    {
      "inputs": [],
      "name": "poolEndTime",
      "outputs": [
        {
          "internalType": "uint256",
          "name": "",
          "type": "uint256"
        }
      ],
      "stateMutability": "view",
      "type": "function"
    },
    {
      "inputs": [
        {
          "internalType": "uint256",
          "name": "",
          "type": "uint256"
        }
      ],
      "name": "poolInfo",
      "outputs": [
        {
          "internalType": "contract IERC20",
          "name": "token",
          "type": "address"
        },
        {
          "internalType": "uint256",
          "name": "allocPoint",
          "type": "uint256"
        },
        {
          "internalType": "uint256",
          "name": "lastRewardTime",
          "type": "uint256"
        },
        {
          "internalType": "uint256",
          "name": "accMryPerShare",
          "type": "uint256"
        },
        {
          "internalType": "bool",
          "name": "isStarted",
          "type": "bool"
        },
        {
          "internalType": "uint256",
          "name": "depositFeeBP",
          "type": "uint256"
        }
      ],
      "stateMutability": "view",
      "type": "function"
    },
    {
      "inputs": [],
      "name": "poolStartTime",
      "outputs": [
        {
          "internalType": "uint256",
          "name": "",
          "type": "uint256"
        }
      ],
      "stateMutability": "view",
      "type": "function"
    },
    {
      "inputs": [],
      "name": "runningTime",
      "outputs": [
        {
          "internalType": "uint256",
          "name": "",
          "type": "uint256"
        }
      ],
      "stateMutability": "view",
      "type": "function"
    },
    {
      "inputs": [
        {
          "internalType": "uint256",
          "name": "_pid",
          "type": "uint256"
        },
        {
          "internalType": "uint256",
          "name": "_allocPoint",
          "type": "uint256"
        },
        {
          "internalType": "uint256",
          "name": "_depositFeeBP",
          "type": "uint256"
        }
      ],
      "name": "set",
      "outputs": [],
      "stateMutability": "nonpayable",
      "type": "function"
    },
    {
      "inputs": [
        {
          "internalType": "address",
          "name": "_feeAddress",
          "type": "address"
        }
      ],
      "name": "setFeeAddress",
      "outputs": [],
      "stateMutability": "nonpayable",
      "type": "function"
    },
    {
      "inputs": [
        {
          "internalType": "address",
          "name": "_operator",
          "type": "address"
        }
      ],
      "name": "setOperator",
      "outputs": [],
      "stateMutability": "nonpayable",
      "type": "function"
    },
    {
      "inputs": [],
      "name": "totalAllocPoint",
      "outputs": [
        {
          "internalType": "uint256",
          "name": "",
          "type": "uint256"
        }
      ],
      "stateMutability": "view",
      "type": "function"
    },
    {
      "inputs": [
        {
          "internalType": "uint256",
          "name": "_pid",
          "type": "uint256"
        }
      ],
      "name": "updatePool",
      "outputs": [],
      "stateMutability": "nonpayable",
      "type": "function"
    },
    {
      "inputs": [
        {
          "internalType": "uint256",
          "name": "",
          "type": "uint256"
        },
        {
          "internalType": "address",
          "name": "",
          "type": "address"
        }
      ],
      "name": "userInfo",
      "outputs": [
        {
          "internalType": "uint256",
          "name": "amount",
          "type": "uint256"
        },
        {
          "internalType": "uint256",
          "name": "rewardDebt",
          "type": "uint256"
        }
      ],
      "stateMutability": "view",
      "type": "function"
    },
    {
      "inputs": [
        {
          "internalType": "uint256",
          "name": "_pid",
          "type": "uint256"
        },
        {
          "internalType": "uint256",
          "name": "_amount",
          "type": "uint256"
        }
      ],
      "name": "withdraw",
      "outputs": [],
      "stateMutability": "nonpayable",
      "type": "function"
    }
  ],
  "bytecode": "0x60806040526000600555670156a8c3949620006008556203f4806009553480156200002957600080fd5b5060405162001a8138038062001a818339810160408190526200004c91620000b9565b6001600160a01b038216156200007857600180546001600160a01b0319166001600160a01b0384161790555b60068190556009546200008c9082620000f5565b600755505060008054336001600160a01b031991821681179092556002805490911690911790556200011c565b60008060408385031215620000cd57600080fd5b82516001600160a01b0381168114620000e557600080fd5b6020939093015192949293505050565b600082198211156200011757634e487b7160e01b600052601160045260246000fd5b500190565b611955806200012c6000396000f3fe608060405234801561001057600080fd5b506004361061014d5760003560e01c806354575af4116100c35780638705fcd41161007c5780638705fcd4146102d057806393f1a40b146102e3578063943f013d1461032a578063b3ab15fb14610333578063e11998b614610346578063e2bbb1581461034f57600080fd5b806354575af41461027d578063570ca735146102905780635f96dc11146102a357806362e006c7146102ac578063630b5ba1146102bf5780636e271dd5146102c757600080fd5b80633ab1f35f116101155780633ab1f35f146101f1578063412753581461021c57806343b0e8df1461022f578063441a3e701461024457806351eb05a6146102575780635312ea8e1461026a57600080fd5b806309cf6091146101525780631526fe271461017657806317caf6f1146101c2578063231f0c6a146101cb5780632a9b0ee3146101de575b600080fd5b61016369054b40b1f852bda0000081565b6040519081526020015b60405180910390f35b61018961018436600461167b565b610362565b604080516001600160a01b03909716875260208701959095529385019290925260608401521515608083015260a082015260c00161016d565b61016360055481565b6101636101d936600461172f565b6103b8565b6101636101ec3660046116ad565b61047d565b600154610204906001600160a01b031681565b6040516001600160a01b03909116815260200161016d565b600254610204906001600160a01b031681565b61024261023d366004611751565b6105f7565b005b61024261025236600461172f565b610725565b61024261026536600461167b565b6108db565b61024261027836600461167b565b610a3f565b61024261028b366004611639565b610ae1565b600054610204906001600160a01b031681565b61016360065481565b6102426102ba3660046116dd565b610c17565b610242610e84565b61016360075481565b6102426102de3660046115ff565b610eaf565b6103156102f13660046116ad565b60046020908152600092835260408084209091529082529020805460019091015482565b6040805192835260208301919091520161016d565b61016360095481565b6102426103413660046115ff565b610f77565b61016360085481565b61024261035d36600461172f565b610fc3565b6003818154811061037257600080fd5b60009182526020909120600690910201805460018201546002830154600384015460048501546005909501546001600160a01b0390941695509193909260ff9091169086565b60008183106103c957506000610477565b60075482106104315760075483106103e357506000610477565b60065483116104165761040f60085461040960065460075461119490919063ffffffff16565b906111a7565b9050610477565b61040f6008546104098560075461119490919063ffffffff16565b600654821161044257506000610477565b60065483116104665761040f6008546104096006548561119490919063ffffffff16565b60085461040f906104098486611194565b92915050565b60008060038481548110610493576104936118e3565b60009182526020808320878452600480835260408086206001600160a01b038a8116885294528086206006959095029092016003810154815493516370a0823160e01b8152309381019390935290965093949291909116906370a082319060240160206040518083038186803b15801561050c57600080fd5b505afa158015610520573d6000803e3d6000fd5b505050506040513d601f19601f820116820180604052508101906105449190611694565b905083600201544211801561055857508015155b156105bb57600061056d8560020154426103b8565b9050600061059460055461058e8860010154856111a790919063ffffffff16565b906111b3565b90506105b66105af8461058e84670de0b6b3a76400006111a7565b85906111bf565b935050505b6105ec83600101546105e6670de0b6b3a764000061058e8688600001546111a790919063ffffffff16565b90611194565b979650505050505050565b6000546001600160a01b0316331461062a5760405162461bcd60e51b8152600401610621906117cc565b60405180910390fd5b60648111156106895760405162461bcd60e51b815260206004820152602560248201527f7365743a20696e76616c6964206465706f7369742066656520626173697320706044820152646f696e747360d81b6064820152608401610621565b610691610e84565b6000600384815481106106a6576106a66118e3565b60009182526020909120600690910201600481015490915060ff16156106ed576106e9836106e3836001015460055461119490919063ffffffff16565b906111bf565b6005555b828160010181905550816003858154811061070a5761070a6118e3565b90600052602060002090600602016005018190555050505050565b600033905060006003848154811061073f5761073f6118e3565b600091825260208083208784526004825260408085206001600160a01b038816865290925292208054600690920290920192508411156107b65760405162461bcd60e51b81526020600482015260126024820152711dda5d1a191c985dce881b9bdd0819dbdbd960721b6044820152606401610621565b6107bf856108db565b60006107f082600101546105e6670de0b6b3a764000061058e876003015487600001546111a790919063ffffffff16565b905080156108465761080284826111cb565b836001600160a01b03167fe2403640ba68fed3a2f88b7557551d1993f84b99bb10ff833f0cf8db0c5e04868260405161083d91815260200190565b60405180910390a25b84156108705781546108589086611194565b82558254610870906001600160a01b03168587611281565b6003830154825461088e91670de0b6b3a76400009161058e916111a7565b600183015560405185815286906001600160a01b038616907ff279e6a1f5e320cca91135676d9cb6e44ca8a08c0b88342bcdb1144f6511b5689060200160405180910390a3505050505050565b6000600382815481106108f0576108f06118e3565b906000526020600020906006020190508060020154421161090f575050565b80546040516370a0823160e01b81523060048201526000916001600160a01b0316906370a082319060240160206040518083038186803b15801561095257600080fd5b505afa158015610966573d6000803e3d6000fd5b505050506040513d601f19601f8201168201806040525081019061098a9190611694565b90508061099c57504260029091015550565b600482015460ff166109cd5760048201805460ff191660019081179091558201546005546109c9916111bf565b6005555b60055415610a345760006109e58360020154426103b8565b90506000610a0660055461058e8660010154856111a790919063ffffffff16565b9050610a2c610a218461058e84670de0b6b3a76400006111a7565b6003860154906111bf565b600385015550505b504260029091015550565b600060038281548110610a5457610a546118e3565b600091825260208083208584526004825260408085203380875293528420805485825560018201959095556006909302018054909450919291610aa4916001600160a01b03919091169083611281565b604051818152849033907fbb757047c2b5f3974fe26b7c10f732e7bce710b0952a71082702781e62ae05959060200160405180910390a350505050565b6000546001600160a01b03163314610b0b5760405162461bcd60e51b8152600401610621906117cc565b600754610b1b906276a700611816565b421015610bfe576001546001600160a01b0384811691161415610b6a5760405162461bcd60e51b81526020600482015260076024820152664d45524355525960c81b6044820152606401610621565b60035460005b81811015610bfb57600060038281548110610b8d57610b8d6118e3565b6000918252602090912060069091020180549091506001600160a01b0387811691161415610bea5760405162461bcd60e51b815260206004820152600a6024820152693837b7b6173a37b5b2b760b11b6044820152606401610621565b50610bf4816118b2565b9050610b70565b50505b610c126001600160a01b0384168284611281565b505050565b6000546001600160a01b03163314610c415760405162461bcd60e51b8152600401610621906117cc565b6064811115610ca05760405162461bcd60e51b815260206004820152602560248201527f6164643a20696e76616c6964206465706f7369742066656520626173697320706044820152646f696e747360d81b6064820152608401610621565b610ca9846112e4565b8215610cb757610cb7610e84565b600654421015610ce55781610cd0576006549150610cfa565b600654821015610ce05760065491505b610cfa565b811580610cf157504282105b15610cfa574291505b600060065483111580610d0d5750428311155b6040805160c0810182526001600160a01b038881168252602082018a8152928201878152600060608401818152861580156080870190815260a087018b815260038054600181018255955296517fc2575a0e9e593c00f959f8c92f12db2869c3395a3b0502d05e2516446f71f85b600690950294850180546001600160a01b031916919097161790955595517fc2575a0e9e593c00f959f8c92f12db2869c3395a3b0502d05e2516446f71f85c83015591517fc2575a0e9e593c00f959f8c92f12db2869c3395a3b0502d05e2516446f71f85d82015590517fc2575a0e9e593c00f959f8c92f12db2869c3395a3b0502d05e2516446f71f85e82015590517fc2575a0e9e593c00f959f8c92f12db2869c3395a3b0502d05e2516446f71f85f8201805460ff191691151591909117905590517fc2575a0e9e593c00f959f8c92f12db2869c3395a3b0502d05e2516446f71f86090910155909150610e7c57600554610e7890876111bf565b6005555b505050505050565b60035460005b81811015610eab57610e9b816108db565b610ea4816118b2565b9050610e8a565b5050565b6002546001600160a01b03163314610f095760405162461bcd60e51b815260206004820152601860248201527f736574466565416464726573733a20464f5242494444454e00000000000000006044820152606401610621565b6001600160a01b038116610f555760405162461bcd60e51b8152602060048201526013602482015272736574466565416464726573733a205a45524f60681b6044820152606401610621565b600280546001600160a01b0319166001600160a01b0392909216919091179055565b6000546001600160a01b03163314610fa15760405162461bcd60e51b8152600401610621906117cc565b600080546001600160a01b0319166001600160a01b0392909216919091179055565b6000339050600060038481548110610fdd57610fdd6118e3565b600091825260208083208784526004825260408085206001600160a01b0388168652909252922060069091029091019150611017856108db565b8054156110a757600061104f82600101546105e6670de0b6b3a764000061058e876003015487600001546111a790919063ffffffff16565b905080156110a55761106184826111cb565b836001600160a01b03167fe2403640ba68fed3a2f88b7557551d1993f84b99bb10ff833f0cf8db0c5e04868260405161109c91815260200190565b60405180910390a25b505b831561112a5781546110c4906001600160a01b0316843087611387565b80546110d090856111bf565b815560058201541561112a5760006110fb61271061058e8560050154886111a790919063ffffffff16565b600254845491925061111a916001600160a01b03908116911683611281565b81546111269082611194565b8255505b6003820154815461114891670de0b6b3a76400009161058e916111a7565b600182015560405184815285906001600160a01b038516907f90890809c654f11d6e72a28fa60149770a0d11ec6c92319d6ceb2bb0a4ea1a159060200160405180910390a35050505050565b60006111a0828461186f565b9392505050565b60006111a08284611850565b60006111a0828461182e565b60006111a08284611816565b6001546040516370a0823160e01b81523060048201526000916001600160a01b0316906370a082319060240160206040518083038186803b15801561120f57600080fd5b505afa158015611223573d6000803e3d6000fd5b505050506040513d601f19601f820116820180604052508101906112479190611694565b90508015610c12578082111561126e57600154610c12906001600160a01b03168483611281565b600154610c12906001600160a01b031684845b6040516001600160a01b038316602482015260448101829052610c1290849063a9059cbb60e01b906064015b60408051601f198184030181529190526020810180516001600160e01b03166001600160e01b0319909316929092179091526113c5565b60035460005b81811015610c1257826001600160a01b03166003828154811061130f5761130f6118e3565b60009182526020909120600690910201546001600160a01b031614156113775760405162461bcd60e51b815260206004820152601e60248201527f4d727947656e65736973506f6f6c3a206578697374696e6720706f6f6c3f00006044820152606401610621565b611380816118b2565b90506112ea565b6040516001600160a01b03808516602483015283166044820152606481018290526113bf9085906323b872dd60e01b906084016112ad565b50505050565b600061141a826040518060400160405280602081526020017f5361666545524332303a206c6f772d6c6576656c2063616c6c206661696c6564815250856001600160a01b03166114979092919063ffffffff16565b805190915015610c125780806020019051810190611438919061161c565b610c125760405162461bcd60e51b815260206004820152602a60248201527f5361666545524332303a204552433230206f7065726174696f6e20646964206e6044820152691bdd081cdd58d8d9595960b21b6064820152608401610621565b60606114a684846000856114ae565b949350505050565b60608247101561150f5760405162461bcd60e51b815260206004820152602660248201527f416464726573733a20696e73756666696369656e742062616c616e636520666f6044820152651c8818d85b1b60d21b6064820152608401610621565b843b61155d5760405162461bcd60e51b815260206004820152601d60248201527f416464726573733a2063616c6c20746f206e6f6e2d636f6e74726163740000006044820152606401610621565b600080866001600160a01b03168587604051611579919061177d565b60006040518083038185875af1925050503d80600081146115b6576040519150601f19603f3d011682016040523d82523d6000602084013e6115bb565b606091505b50915091506105ec828286606083156115d55750816111a0565b8251156115e55782518084602001fd5b8160405162461bcd60e51b81526004016106219190611799565b60006020828403121561161157600080fd5b81356111a0816118f9565b60006020828403121561162e57600080fd5b81516111a081611911565b60008060006060848603121561164e57600080fd5b8335611659816118f9565b9250602084013591506040840135611670816118f9565b809150509250925092565b60006020828403121561168d57600080fd5b5035919050565b6000602082840312156116a657600080fd5b5051919050565b600080604083850312156116c057600080fd5b8235915060208301356116d2816118f9565b809150509250929050565b600080600080600060a086880312156116f557600080fd5b853594506020860135611707816118f9565b9350604086013561171781611911565b94979396509394606081013594506080013592915050565b6000806040838503121561174257600080fd5b50508035926020909101359150565b60008060006060848603121561176657600080fd5b505081359360208301359350604090920135919050565b6000825161178f818460208701611886565b9190910192915050565b60208152600082518060208401526117b8816040850160208701611886565b601f01601f19169190910160400192915050565b6020808252602a908201527f4d727947656e65736973506f6f6c3a2063616c6c6572206973206e6f74207468604082015269329037b832b930ba37b960b11b606082015260800190565b60008219821115611829576118296118cd565b500190565b60008261184b57634e487b7160e01b600052601260045260246000fd5b500490565b600081600019048311821515161561186a5761186a6118cd565b500290565b600082821015611881576118816118cd565b500390565b60005b838110156118a1578181015183820152602001611889565b838111156113bf5750506000910152565b60006000198214156118c6576118c66118cd565b5060010190565b634e487b7160e01b600052601160045260246000fd5b634e487b7160e01b600052603260045260246000fd5b6001600160a01b038116811461190e57600080fd5b50565b801515811461190e57600080fdfea264697066735822122072f19678f23ab105151b350c8a79c9948663876e84611b07b6e087d002c39c2064736f6c63430008070033",
  "linkReferences": {},
  "deployedLinkReferences": {}
}