{
  "_format": "hh-sol-artifact-1",
  "contractName": "Masonry",
  "sourceName": "contracts/Masonry.sol",
  "abi": [
    {
      "anonymous": false,
      "inputs": [
        {
          "indexed": true,
          "internalType": "address",
          "name": "executor",
          "type": "address"
        },
        {
          "indexed": false,
          "internalType": "uint256",
          "name": "at",
          "type": "uint256"
        }
      ],
      "name": "Initialized",
      "type": "event"
    },
    {
      "anonymous": false,
      "inputs": [
        {
          "indexed": true,
          "internalType": "address",
          "name": "user",
          "type": "address"
        },
        {
          "indexed": false,
          "internalType": "uint256",
          "name": "reward",
          "type": "uint256"
        }
      ],
      "name": "RewardAdded",
      "type": "event"
    },
    {
      "anonymous": false,
      "inputs": [
        {
          "indexed": true,
          "internalType": "address",
          "name": "user",
          "type": "address"
        },
        {
          "indexed": false,
          "internalType": "uint256",
          "name": "reward",
          "type": "uint256"
        }
      ],
      "name": "RewardPaid",
      "type": "event"
    },
    {
      "anonymous": false,
      "inputs": [
        {
          "indexed": true,
          "internalType": "address",
          "name": "user",
          "type": "address"
        },
        {
          "indexed": false,
          "internalType": "uint256",
          "name": "amount",
          "type": "uint256"
        }
      ],
      "name": "Staked",
      "type": "event"
    },
    {
      "anonymous": false,
      "inputs": [
        {
          "indexed": true,
          "internalType": "address",
          "name": "user",
          "type": "address"
        },
        {
          "indexed": false,
          "internalType": "uint256",
          "name": "amount",
          "type": "uint256"
        }
      ],
      "name": "Withdrawn",
      "type": "event"
    },
    {
      "inputs": [
        {
          "internalType": "uint256",
          "name": "amount",
          "type": "uint256"
        }
      ],
      "name": "allocateSeigniorage",
      "outputs": [],
      "stateMutability": "nonpayable",
      "type": "function"
    },
    {
      "inputs": [
        {
          "internalType": "address",
          "name": "account",
          "type": "address"
        }
      ],
      "name": "balanceOf",
      "outputs": [
        {
          "internalType": "uint256",
          "name": "",
          "type": "uint256"
        }
      ],
      "stateMutability": "view",
      "type": "function"
    },
    {
      "inputs": [
        {
          "internalType": "address",
          "name": "mason",
          "type": "address"
        }
      ],
      "name": "canClaimReward",
      "outputs": [
        {
          "internalType": "bool",
          "name": "",
          "type": "bool"
        }
      ],
      "stateMutability": "view",
      "type": "function"
    },
    {
      "inputs": [
        {
          "internalType": "address",
          "name": "mason",
          "type": "address"
        }
      ],
      "name": "canWithdraw",
      "outputs": [
        {
          "internalType": "bool",
          "name": "",
          "type": "bool"
        }
      ],
      "stateMutability": "view",
      "type": "function"
    },
    {
      "inputs": [],
      "name": "claimReward",
      "outputs": [],
      "stateMutability": "nonpayable",
      "type": "function"
    },
    {
      "inputs": [
        {
          "internalType": "address",
          "name": "mason",
          "type": "address"
        }
      ],
      "name": "earned",
      "outputs": [
        {
          "internalType": "uint256",
          "name": "",
          "type": "uint256"
        }
      ],
      "stateMutability": "view",
      "type": "function"
    },
    {
      "inputs": [],
      "name": "epoch",
      "outputs": [
        {
          "internalType": "uint256",
          "name": "",
          "type": "uint256"
        }
      ],
      "stateMutability": "view",
      "type": "function"
    },
    {
      "inputs": [],
      "name": "exit",
      "outputs": [],
      "stateMutability": "nonpayable",
      "type": "function"
    },
    {
      "inputs": [
        {
          "internalType": "address",
          "name": "mason",
          "type": "address"
        }
      ],
      "name": "getLastSnapshotIndexOf",
      "outputs": [
        {
          "internalType": "uint256",
          "name": "",
          "type": "uint256"
        }
      ],
      "stateMutability": "view",
      "type": "function"
    },
    {
      "inputs": [],
      "name": "getMryPrice",
      "outputs": [
        {
          "internalType": "uint256",
          "name": "",
          "type": "uint256"
        }
      ],
      "stateMutability": "view",
      "type": "function"
    },
    {
      "inputs": [
        {
          "internalType": "contract IERC20",
          "name": "_token",
          "type": "address"
        },
        {
          "internalType": "uint256",
          "name": "_amount",
          "type": "uint256"
        },
        {
          "internalType": "address",
          "name": "_to",
          "type": "address"
        }
      ],
      "name": "governanceRecoverUnsupported",
      "outputs": [],
      "stateMutability": "nonpayable",
      "type": "function"
    },
    {
      "inputs": [
        {
          "internalType": "contract IERC20",
          "name": "_mry",
          "type": "address"
        },
        {
          "internalType": "contract IERC20",
          "name": "_share",
          "type": "address"
        },
        {
          "internalType": "contract ITreasury",
          "name": "_treasury",
          "type": "address"
        }
      ],
      "name": "initialize",
      "outputs": [],
      "stateMutability": "nonpayable",
      "type": "function"
    },
    {
      "inputs": [],
      "name": "initialized",
      "outputs": [
        {
          "internalType": "bool",
          "name": "",
          "type": "bool"
        }
      ],
      "stateMutability": "view",
      "type": "function"
    },
    {
      "inputs": [],
      "name": "latestSnapshotIndex",
      "outputs": [
        {
          "internalType": "uint256",
          "name": "",
          "type": "uint256"
        }
      ],
      "stateMutability": "view",
      "type": "function"
    },
    {
      "inputs": [
        {
          "internalType": "uint256",
          "name": "",
          "type": "uint256"
        }
      ],
      "name": "masonryHistory",
      "outputs": [
        {
          "internalType": "uint256",
          "name": "time",
          "type": "uint256"
        },
        {
          "internalType": "uint256",
          "name": "rewardReceived",
          "type": "uint256"
        },
        {
          "internalType": "uint256",
          "name": "rewardPerShare",
          "type": "uint256"
        }
      ],
      "stateMutability": "view",
      "type": "function"
    },
    {
      "inputs": [
        {
          "internalType": "address",
          "name": "",
          "type": "address"
        }
      ],
      "name": "masons",
      "outputs": [
        {
          "internalType": "uint256",
          "name": "lastSnapshotIndex",
          "type": "uint256"
        },
        {
          "internalType": "uint256",
          "name": "rewardEarned",
          "type": "uint256"
        },
        {
          "internalType": "uint256",
          "name": "epochTimerStart",
          "type": "uint256"
        }
      ],
      "stateMutability": "view",
      "type": "function"
    },
    {
      "inputs": [],
      "name": "mry",
      "outputs": [
        {
          "internalType": "contract IERC20",
          "name": "",
          "type": "address"
        }
      ],
      "stateMutability": "view",
      "type": "function"
    },
    {
      "inputs": [],
      "name": "nextEpochPoint",
      "outputs": [
        {
          "internalType": "uint256",
          "name": "",
          "type": "uint256"
        }
      ],
      "stateMutability": "view",
      "type": "function"
    },
    {
      "inputs": [],
      "name": "operator",
      "outputs": [
        {
          "internalType": "address",
          "name": "",
          "type": "address"
        }
      ],
      "stateMutability": "view",
      "type": "function"
    },
    {
      "inputs": [],
      "name": "rewardLockupEpochs",
      "outputs": [
        {
          "internalType": "uint256",
          "name": "",
          "type": "uint256"
        }
      ],
      "stateMutability": "view",
      "type": "function"
    },
    {
      "inputs": [],
      "name": "rewardPerShare",
      "outputs": [
        {
          "internalType": "uint256",
          "name": "",
          "type": "uint256"
        }
      ],
      "stateMutability": "view",
      "type": "function"
    },
    {
      "inputs": [
        {
          "internalType": "uint256",
          "name": "_withdrawLockupEpochs",
          "type": "uint256"
        },
        {
          "internalType": "uint256",
          "name": "_rewardLockupEpochs",
          "type": "uint256"
        }
      ],
      "name": "setLockUp",
      "outputs": [],
      "stateMutability": "nonpayable",
      "type": "function"
    },
    {
      "inputs": [
        {
          "internalType": "address",
          "name": "_operator",
          "type": "address"
        }
      ],
      "name": "setOperator",
      "outputs": [],
      "stateMutability": "nonpayable",
      "type": "function"
    },
    {
      "inputs": [
        {
          "internalType": "contract ITreasury",
          "name": "_treasury",
          "type": "address"
        }
      ],
      "name": "setTreasury",
      "outputs": [],
      "stateMutability": "nonpayable",
      "type": "function"
    },
    {
      "inputs": [],
      "name": "share",
      "outputs": [
        {
          "internalType": "contract IERC20",
          "name": "",
          "type": "address"
        }
      ],
      "stateMutability": "view",
      "type": "function"
    },
    {
      "inputs": [
        {
          "internalType": "uint256",
          "name": "amount",
          "type": "uint256"
        }
      ],
      "name": "stake",
      "outputs": [],
      "stateMutability": "nonpayable",
      "type": "function"
    },
    {
      "inputs": [],
      "name": "totalSupply",
      "outputs": [
        {
          "internalType": "uint256",
          "name": "",
          "type": "uint256"
        }
      ],
      "stateMutability": "view",
      "type": "function"
    },
    {
      "inputs": [],
      "name": "treasury",
      "outputs": [
        {
          "internalType": "contract ITreasury",
          "name": "",
          "type": "address"
        }
      ],
      "stateMutability": "view",
      "type": "function"
    },
    {
      "inputs": [
        {
          "internalType": "uint256",
          "name": "amount",
          "type": "uint256"
        }
      ],
      "name": "withdraw",
      "outputs": [],
      "stateMutability": "nonpayable",
      "type": "function"
    },
    {
      "inputs": [],
      "name": "withdrawLockupEpochs",
      "outputs": [
        {
          "internalType": "uint256",
          "name": "",
          "type": "uint256"
        }
      ],
      "stateMutability": "view",
      "type": "function"
    }
  ],
  "bytecode": "0x60806040526004805460ff60a01b1916905534801561001d57600080fd5b50611dd98061002d6000396000f3fe608060405234801561001057600080fd5b50600436106101d95760003560e01c806370a0823111610104578063b3ab15fb116100a2578063c5967c2611610071578063c5967c26146103fb578063e0f6dc9e14610403578063e9fad8ee14610432578063f0f442601461043a57600080fd5b8063b3ab15fb146103c5578063b88a802f146103d8578063bee2a653146103e0578063c0c53b8b146103e857600080fd5b8063900cf0cf116100de578063900cf0cf1461038457806397ffe1d71461038c578063a694fc3a1461039f578063a8d5fd65146103b257600080fd5b806370a0823114610304578063714b46581461032d5780638cd9a27f1461035657600080fd5b80632e1a7d4d1161017c578063446a2ec81161014b578063446a2ec8146102c357806354575af4146102cb578063570ca735146102de57806361d027b3146102f157600080fd5b80632e1a7d4d146102685780632ffaaa091461027d5780633ab1f35f146102905780633f9e3f04146102bb57600080fd5b8063158ef93e116101b8578063158ef93e1461023057806318160ddd1461024457806319262d301461024c5780631e85cd651461025f57600080fd5b80628cc262146101de578063022ba18d14610204578063046335d01461020d575b600080fd5b6101f16101ec366004611ad9565b61046a565b6040519081526020015b60405180910390f35b6101f1600a5481565b61022061021b366004611ad9565b6104fb565b60405190151581526020016101fb565b60045461022090600160a01b900460ff1681565b6001546101f1565b61022061025a366004611ad9565b6105a8565b6101f160095481565b61027b610276366004611b9a565b61064d565b005b61027b61028b366004611bcc565b610997565b6005546102a3906001600160a01b031681565b6040516001600160a01b0390911681526020016101fb565b6101f1610a35565b6101f1610a4b565b61027b6102d9366004611b63565b610a5e565b6004546102a3906001600160a01b031681565b6006546102a3906001600160a01b031681565b6101f1610312366004611ad9565b6001600160a01b031660009081526002602052604090205490565b6101f161033b366004611ad9565b6001600160a01b031660009081526007602052604090205490565b610369610364366004611b9a565b610b2b565b604080519384526020840192909252908201526060016101fb565b6101f1610b5e565b61027b61039a366004611b9a565b610bdb565b61027b6103ad366004611b9a565b610eab565b6000546102a3906001600160a01b031681565b61027b6103d3366004611ad9565b6110da565b61027b611126565b6101f16113bc565b61027b6103f6366004611b18565b611401565b6101f16115a0565b610369610411366004611ad9565b60076020526000908152604090208054600182015460029092015490919083565b61027b6115e5565b61027b610448366004611ad9565b600680546001600160a01b0319166001600160a01b0392909216919091179055565b600080610475611600565b60400151905060006104868461167a565b6040908101516001600160a01b0386166000908152600760205291909120600101549091506104f3906104ed670de0b6b3a76400006104e76104c8878761170d565b6001600160a01b038a1660009081526002602052604090205490611720565b9061172c565b90611738565b949350505050565b6006546040805163900cf0cf60e01b815290516000926001600160a01b03169163900cf0cf916004808301926020929190829003018186803b15801561054057600080fd5b505afa158015610554573d6000803e3d6000fd5b505050506040513d601f19601f820116820180604052508101906105789190611bb3565b600a546001600160a01b0384166000908152600760205260409020600201546105a091611738565b111592915050565b6006546040805163900cf0cf60e01b815290516000926001600160a01b03169163900cf0cf916004808301926020929190829003018186803b1580156105ed57600080fd5b505afa158015610601573d6000803e3d6000fd5b505050506040513d601f19601f820116820180604052508101906106259190611bb3565b6009546001600160a01b0384166000908152600760205260409020600201546105a091611738565b43600090815260036020908152604080832032845290915290205460ff16156106915760405162461bcd60e51b815260040161068890611c80565b60405180910390fd5b43600090815260036020908152604080832033845290915290205460ff16156106cc5760405162461bcd60e51b815260040161068890611c80565b33600090815260026020526040812054116107335760405162461bcd60e51b815260206004820152602160248201527f4d61736f6e72793a20546865206d61736f6e20646f6573206e6f7420657869736044820152601d60fa1b6064820152608401610688565b3380156107c4576001600160a01b03811660009081526007602090815260409182902082516060810184528154815260018201549281019290925260020154918101919091526107828261046a565b602082015261078f610a35565b81526001600160a01b038216600090815260076020908152604091829020835181559083015160018201559101516002909101555b600082116108145760405162461bcd60e51b815260206004820152601a60248201527f4d61736f6e72793a2043616e6e6f7420776974686472617720300000000000006044820152606401610688565b600660009054906101000a90046001600160a01b03166001600160a01b031663900cf0cf6040518163ffffffff1660e01b815260040160206040518083038186803b15801561086257600080fd5b505afa158015610876573d6000803e3d6000fd5b505050506040513d601f19601f8201168201806040525081019061089a9190611bb3565b600954336000908152600760205260409020600201546108b991611738565b11156109115760405162461bcd60e51b815260206004820152602160248201527f4d61736f6e72793a207374696c6c20696e207769746864726177206c6f636b756044820152600760fc1b6064820152608401610688565b610919611126565b61092282611744565b60405182815233907f7084f5476618d8e60b11ef0d7d3f06914655adb8793e28ff7f018d4c76d505d5906020015b60405180910390a250504360009081526003602090815260408083203284529091528082208054600160ff1991821681179092553384529190922080549091169091179055565b6004546001600160a01b031633146109c15760405162461bcd60e51b815260040161068890611c3d565b8082101580156109d2575060388211155b610a2a5760405162461bcd60e51b815260206004820152602360248201527f5f77697468647261774c6f636b757045706f6368733a206f7574206f662072616044820152626e676560e81b6064820152608401610688565b600991909155600a55565b600854600090610a4690600161170d565b905090565b6000610a55611600565b60400151905090565b6004546001600160a01b03163314610a885760405162461bcd60e51b815260040161068890611c3d565b6005546001600160a01b0384811691161415610acc5760405162461bcd60e51b81526020600482015260036024820152626d727960e81b6044820152606401610688565b6000546001600160a01b0384811691161415610b125760405162461bcd60e51b8152602060048201526005602482015264736861726560d81b6044820152606401610688565b610b266001600160a01b0384168284611802565b505050565b60088181548110610b3b57600080fd5b600091825260209091206003909102018054600182015460029092015490925083565b6006546040805163900cf0cf60e01b815290516000926001600160a01b03169163900cf0cf916004808301926020929190829003018186803b158015610ba357600080fd5b505afa158015610bb7573d6000803e3d6000fd5b505050506040513d601f19601f82011682018060405250810190610a469190611bb3565b43600090815260036020908152604080832032845290915290205460ff1615610c165760405162461bcd60e51b815260040161068890611c80565b43600090815260036020908152604080832033845290915290205460ff1615610c515760405162461bcd60e51b815260040161068890611c80565b6004546001600160a01b03163314610c7b5760405162461bcd60e51b815260040161068890611c3d565b60008111610ccb5760405162461bcd60e51b815260206004820152601a60248201527f4d61736f6e72793a2043616e6e6f7420616c6c6f6361746520300000000000006044820152606401610688565b6000610cd660015490565b11610d3a5760405162461bcd60e51b815260206004820152602e60248201527f4d61736f6e72793a2043616e6e6f7420616c6c6f63617465207768656e20746f60448201526d074616c537570706c7920697320360941b6064820152608401610688565b6000610d44611600565b6040015190506000610d74610d6d610d5b60015490565b6104e786670de0b6b3a7640000611720565b8390611738565b60408051606081018252438152602081018681529181018381526008805460018101825560009190915282517ff3f7a9fe364faab93b216da50a3214154f22a0a2b415b23a84c8169e8b636ee360039092029182015592517ff3f7a9fe364faab93b216da50a3214154f22a0a2b415b23a84c8169e8b636ee4840155517ff3f7a9fe364faab93b216da50a3214154f22a0a2b415b23a84c8169e8b636ee59092019190915560055491925090610e35906001600160a01b0316333087611865565b60405184815233907fac24935fd910bc682b5ccb1a07b718cadf8cf2f6d1404c4f3ddc3662dae40e299060200160405180910390a250504360009081526003602090815260408083203284529091528082208054600160ff19918216811790925533845291909220805490911690911790555050565b43600090815260036020908152604080832032845290915290205460ff1615610ee65760405162461bcd60e51b815260040161068890611c80565b43600090815260036020908152604080832033845290915290205460ff1615610f215760405162461bcd60e51b815260040161068890611c80565b338015610fb2576001600160a01b0381166000908152600760209081526040918290208251606081018452815481526001820154928101929092526002015491810191909152610f708261046a565b6020820152610f7d610a35565b81526001600160a01b038216600090815260076020908152604091829020835181559083015160018201559101516002909101555b600082116110025760405162461bcd60e51b815260206004820152601760248201527f4d61736f6e72793a2043616e6e6f74207374616b6520300000000000000000006044820152606401610688565b61100b826118a3565b600660009054906101000a90046001600160a01b03166001600160a01b031663900cf0cf6040518163ffffffff1660e01b815260040160206040518083038186803b15801561105957600080fd5b505afa15801561106d573d6000803e3d6000fd5b505050506040513d601f19601f820116820180604052508101906110919190611bb3565b33600081815260076020526040908190206002019290925590517f9e71bc8eea02a63969f509818f2dafb9254532904319f9dbda79b67bd34a5f3d906109509085815260200190565b6004546001600160a01b031633146111045760405162461bcd60e51b815260040161068890611c3d565b600480546001600160a01b0319166001600160a01b0392909216919091179055565b3380156111b7576001600160a01b03811660009081526007602090815260409182902082516060810184528154815260018201549281019290925260020154918101919091526111758261046a565b6020820152611182610a35565b81526001600160a01b038216600090815260076020908152604091829020835181559083015160018201559101516002909101555b3360009081526007602052604090206001015480156113b857600660009054906101000a90046001600160a01b03166001600160a01b031663900cf0cf6040518163ffffffff1660e01b815260040160206040518083038186803b15801561121e57600080fd5b505afa158015611232573d6000803e3d6000fd5b505050506040513d601f19601f820116820180604052508101906112569190611bb3565b600a543360009081526007602052604090206002015461127591611738565b11156112c35760405162461bcd60e51b815260206004820152601f60248201527f4d61736f6e72793a207374696c6c20696e20726577617264206c6f636b7570006044820152606401610688565b600660009054906101000a90046001600160a01b03166001600160a01b031663900cf0cf6040518163ffffffff1660e01b815260040160206040518083038186803b15801561131157600080fd5b505afa158015611325573d6000803e3d6000fd5b505050506040513d601f19601f820116820180604052508101906113499190611bb3565b3360008181526007602052604081206002810193909355600190920191909155600554611382916001600160a01b039091169083611802565b60405181815233907fe2403640ba68fed3a2f88b7557551d1993f84b99bb10ff833f0cf8db0c5e04869060200160405180910390a25b5050565b6006546040805163bee2a65360e01b815290516000926001600160a01b03169163bee2a653916004808301926020929190829003018186803b158015610ba357600080fd5b600454600160a01b900460ff161561145b5760405162461bcd60e51b815260206004820152601c60248201527f4d61736f6e72793a20616c726561647920696e697469616c697a6564000000006044820152606401610688565b600580546001600160a01b038086166001600160a01b031992831617909255600080548584169083161781556006805493851693909216929092178155604080516060810182524380825260208201858152828401868152600880546001810182559752835160039788027ff3f7a9fe364faab93b216da50a3214154f22a0a2b415b23a84c8169e8b636ee381019190915591517ff3f7a9fe364faab93b216da50a3214154f22a0a2b415b23a84c8169e8b636ee4830155517ff3f7a9fe364faab93b216da50a3214154f22a0a2b415b23a84c8169e8b636ee590910155600993909355600a93909355600480546001600160a81b03191633908117600160a01b17909155905190917f25ff68dd81b34665b5ba7e553ee5511bf6812e12adb4a7e2c0d9e26b3099ce799161159291815260200190565b60405180910390a250505050565b600654604080516362cb3e1360e11b815290516000926001600160a01b03169163c5967c26916004808301926020929190829003018186803b158015610ba357600080fd5b336000908152600260205260409020546115fe9061064d565b565b61162460405180606001604052806000815260200160008152602001600081525090565b600861162e610a35565b8154811061163e5761163e611d78565b90600052602060002090600302016040518060600160405290816000820154815260200160018201548152602001600282015481525050905090565b61169e60405180606001604052806000815260200160008152602001600081525090565b60086116bf836001600160a01b031660009081526007602052604090205490565b815481106116cf576116cf611d78565b906000526020600020906003020160405180606001604052908160008201548152602001600182015481526020016002820154815250509050919050565b60006117198284611d1f565b9392505050565b60006117198284611d00565b60006117198284611cde565b60006117198284611cc6565b33600090815260026020526040902054818110156117c15760405162461bcd60e51b815260206004820152603460248201527f4d61736f6e72793a2077697468647261772072657175657374206772656174656044820152731c881d1a185b881cdd185ad95908185b5bdd5b9d60621b6064820152608401610688565b6001546117ce908361170d565b6001556117db818361170d565b3360008181526002602052604081209290925590546113b8916001600160a01b0390911690845b6040516001600160a01b038316602482015260448101829052610b2690849063a9059cbb60e01b906064015b60408051601f198184030181529190526020810180516001600160e01b03166001600160e01b0319909316929092179091526118fc565b6040516001600160a01b038085166024830152831660448201526064810182905261189d9085906323b872dd60e01b9060840161182e565b50505050565b6001546118b09082611738565b600155336000908152600260205260409020546118cd9082611738565b3360008181526002602052604081209290925590546118f9916001600160a01b03909116903084611865565b50565b6000611951826040518060400160405280602081526020017f5361666545524332303a206c6f772d6c6576656c2063616c6c206661696c6564815250856001600160a01b03166119ce9092919063ffffffff16565b805190915015610b26578080602001905181019061196f9190611af6565b610b265760405162461bcd60e51b815260206004820152602a60248201527f5361666545524332303a204552433230206f7065726174696f6e20646964206e6044820152691bdd081cdd58d8d9595960b21b6064820152608401610688565b60606104f3848460008585843b611a275760405162461bcd60e51b815260206004820152601d60248201527f416464726573733a2063616c6c20746f206e6f6e2d636f6e74726163740000006044820152606401610688565b600080866001600160a01b03168587604051611a439190611bee565b60006040518083038185875af1925050503d8060008114611a80576040519150601f19603f3d011682016040523d82523d6000602084013e611a85565b606091505b5091509150611a95828286611aa0565b979650505050505050565b60608315611aaf575081611719565b825115611abf5782518084602001fd5b8160405162461bcd60e51b81526004016106889190611c0a565b600060208284031215611aeb57600080fd5b813561171981611d8e565b600060208284031215611b0857600080fd5b8151801515811461171957600080fd5b600080600060608486031215611b2d57600080fd5b8335611b3881611d8e565b92506020840135611b4881611d8e565b91506040840135611b5881611d8e565b809150509250925092565b600080600060608486031215611b7857600080fd5b8335611b8381611d8e565b9250602084013591506040840135611b5881611d8e565b600060208284031215611bac57600080fd5b5035919050565b600060208284031215611bc557600080fd5b5051919050565b60008060408385031215611bdf57600080fd5b50508035926020909101359150565b60008251611c00818460208701611d36565b9190910192915050565b6020815260008251806020840152611c29816040850160208701611d36565b601f01601f19169190910160400192915050565b60208082526023908201527f4d61736f6e72793a2063616c6c6572206973206e6f7420746865206f706572616040820152623a37b960e91b606082015260800190565b60208082526026908201527f436f6e747261637447756172643a206f6e6520626c6f636b2c206f6e652066756040820152653731ba34b7b760d11b606082015260800190565b60008219821115611cd957611cd9611d62565b500190565b600082611cfb57634e487b7160e01b600052601260045260246000fd5b500490565b6000816000190483118215151615611d1a57611d1a611d62565b500290565b600082821015611d3157611d31611d62565b500390565b60005b83811015611d51578181015183820152602001611d39565b8381111561189d5750506000910152565b634e487b7160e01b600052601160045260246000fd5b634e487b7160e01b600052603260045260246000fd5b6001600160a01b03811681146118f957600080fdfea2646970667358221220641625cb1aa2b4e9b603a5dcbd23b472c270125424681ded12e1d86f786d583c64736f6c63430008070033",
  "linkReferences": {},
  "deployedLinkReferences": {}
}