{
  "_format": "hh-sol-artifact-1",
  "contractName": "ShareWrapper",
  "sourceName": "contracts/Masonry.sol",
  "abi": [
    {
      "inputs": [
        {
          "internalType": "address",
          "name": "account",
          "type": "address"
        }
      ],
      "name": "balanceOf",
      "outputs": [
        {
          "internalType": "uint256",
          "name": "",
          "type": "uint256"
        }
      ],
      "stateMutability": "view",
      "type": "function"
    },
    {
      "inputs": [],
      "name": "share",
      "outputs": [
        {
          "internalType": "contract IERC20",
          "name": "",
          "type": "address"
        }
      ],
      "stateMutability": "view",
      "type": "function"
    },
    {
      "inputs": [
        {
          "internalType": "uint256",
          "name": "amount",
          "type": "uint256"
        }
      ],
      "name": "stake",
      "outputs": [],
      "stateMutability": "nonpayable",
      "type": "function"
    },
    {
      "inputs": [],
      "name": "totalSupply",
      "outputs": [
        {
          "internalType": "uint256",
          "name": "",
          "type": "uint256"
        }
      ],
      "stateMutability": "view",
      "type": "function"
    },
    {
      "inputs": [
        {
          "internalType": "uint256",
          "name": "amount",
          "type": "uint256"
        }
      ],
      "name": "withdraw",
      "outputs": [],
      "stateMutability": "nonpayable",
      "type": "function"
    }
  ],
  "bytecode": "0x608060405234801561001057600080fd5b5061067c806100206000396000f3fe608060405234801561001057600080fd5b50600436106100575760003560e01c806318160ddd1461005c5780632e1a7d4d1461007357806370a0823114610088578063a694fc3a146100b1578063a8d5fd65146100c4575b600080fd5b6001545b6040519081526020015b60405180910390f35b61008661008136600461056d565b6100ef565b005b610060610096366004610522565b6001600160a01b031660009081526002602052604090205490565b6100866100bf36600461056d565b6101ba565b6000546100d7906001600160a01b031681565b6040516001600160a01b03909116815260200161006a565b33600090815260026020526040902054818110156101715760405162461bcd60e51b815260206004820152603460248201527f4d61736f6e72793a2077697468647261772072657175657374206772656174656044820152731c881d1a185b881cdd185ad95908185b5bdd5b9d60621b60648201526084015b60405180910390fd5b60015461017e9083610213565b60015561018b8183610213565b3360008181526002602052604081209290925590546101b6916001600160a01b039091169084610226565b5050565b6001546101c7908261028e565b600155336000908152600260205260409020546101e4908261028e565b336000818152600260205260408120929092559054610210916001600160a01b0390911690308461029a565b50565b600061021f82846105ed565b9392505050565b6040516001600160a01b03831660248201526044810182905261028990849063a9059cbb60e01b906064015b60408051601f198184030181529190526020810180516001600160e01b03166001600160e01b0319909316929092179091526102d8565b505050565b600061021f82846105d5565b6040516001600160a01b03808516602483015283166044820152606481018290526102d29085906323b872dd60e01b90608401610252565b50505050565b600061032d826040518060400160405280602081526020017f5361666545524332303a206c6f772d6c6576656c2063616c6c206661696c6564815250856001600160a01b03166103aa9092919063ffffffff16565b805190915015610289578080602001905181019061034b919061054b565b6102895760405162461bcd60e51b815260206004820152602a60248201527f5361666545524332303a204552433230206f7065726174696f6e20646964206e6044820152691bdd081cdd58d8d9595960b21b6064820152608401610168565b60606103b984846000856103c1565b949350505050565b6060824710156104225760405162461bcd60e51b815260206004820152602660248201527f416464726573733a20696e73756666696369656e742062616c616e636520666f6044820152651c8818d85b1b60d21b6064820152608401610168565b843b6104705760405162461bcd60e51b815260206004820152601d60248201527f416464726573733a2063616c6c20746f206e6f6e2d636f6e74726163740000006044820152606401610168565b600080866001600160a01b0316858760405161048c9190610586565b60006040518083038185875af1925050503d80600081146104c9576040519150601f19603f3d011682016040523d82523d6000602084013e6104ce565b606091505b50915091506104de8282866104e9565b979650505050505050565b606083156104f857508161021f565b8251156105085782518084602001fd5b8160405162461bcd60e51b815260040161016891906105a2565b60006020828403121561053457600080fd5b81356001600160a01b038116811461021f57600080fd5b60006020828403121561055d57600080fd5b8151801515811461021f57600080fd5b60006020828403121561057f57600080fd5b5035919050565b60008251610598818460208701610604565b9190910192915050565b60208152600082518060208401526105c1816040850160208701610604565b601f01601f19169190910160400192915050565b600082198211156105e8576105e8610630565b500190565b6000828210156105ff576105ff610630565b500390565b60005b8381101561061f578181015183820152602001610607565b838111156102d25750506000910152565b634e487b7160e01b600052601160045260246000fdfea2646970667358221220f08f3a604fa883291aa993630eb3e290f23e021c7ddb6e9239853f2c8b6bf63564736f6c63430008070033",
  "linkReferences": {},
  "deployedLinkReferences": {}
}