{
  "_format": "hh-sol-artifact-1",
  "contractName": "XShareRewardPool",
  "sourceName": "contracts/distribution/XShareRewardPool.sol",
  "abi": [
    {
      "inputs": [
        {
          "internalType": "address",
          "name": "_xshare",
          "type": "address"
        },
        {
          "internalType": "uint256",
          "name": "_poolStartTime",
          "type": "uint256"
        }
      ],
      "stateMutability": "nonpayable",
      "type": "constructor"
    },
    {
      "anonymous": false,
      "inputs": [
        {
          "indexed": true,
          "internalType": "address",
          "name": "user",
          "type": "address"
        },
        {
          "indexed": true,
          "internalType": "uint256",
          "name": "pid",
          "type": "uint256"
        },
        {
          "indexed": false,
          "internalType": "uint256",
          "name": "amount",
          "type": "uint256"
        }
      ],
      "name": "Deposit",
      "type": "event"
    },
    {
      "anonymous": false,
      "inputs": [
        {
          "indexed": true,
          "internalType": "address",
          "name": "user",
          "type": "address"
        },
        {
          "indexed": true,
          "internalType": "uint256",
          "name": "pid",
          "type": "uint256"
        },
        {
          "indexed": false,
          "internalType": "uint256",
          "name": "amount",
          "type": "uint256"
        }
      ],
      "name": "EmergencyWithdraw",
      "type": "event"
    },
    {
      "anonymous": false,
      "inputs": [
        {
          "indexed": true,
          "internalType": "address",
          "name": "user",
          "type": "address"
        },
        {
          "indexed": false,
          "internalType": "uint256",
          "name": "amount",
          "type": "uint256"
        }
      ],
      "name": "RewardPaid",
      "type": "event"
    },
    {
      "anonymous": false,
      "inputs": [
        {
          "indexed": true,
          "internalType": "address",
          "name": "user",
          "type": "address"
        },
        {
          "indexed": true,
          "internalType": "uint256",
          "name": "pid",
          "type": "uint256"
        },
        {
          "indexed": false,
          "internalType": "uint256",
          "name": "amount",
          "type": "uint256"
        }
      ],
      "name": "Withdraw",
      "type": "event"
    },
    {
      "inputs": [],
      "name": "TOTAL_REWARDS",
      "outputs": [
        {
          "internalType": "uint256",
          "name": "",
          "type": "uint256"
        }
      ],
      "stateMutability": "view",
      "type": "function"
    },
    {
      "inputs": [
        {
          "internalType": "uint256",
          "name": "_allocPoint",
          "type": "uint256"
        },
        {
          "internalType": "contract IERC20",
          "name": "_token",
          "type": "address"
        },
        {
          "internalType": "bool",
          "name": "_withUpdate",
          "type": "bool"
        },
        {
          "internalType": "uint256",
          "name": "_lastRewardTime",
          "type": "uint256"
        }
      ],
      "name": "add",
      "outputs": [],
      "stateMutability": "nonpayable",
      "type": "function"
    },
    {
      "inputs": [
        {
          "internalType": "uint256",
          "name": "_pid",
          "type": "uint256"
        },
        {
          "internalType": "uint256",
          "name": "_amount",
          "type": "uint256"
        }
      ],
      "name": "deposit",
      "outputs": [],
      "stateMutability": "nonpayable",
      "type": "function"
    },
    {
      "inputs": [
        {
          "internalType": "uint256",
          "name": "_pid",
          "type": "uint256"
        }
      ],
      "name": "emergencyWithdraw",
      "outputs": [],
      "stateMutability": "nonpayable",
      "type": "function"
    },
    {
      "inputs": [
        {
          "internalType": "uint256",
          "name": "_fromTime",
          "type": "uint256"
        },
        {
          "internalType": "uint256",
          "name": "_toTime",
          "type": "uint256"
        }
      ],
      "name": "getGeneratedReward",
      "outputs": [
        {
          "internalType": "uint256",
          "name": "",
          "type": "uint256"
        }
      ],
      "stateMutability": "view",
      "type": "function"
    },
    {
      "inputs": [
        {
          "internalType": "contract IERC20",
          "name": "_token",
          "type": "address"
        },
        {
          "internalType": "uint256",
          "name": "amount",
          "type": "uint256"
        },
        {
          "internalType": "address",
          "name": "to",
          "type": "address"
        }
      ],
      "name": "governanceRecoverUnsupported",
      "outputs": [],
      "stateMutability": "nonpayable",
      "type": "function"
    },
    {
      "inputs": [],
      "name": "massUpdatePools",
      "outputs": [],
      "stateMutability": "nonpayable",
      "type": "function"
    },
    {
      "inputs": [],
      "name": "operator",
      "outputs": [
        {
          "internalType": "address",
          "name": "",
          "type": "address"
        }
      ],
      "stateMutability": "view",
      "type": "function"
    },
    {
      "inputs": [
        {
          "internalType": "uint256",
          "name": "_pid",
          "type": "uint256"
        },
        {
          "internalType": "address",
          "name": "_user",
          "type": "address"
        }
      ],
      "name": "pendingShare",
      "outputs": [
        {
          "internalType": "uint256",
          "name": "",
          "type": "uint256"
        }
      ],
      "stateMutability": "view",
      "type": "function"
    },
    {
      "inputs": [],
      "name": "poolEndTime",
      "outputs": [
        {
          "internalType": "uint256",
          "name": "",
          "type": "uint256"
        }
      ],
      "stateMutability": "view",
      "type": "function"
    },
    {
      "inputs": [
        {
          "internalType": "uint256",
          "name": "",
          "type": "uint256"
        }
      ],
      "name": "poolInfo",
      "outputs": [
        {
          "internalType": "contract IERC20",
          "name": "token",
          "type": "address"
        },
        {
          "internalType": "uint256",
          "name": "allocPoint",
          "type": "uint256"
        },
        {
          "internalType": "uint256",
          "name": "lastRewardTime",
          "type": "uint256"
        },
        {
          "internalType": "uint256",
          "name": "accXSharePerShare",
          "type": "uint256"
        },
        {
          "internalType": "bool",
          "name": "isStarted",
          "type": "bool"
        }
      ],
      "stateMutability": "view",
      "type": "function"
    },
    {
      "inputs": [],
      "name": "poolStartTime",
      "outputs": [
        {
          "internalType": "uint256",
          "name": "",
          "type": "uint256"
        }
      ],
      "stateMutability": "view",
      "type": "function"
    },
    {
      "inputs": [],
      "name": "runningTime",
      "outputs": [
        {
          "internalType": "uint256",
          "name": "",
          "type": "uint256"
        }
      ],
      "stateMutability": "view",
      "type": "function"
    },
    {
      "inputs": [
        {
          "internalType": "uint256",
          "name": "_pid",
          "type": "uint256"
        },
        {
          "internalType": "uint256",
          "name": "_allocPoint",
          "type": "uint256"
        }
      ],
      "name": "set",
      "outputs": [],
      "stateMutability": "nonpayable",
      "type": "function"
    },
    {
      "inputs": [
        {
          "internalType": "address",
          "name": "_operator",
          "type": "address"
        }
      ],
      "name": "setOperator",
      "outputs": [],
      "stateMutability": "nonpayable",
      "type": "function"
    },
    {
      "inputs": [],
      "name": "totalAllocPoint",
      "outputs": [
        {
          "internalType": "uint256",
          "name": "",
          "type": "uint256"
        }
      ],
      "stateMutability": "view",
      "type": "function"
    },
    {
      "inputs": [
        {
          "internalType": "uint256",
          "name": "_pid",
          "type": "uint256"
        }
      ],
      "name": "updatePool",
      "outputs": [],
      "stateMutability": "nonpayable",
      "type": "function"
    },
    {
      "inputs": [
        {
          "internalType": "uint256",
          "name": "",
          "type": "uint256"
        },
        {
          "internalType": "address",
          "name": "",
          "type": "address"
        }
      ],
      "name": "userInfo",
      "outputs": [
        {
          "internalType": "uint256",
          "name": "amount",
          "type": "uint256"
        },
        {
          "internalType": "uint256",
          "name": "rewardDebt",
          "type": "uint256"
        }
      ],
      "stateMutability": "view",
      "type": "function"
    },
    {
      "inputs": [
        {
          "internalType": "uint256",
          "name": "_pid",
          "type": "uint256"
        },
        {
          "internalType": "uint256",
          "name": "_amount",
          "type": "uint256"
        }
      ],
      "name": "withdraw",
      "outputs": [],
      "stateMutability": "nonpayable",
      "type": "function"
    },
    {
      "inputs": [],
      "name": "xSharePerSecond",
      "outputs": [
        {
          "internalType": "uint256",
          "name": "",
          "type": "uint256"
        }
      ],
      "stateMutability": "view",
      "type": "function"
    },
    {
      "inputs": [],
      "name": "xshare",
      "outputs": [
        {
          "internalType": "contract IERC20",
          "name": "",
          "type": "address"
        }
      ],
      "stateMutability": "view",
      "type": "function"
    }
  ],
  "bytecode": "0x60806040526000600455662dcb759f86c0006007556276a7006008553480156200002857600080fd5b50604051620017f4380380620017f48339810160408190526200004b91620000eb565b8042106200008e5760405162461bcd60e51b815260040162000085906020808252600490820152636c61746560e01b604082015260600190565b60405180910390fd5b6001600160a01b03821615620000ba57600180546001600160a01b0319166001600160a01b0384161790555b6005819055600854620000ce908262000127565b6006555050600080546001600160a01b031916331790556200014e565b60008060408385031215620000ff57600080fd5b82516001600160a01b03811681146200011757600080fd5b6020939093015192949293505050565b600082198211156200014957634e487b7160e01b600052601160045260246000fd5b500190565b611696806200015e6000396000f3fe608060405234801561001057600080fd5b50600436106101375760003560e01c8063570ca735116100b857806393f1a40b1161007c57806393f1a40b14610285578063943f013d146102cc57806396805e54146102d5578063b3ab15fb146102e8578063cf4b55cb146102fb578063e2bbb1581461030e57600080fd5b8063570ca7351461024f5780635f96dc1114610262578063630b5ba11461026b5780636e271dd5146102735780637628eb5e1461027c57600080fd5b8063231f0c6a116100ff578063231f0c6a146101f0578063441a3e701461020357806351eb05a6146102165780635312ea8e1461022957806354575af41461023c57600080fd5b806307e36ee31461013c57806309cf60911461016c5780631526fe271461018b57806317caf6f1146101d25780631ab06ee5146101db575b600080fd5b60015461014f906001600160a01b031681565b6040516001600160a01b0390911681526020015b60405180910390f35b61017d69152d02c7e14af680000081565b604051908152602001610163565b61019e6101993660046113f0565b610321565b604080516001600160a01b03909616865260208601949094529284019190915260608301521515608082015260a001610163565b61017d60045481565b6101ee6101e936600461149a565b61036f565b005b61017d6101fe36600461149a565b61040d565b6101ee61021136600461149a565b6104d2565b6101ee6102243660046113f0565b610694565b6101ee6102373660046113f0565b6107f8565b6101ee61024a3660046113ae565b61089a565b60005461014f906001600160a01b031681565b61017d60055481565b6101ee6109cf565b61017d60065481565b61017d60075481565b6102b7610293366004611422565b60036020908152600092835260408084209091529082529020805460019091015482565b60408051928352602083019190915201610163565b61017d60085481565b6101ee6102e3366004611452565b6109fa565b6101ee6102f6366004611374565b610bd8565b61017d610309366004611422565b610c24565b6101ee61031c36600461149a565b610d8f565b6002818154811061033157600080fd5b6000918252602090912060059091020180546001820154600283015460038401546004909401546001600160a01b0390931694509092909160ff1685565b6000546001600160a01b031633146103a25760405162461bcd60e51b81526004016103999061150b565b60405180910390fd5b6103aa6109cf565b6000600283815481106103bf576103bf611624565b60009182526020909120600590910201600481015490915060ff161561040657610402826103fc8360010154600454610f0990919063ffffffff16565b90610f1c565b6004555b6001015550565b600081831061041e575060006104cc565b6006548210610486576006548310610438575060006104cc565b600554831161046b5761046460075461045e600554600654610f0990919063ffffffff16565b90610f28565b90506104cc565b61046460075461045e85600654610f0990919063ffffffff16565b6005548211610497575060006104cc565b60055483116104bb5761046460075461045e60055485610f0990919063ffffffff16565b6007546104649061045e8486610f09565b92915050565b60003390506000600284815481106104ec576104ec611624565b600091825260208083208784526003825260408085206001600160a01b038816865290925292208054600590920290920192508411156105635760405162461bcd60e51b81526020600482015260126024820152711dda5d1a191c985dce881b9bdd0819dbdbd960721b6044820152606401610399565b61056c85610694565b60006105a982600101546105a3670de0b6b3a764000061059d87600301548760000154610f2890919063ffffffff16565b90610f34565b90610f09565b905080156105ff576105bb8482610f40565b836001600160a01b03167fe2403640ba68fed3a2f88b7557551d1993f84b99bb10ff833f0cf8db0c5e0486826040516105f691815260200190565b60405180910390a25b84156106295781546106119086610f09565b82558254610629906001600160a01b03168587610ff6565b6003830154825461064791670de0b6b3a76400009161059d91610f28565b600183015560405185815286906001600160a01b038616907ff279e6a1f5e320cca91135676d9cb6e44ca8a08c0b88342bcdb1144f6511b5689060200160405180910390a3505050505050565b6000600282815481106106a9576106a9611624565b90600052602060002090600502019050806002015442116106c8575050565b80546040516370a0823160e01b81523060048201526000916001600160a01b0316906370a082319060240160206040518083038186803b15801561070b57600080fd5b505afa15801561071f573d6000803e3d6000fd5b505050506040513d601f19601f820116820180604052508101906107439190611409565b90508061075557504260029091015550565b600482015460ff16610786576004808301805460ff19166001908117909155830154905461078291610f1c565b6004555b600454156107ed57600061079e83600201544261040d565b905060006107bf60045461059d866001015485610f2890919063ffffffff16565b90506107e56107da8461059d84670de0b6b3a7640000610f28565b600386015490610f1c565b600385015550505b504260029091015550565b60006002828154811061080d5761080d611624565b60009182526020808320858452600382526040808520338087529352842080548582556001820195909555600590930201805490945091929161085d916001600160a01b03919091169083610ff6565b604051818152849033907fbb757047c2b5f3974fe26b7c10f732e7bce710b0952a71082702781e62ae05959060200160405180910390a350505050565b6000546001600160a01b031633146108c45760405162461bcd60e51b81526004016103999061150b565b6006546108d4906276a700611557565b4210156109b6576001546001600160a01b03848116911614156109225760405162461bcd60e51b815260206004820152600660248201526578736861726560d01b6044820152606401610399565b60025460005b818110156109b35760006002828154811061094557610945611624565b6000918252602090912060059091020180549091506001600160a01b03878116911614156109a25760405162461bcd60e51b815260206004820152600a6024820152693837b7b6173a37b5b2b760b11b6044820152606401610399565b506109ac816115f3565b9050610928565b50505b6109ca6001600160a01b0384168284610ff6565b505050565b60025460005b818110156109f6576109e681610694565b6109ef816115f3565b90506109d5565b5050565b6000546001600160a01b03163314610a245760405162461bcd60e51b81526004016103999061150b565b610a2d83611059565b8115610a3b57610a3b6109cf565b600554421015610a675780610a535750600554610a7b565b600554811015610a6257506005545b610a7b565b801580610a7357504281105b15610a7b5750425b600060055482111580610a8e5750428211155b6040805160a0810182526001600160a01b03878116825260208201898152928201868152600060608401818152861580156080870190815260028054600181018255945295517f405787fa12a823e0f2b7631cc41b3ba8828b3321ca811111fa75cd3aa3bb5ace600590940293840180546001600160a01b031916919096161790945594517f405787fa12a823e0f2b7631cc41b3ba8828b3321ca811111fa75cd3aa3bb5acf82015590517f405787fa12a823e0f2b7631cc41b3ba8828b3321ca811111fa75cd3aa3bb5ad082015592517f405787fa12a823e0f2b7631cc41b3ba8828b3321ca811111fa75cd3aa3bb5ad184015590517f405787fa12a823e0f2b7631cc41b3ba8828b3321ca811111fa75cd3aa3bb5ad2909201805460ff191692151592909217909155909150610bd157600454610bcd9086610f1c565b6004555b5050505050565b6000546001600160a01b03163314610c025760405162461bcd60e51b81526004016103999061150b565b600080546001600160a01b0319166001600160a01b0392909216919091179055565b60008060028481548110610c3a57610c3a611624565b60009182526020808320878452600380835260408086206001600160a01b038a81168852945280862060059590950290920190810154815492516370a0823160e01b815230600482015291965093949291909116906370a082319060240160206040518083038186803b158015610cb057600080fd5b505afa158015610cc4573d6000803e3d6000fd5b505050506040513d601f19601f82011682018060405250810190610ce89190611409565b9050836002015442118015610cfc57508015155b15610d59576000610d1185600201544261040d565b90506000610d3260045461059d886001015485610f2890919063ffffffff16565b9050610d54610d4d8461059d84670de0b6b3a7640000610f28565b8590610f1c565b935050505b610d8483600101546105a3670de0b6b3a764000061059d868860000154610f2890919063ffffffff16565b979650505050505050565b6000339050600060028481548110610da957610da9611624565b600091825260208083208784526003825260408085206001600160a01b0388168652909252922060059091029091019150610de385610694565b805415610e73576000610e1b82600101546105a3670de0b6b3a764000061059d87600301548760000154610f2890919063ffffffff16565b90508015610e7157610e2d8482610f40565b836001600160a01b03167fe2403640ba68fed3a2f88b7557551d1993f84b99bb10ff833f0cf8db0c5e048682604051610e6891815260200190565b60405180910390a25b505b8315610e9f578154610e90906001600160a01b03168430876110fc565b8054610e9c9085610f1c565b81555b60038201548154610ebd91670de0b6b3a76400009161059d91610f28565b600182015560405184815285906001600160a01b038516907f90890809c654f11d6e72a28fa60149770a0d11ec6c92319d6ceb2bb0a4ea1a159060200160405180910390a35050505050565b6000610f1582846115b0565b9392505050565b6000610f158284611557565b6000610f158284611591565b6000610f15828461156f565b6001546040516370a0823160e01b81523060048201526000916001600160a01b0316906370a082319060240160206040518083038186803b158015610f8457600080fd5b505afa158015610f98573d6000803e3d6000fd5b505050506040513d601f19601f82011682018060405250810190610fbc9190611409565b905080156109ca5780821115610fe3576001546109ca906001600160a01b03168483610ff6565b6001546109ca906001600160a01b031684845b6040516001600160a01b0383166024820152604481018290526109ca90849063a9059cbb60e01b906064015b60408051601f198184030181529190526020810180516001600160e01b03166001600160e01b03199093169290921790915261113a565b60025460005b818110156109ca57826001600160a01b03166002828154811061108457611084611624565b60009182526020909120600590910201546001600160a01b031614156110ec5760405162461bcd60e51b815260206004820181905260248201527f585368617265526577617264506f6f6c3a206578697374696e6720706f6f6c3f6044820152606401610399565b6110f5816115f3565b905061105f565b6040516001600160a01b03808516602483015283166044820152606481018290526111349085906323b872dd60e01b90608401611022565b50505050565b600061118f826040518060400160405280602081526020017f5361666545524332303a206c6f772d6c6576656c2063616c6c206661696c6564815250856001600160a01b031661120c9092919063ffffffff16565b8051909150156109ca57808060200190518101906111ad9190611391565b6109ca5760405162461bcd60e51b815260206004820152602a60248201527f5361666545524332303a204552433230206f7065726174696f6e20646964206e6044820152691bdd081cdd58d8d9595960b21b6064820152608401610399565b606061121b8484600085611223565b949350505050565b6060824710156112845760405162461bcd60e51b815260206004820152602660248201527f416464726573733a20696e73756666696369656e742062616c616e636520666f6044820152651c8818d85b1b60d21b6064820152608401610399565b843b6112d25760405162461bcd60e51b815260206004820152601d60248201527f416464726573733a2063616c6c20746f206e6f6e2d636f6e74726163740000006044820152606401610399565b600080866001600160a01b031685876040516112ee91906114bc565b60006040518083038185875af1925050503d806000811461132b576040519150601f19603f3d011682016040523d82523d6000602084013e611330565b606091505b5091509150610d848282866060831561134a575081610f15565b82511561135a5782518084602001fd5b8160405162461bcd60e51b815260040161039991906114d8565b60006020828403121561138657600080fd5b8135610f158161163a565b6000602082840312156113a357600080fd5b8151610f1581611652565b6000806000606084860312156113c357600080fd5b83356113ce8161163a565b92506020840135915060408401356113e58161163a565b809150509250925092565b60006020828403121561140257600080fd5b5035919050565b60006020828403121561141b57600080fd5b5051919050565b6000806040838503121561143557600080fd5b8235915060208301356114478161163a565b809150509250929050565b6000806000806080858703121561146857600080fd5b84359350602085013561147a8161163a565b9250604085013561148a81611652565b9396929550929360600135925050565b600080604083850312156114ad57600080fd5b50508035926020909101359150565b600082516114ce8184602087016115c7565b9190910192915050565b60208152600082518060208401526114f78160408501602087016115c7565b601f01601f19169190910160400192915050565b6020808252602c908201527f585368617265526577617264506f6f6c3a2063616c6c6572206973206e6f742060408201526b3a34329037b832b930ba37b960a11b606082015260800190565b6000821982111561156a5761156a61160e565b500190565b60008261158c57634e487b7160e01b600052601260045260246000fd5b500490565b60008160001904831182151516156115ab576115ab61160e565b500290565b6000828210156115c2576115c261160e565b500390565b60005b838110156115e25781810151838201526020016115ca565b838111156111345750506000910152565b60006000198214156116075761160761160e565b5060010190565b634e487b7160e01b600052601160045260246000fd5b634e487b7160e01b600052603260045260246000fd5b6001600160a01b038116811461164f57600080fd5b50565b801515811461164f57600080fdfea2646970667358221220b9d30f0954b2a5a101726edf82dd5f45434168d19eba3ac9aa30383e65a933a364736f6c63430008070033",
  "linkReferences": {},
  "deployedLinkReferences": {}
}