{
  "_format": "hh-sol-artifact-1",
  "contractName": "Oracle",
  "sourceName": "contracts/Oracle.sol",
  "abi": [
    {
      "inputs": [
        {
          "internalType": "contract IUniswapV2Pair",
          "name": "_pair",
          "type": "address"
        },
        {
          "internalType": "uint256",
          "name": "_period",
          "type": "uint256"
        },
        {
          "internalType": "uint256",
          "name": "_startTime",
          "type": "uint256"
        }
      ],
      "stateMutability": "nonpayable",
      "type": "constructor"
    },
    {
      "anonymous": false,
      "inputs": [
        {
          "indexed": true,
          "internalType": "address",
          "name": "previousOperator",
          "type": "address"
        },
        {
          "indexed": true,
          "internalType": "address",
          "name": "newOperator",
          "type": "address"
        }
      ],
      "name": "OperatorTransferred",
      "type": "event"
    },
    {
      "anonymous": false,
      "inputs": [
        {
          "indexed": true,
          "internalType": "address",
          "name": "previousOwner",
          "type": "address"
        },
        {
          "indexed": true,
          "internalType": "address",
          "name": "newOwner",
          "type": "address"
        }
      ],
      "name": "OwnershipTransferred",
      "type": "event"
    },
    {
      "anonymous": false,
      "inputs": [
        {
          "indexed": false,
          "internalType": "uint256",
          "name": "price0CumulativeLast",
          "type": "uint256"
        },
        {
          "indexed": false,
          "internalType": "uint256",
          "name": "price1CumulativeLast",
          "type": "uint256"
        }
      ],
      "name": "Updated",
      "type": "event"
    },
    {
      "inputs": [],
      "name": "blockTimestampLast",
      "outputs": [
        {
          "internalType": "uint32",
          "name": "",
          "type": "uint32"
        }
      ],
      "stateMutability": "view",
      "type": "function"
    },
    {
      "inputs": [
        {
          "internalType": "address",
          "name": "_token",
          "type": "address"
        },
        {
          "internalType": "uint256",
          "name": "_amountIn",
          "type": "uint256"
        }
      ],
      "name": "consult",
      "outputs": [
        {
          "internalType": "uint144",
          "name": "amountOut",
          "type": "uint144"
        }
      ],
      "stateMutability": "view",
      "type": "function"
    },
    {
      "inputs": [],
      "name": "getCurrentEpoch",
      "outputs": [
        {
          "internalType": "uint256",
          "name": "",
          "type": "uint256"
        }
      ],
      "stateMutability": "view",
      "type": "function"
    },
    {
      "inputs": [],
      "name": "getLastEpochTime",
      "outputs": [
        {
          "internalType": "uint256",
          "name": "",
          "type": "uint256"
        }
      ],
      "stateMutability": "view",
      "type": "function"
    },
    {
      "inputs": [],
      "name": "getPeriod",
      "outputs": [
        {
          "internalType": "uint256",
          "name": "",
          "type": "uint256"
        }
      ],
      "stateMutability": "view",
      "type": "function"
    },
    {
      "inputs": [],
      "name": "getStartTime",
      "outputs": [
        {
          "internalType": "uint256",
          "name": "",
          "type": "uint256"
        }
      ],
      "stateMutability": "view",
      "type": "function"
    },
    {
      "inputs": [],
      "name": "isOperator",
      "outputs": [
        {
          "internalType": "bool",
          "name": "",
          "type": "bool"
        }
      ],
      "stateMutability": "view",
      "type": "function"
    },
    {
      "inputs": [],
      "name": "nextEpochPoint",
      "outputs": [
        {
          "internalType": "uint256",
          "name": "",
          "type": "uint256"
        }
      ],
      "stateMutability": "view",
      "type": "function"
    },
    {
      "inputs": [],
      "name": "operator",
      "outputs": [
        {
          "internalType": "address",
          "name": "",
          "type": "address"
        }
      ],
      "stateMutability": "view",
      "type": "function"
    },
    {
      "inputs": [],
      "name": "owner",
      "outputs": [
        {
          "internalType": "address",
          "name": "",
          "type": "address"
        }
      ],
      "stateMutability": "view",
      "type": "function"
    },
    {
      "inputs": [],
      "name": "pair",
      "outputs": [
        {
          "internalType": "contract IUniswapV2Pair",
          "name": "",
          "type": "address"
        }
      ],
      "stateMutability": "view",
      "type": "function"
    },
    {
      "inputs": [],
      "name": "price0Average",
      "outputs": [
        {
          "internalType": "uint224",
          "name": "_x",
          "type": "uint224"
        }
      ],
      "stateMutability": "view",
      "type": "function"
    },
    {
      "inputs": [],
      "name": "price0CumulativeLast",
      "outputs": [
        {
          "internalType": "uint256",
          "name": "",
          "type": "uint256"
        }
      ],
      "stateMutability": "view",
      "type": "function"
    },
    {
      "inputs": [],
      "name": "price1Average",
      "outputs": [
        {
          "internalType": "uint224",
          "name": "_x",
          "type": "uint224"
        }
      ],
      "stateMutability": "view",
      "type": "function"
    },
    {
      "inputs": [],
      "name": "price1CumulativeLast",
      "outputs": [
        {
          "internalType": "uint256",
          "name": "",
          "type": "uint256"
        }
      ],
      "stateMutability": "view",
      "type": "function"
    },
    {
      "inputs": [],
      "name": "renounceOwnership",
      "outputs": [],
      "stateMutability": "nonpayable",
      "type": "function"
    },
    {
      "inputs": [
        {
          "internalType": "uint256",
          "name": "_epoch",
          "type": "uint256"
        }
      ],
      "name": "setEpoch",
      "outputs": [],
      "stateMutability": "nonpayable",
      "type": "function"
    },
    {
      "inputs": [
        {
          "internalType": "uint256",
          "name": "_period",
          "type": "uint256"
        }
      ],
      "name": "setPeriod",
      "outputs": [],
      "stateMutability": "nonpayable",
      "type": "function"
    },
    {
      "inputs": [],
      "name": "token0",
      "outputs": [
        {
          "internalType": "address",
          "name": "",
          "type": "address"
        }
      ],
      "stateMutability": "view",
      "type": "function"
    },
    {
      "inputs": [],
      "name": "token1",
      "outputs": [
        {
          "internalType": "address",
          "name": "",
          "type": "address"
        }
      ],
      "stateMutability": "view",
      "type": "function"
    },
    {
      "inputs": [
        {
          "internalType": "address",
          "name": "newOperator_",
          "type": "address"
        }
      ],
      "name": "transferOperator",
      "outputs": [],
      "stateMutability": "nonpayable",
      "type": "function"
    },
    {
      "inputs": [
        {
          "internalType": "address",
          "name": "newOwner",
          "type": "address"
        }
      ],
      "name": "transferOwnership",
      "outputs": [],
      "stateMutability": "nonpayable",
      "type": "function"
    },
    {
      "inputs": [
        {
          "internalType": "address",
          "name": "_token",
          "type": "address"
        },
        {
          "internalType": "uint256",
          "name": "_amountIn",
          "type": "uint256"
        }
      ],
      "name": "twap",
      "outputs": [
        {
          "internalType": "uint144",
          "name": "_amountOut",
          "type": "uint144"
        }
      ],
      "stateMutability": "view",
      "type": "function"
    },
    {
      "inputs": [],
      "name": "update",
      "outputs": [],
      "stateMutability": "nonpayable",
      "type": "function"
    }
  ],
  "bytecode": "0x60806040523480156200001157600080fd5b506040516200175a3803806200175a8339810160408190526200003491620004bf565b8181600062000043336200041d565b600180546001600160a01b031916339081179091556040516000907f74da04524d50c64947f5dd5381ef1a4dca5cba8ed1d816243f9e48aa0b5617ed908290a3600283905560038290556005819055620000aa82846200046d602090811b62000a5a17901c565b6004908155600880546001600160a01b0319166001600160a01b03891690811790915560408051630dfe168160e01b81529051919550630dfe16819450808301935060209290829003018186803b1580156200010557600080fd5b505afa1580156200011a573d6000803e3d6000fd5b505050506040513d601f19601f820116820180604052508101906200014091906200049f565b600680546001600160a01b0319166001600160a01b039283161790556008546040805163d21220a760e01b81529051919092169163d21220a7916004808301926020929190829003018186803b1580156200019a57600080fd5b505afa158015620001af573d6000803e3d6000fd5b505050506040513d601f19601f82011682018060405250810190620001d591906200049f565b600780546001600160a01b0319166001600160a01b0392831617905560085460408051635909c0d560e01b815290519190921691635909c0d5916004808301926020929190829003018186803b1580156200022f57600080fd5b505afa15801562000244573d6000803e3d6000fd5b505050506040513d601f19601f820116820180604052508101906200026a91906200054f565b60095560085460408051635a3d549360e01b815290516001600160a01b0390921691635a3d549391600480820192602092909190829003018186803b158015620002b357600080fd5b505afa158015620002c8573d6000803e3d6000fd5b505050506040513d601f19601f82011682018060405250810190620002ee91906200054f565b600a5560085460408051630240bc6b60e21b8152905160009283926001600160a01b0390911691630902f1ac91600480820192606092909190829003018186803b1580156200033c57600080fd5b505afa15801562000351573d6000803e3d6000fd5b505050506040513d601f19601f82011682018060405250810190620003779190620004f9565b6008805463ffffffff909216600160a01b0263ffffffff60a01b1990921691909117905590925090506001600160701b03821615801590620003c157506001600160701b03811615155b620004125760405162461bcd60e51b815260206004820152601360248201527f4f7261636c653a204e4f5f524553455256455300000000000000000000000000604482015260640160405180910390fd5b5050505050620005a8565b600080546001600160a01b038381166001600160a01b0319831681178455604051919092169283917f8be0079c531659141344cd1fd0a4f28419497f9722a3daafe3b4186f6b6457e09190a35050565b60006200047b828462000569565b9392505050565b80516001600160701b03811681146200049a57600080fd5b919050565b600060208284031215620004b257600080fd5b81516200047b816200058f565b600080600060608486031215620004d557600080fd5b8351620004e2816200058f565b602085015160409095015190969495509392505050565b6000806000606084860312156200050f57600080fd5b6200051a8462000482565b92506200052a6020850162000482565b9150604084015163ffffffff811681146200054457600080fd5b809150509250925092565b6000602082840312156200056257600080fd5b5051919050565b6000828210156200058a57634e487b7160e01b600052601160045260246000fd5b500390565b6001600160a01b0381168114620005a557600080fd5b50565b6111a280620005b86000396000f3fe608060405234801561001057600080fd5b50600436106101585760003560e01c8063715018a6116100c3578063ba5224581161007c578063ba522458146102de578063c5700a02146102e6578063c5967c2614610312578063c828371e1461031a578063d21220a714610322578063f2fde38b1461033557600080fd5b8063715018a61461028f5780638da5cb5b14610297578063a2e62045146102a8578063a6bb4539146102b0578063a8aa1b31146102c3578063b97dd9e2146102d657600080fd5b80634456eda2116101155780634456eda214610210578063570ca7351461022e5780635909c0d51461023f5780635a3d5493146102485780635e6aaf2c146102515780636808a1281461027c57600080fd5b80630ceb2cef1461015d5780630dfe1681146101725780630f3a9f65146101a25780631ed24195146101b557806329605e77146101c75780633ddac953146101da575b600080fd5b61017061016b366004610fb9565b610348565b005b600654610185906001600160a01b031681565b6040516001600160a01b0390911681526020015b60405180910390f35b6101706101b0366004610fb9565b610380565b6002545b604051908152602001610199565b6101706101d5366004610f24565b610408565b6101ed6101e8366004610f3f565b61043e565b60405171ffffffffffffffffffffffffffffffffffff9091168152602001610199565b6001546001600160a01b031633146040519015158152602001610199565b6001546001600160a01b0316610185565b6101b960095481565b6101b9600a5481565b600c54610264906001600160e01b031681565b6040516001600160e01b039091168152602001610199565b6101ed61028a366004610f3f565b610511565b610170610600565b6000546001600160a01b0316610185565b610170610636565b600b54610264906001600160e01b031681565b600854610185906001600160a01b031681565b6005546101b9565b6004546101b9565b6008546102fd90600160a01b900463ffffffff1681565b60405163ffffffff9091168152602001610199565b6101b96109a4565b6003546101b9565b600754610185906001600160a01b031681565b610170610343366004610f24565b6109c2565b6001546001600160a01b0316331461037b5760405162461bcd60e51b815260040161037290611020565b60405180910390fd5b600555565b6001546001600160a01b031633146103aa5760405162461bcd60e51b815260040161037290611020565b610e1081101580156103bf57506202a3008111155b6104035760405162461bcd60e51b81526020600482015260156024820152745f706572696f643a206f7574206f662072616e676560581b6044820152606401610372565b600255565b6000546001600160a01b031633146104325760405162461bcd60e51b815260040161037290610feb565b61043b81610a66565b50565b6006546000906001600160a01b038481169116141561048c576040805160208101909152600b546001600160e01b031681526104859061047e9084610b2a565b5160701c90565b905061050b565b6007546001600160a01b038481169116146104e15760405162461bcd60e51b815260206004820152601560248201527427b930b1b6329d1024a72b20a624a22faa27a5a2a760591b6044820152606401610372565b6040805160208101909152600c546001600160e01b031681526105089061047e9084610b2a565b90505b92915050565b60085460009081908190819061052f906001600160a01b0316610bd4565b600854929550909350915060009061055490600160a01b900463ffffffff16836110ec565b6006549091506001600160a01b03888116911614156105b6576105af61047e8760405180602001604052808563ffffffff166009548a61059491906110d5565b61059e91906110a2565b6001600160e01b0316905290610b2a565b94506105f6565b6007546001600160a01b03888116911614156105f6576105f361047e8760405180602001604052808563ffffffff16600a548961059491906110d5565b94505b5050505092915050565b6000546001600160a01b0316331461062a5760405162461bcd60e51b815260040161037290610feb565b6106346000610dd4565b565b60006106406109a4565b905080421015610814576001546001600160a01b031633146106b75760405162461bcd60e51b815260206004820152602a60248201527f45706f63683a206f6e6c79206f70657261746f7220616c6c6f77656420666f72604482015269040e0e4ca5acae0dec6d60b31b6064820152608401610372565b600854600090819081906106d3906001600160a01b0316610bd4565b60085492955090935091506000906106f890600160a01b900463ffffffff16836110ec565b905063ffffffff811661070c575050505050565b60405180602001604052808263ffffffff166009548761072c91906110d5565b61073691906110a2565b6001600160e01b039081169091529051600b80546001600160e01b031916919092161790556040805160208101909152600a54819063ffffffff84169061077d90876110d5565b61078791906110a2565b6001600160e01b039081169091529051600c80546001600160e01b031916919092161790556009849055600a8390556008805463ffffffff60a01b1916600160a01b63ffffffff85160217905560408051858152602081018590527fd78a0cb8bb633d06981248b816e7bd33c2a35a6089241d099fa519e361cab902910160405180910390a15050505050565b60085460009081908190610830906001600160a01b0316610bd4565b600854929550909350915060009061085590600160a01b900463ffffffff16836110ec565b905063ffffffff811661086b5750505050610971565b60405180602001604052808263ffffffff166009548761088b91906110d5565b61089591906110a2565b6001600160e01b039081169091529051600b80546001600160e01b031916919092161790556040805160208101909152600a54819063ffffffff8416906108dc90876110d5565b6108e691906110a2565b6001600160e01b039081169091529051600c80546001600160e01b031916919092161790556009849055600a8390556008805463ffffffff60a01b1916600160a01b63ffffffff85160217905560408051858152602081018590527fd78a0cb8bb633d06981248b816e7bd33c2a35a6089241d099fa519e361cab902910160405180910390a1505050505b60048190556005805460009061098690611111565b909155506109926109a4565b90508042101561099f5750565b610971565b60006109bd600254600454610e2490919063ffffffff16565b905090565b6000546001600160a01b031633146109ec5760405162461bcd60e51b815260040161037290610feb565b6001600160a01b038116610a515760405162461bcd60e51b815260206004820152602660248201527f4f776e61626c653a206e6577206f776e657220697320746865207a65726f206160448201526564647265737360d01b6064820152608401610372565b61043b81610dd4565b600061050882846110d5565b6001600160a01b038116610ad25760405162461bcd60e51b815260206004820152602d60248201527f6f70657261746f723a207a65726f206164647265737320676976656e20666f7260448201526c103732bb9037b832b930ba37b960991b6064820152608401610372565b6040516001600160a01b038216906000907f74da04524d50c64947f5dd5381ef1a4dca5cba8ed1d816243f9e48aa0b5617ed908290a3600180546001600160a01b0319166001600160a01b0392909216919091179055565b6040805160208101909152600081526000821580610b67575083516001600160e01b031683610b5981836110b6565b9250610b6590836110a2565b145b610bbf5760405162461bcd60e51b815260206004820152602360248201527f4669786564506f696e743a204d554c5449504c49434154494f4e5f4f564552466044820152624c4f5760e81b6064820152608401610372565b60408051602081019091529081529392505050565b6000806000610be1610e30565b9050836001600160a01b0316635909c0d56040518163ffffffff1660e01b815260040160206040518083038186803b158015610c1c57600080fd5b505afa158015610c30573d6000803e3d6000fd5b505050506040513d601f19601f82011682018060405250810190610c549190610fd2565b9250836001600160a01b0316635a3d54936040518163ffffffff1660e01b815260040160206040518083038186803b158015610c8f57600080fd5b505afa158015610ca3573d6000803e3d6000fd5b505050506040513d601f19601f82011682018060405250810190610cc79190610fd2565b91506000806000866001600160a01b0316630902f1ac6040518163ffffffff1660e01b815260040160606040518083038186803b158015610d0757600080fd5b505afa158015610d1b573d6000803e3d6000fd5b505050506040513d601f19601f82011682018060405250810190610d3f9190610f69565b9250925092508363ffffffff168163ffffffff1614610dca576000610d6482866110ec565b90508063ffffffff16610d778486610e41565b51610d8b91906001600160e01b03166110b6565b610d959088611064565b96508063ffffffff16610da88585610e41565b51610dbc91906001600160e01b03166110b6565b610dc69087611064565b9550505b5050509193909250565b600080546001600160a01b038381166001600160a01b0319831681178455604051919092169283917f8be0079c531659141344cd1fd0a4f28419497f9722a3daafe3b4186f6b6457e09190a35050565b60006105088284611064565b60006109bd6401000000004261112c565b6040805160208101909152600081526000826001600160701b031611610ea95760405162461bcd60e51b815260206004820152601760248201527f4669786564506f696e743a204449565f42595f5a45524f0000000000000000006044820152606401610372565b604080516020810190915280610edf6001600160701b0385166dffffffffffffffffffffffffffff60701b607088901b1661107c565b6001600160e01b031690529392505050565b80356001600160a01b0381168114610f0857600080fd5b919050565b80516001600160701b0381168114610f0857600080fd5b600060208284031215610f3657600080fd5b61050882610ef1565b60008060408385031215610f5257600080fd5b610f5b83610ef1565b946020939093013593505050565b600080600060608486031215610f7e57600080fd5b610f8784610f0d565b9250610f9560208501610f0d565b9150604084015163ffffffff81168114610fae57600080fd5b809150509250925092565b600060208284031215610fcb57600080fd5b5035919050565b600060208284031215610fe457600080fd5b5051919050565b6020808252818101527f4f776e61626c653a2063616c6c6572206973206e6f7420746865206f776e6572604082015260600190565b60208082526024908201527f6f70657261746f723a2063616c6c6572206973206e6f7420746865206f70657260408201526330ba37b960e11b606082015260800190565b6000821982111561107757611077611140565b500190565b60006001600160e01b038381168061109657611096611156565b92169190910492915050565b6000826110b1576110b1611156565b500490565b60008160001904831182151516156110d0576110d0611140565b500290565b6000828210156110e7576110e7611140565b500390565b600063ffffffff8381169083168181101561110957611109611140565b039392505050565b600060001982141561112557611125611140565b5060010190565b60008261113b5761113b611156565b500690565b634e487b7160e01b600052601160045260246000fd5b634e487b7160e01b600052601260045260246000fdfea26469706673582212201ed4a888e539a839c6978608ae317218be3901926c27d774eb6c0338d18639fc64736f6c63430008070033",
  "linkReferences": {},
  "deployedLinkReferences": {}
}