{
  "_format": "hh-sol-artifact-1",
  "contractName": "DummyToken",
  "sourceName": "contracts/DummyToken.sol",
  "abi": [
    {
      "inputs": [],
      "stateMutability": "nonpayable",
      "type": "constructor"
    },
    {
      "anonymous": false,
      "inputs": [
        {
          "indexed": true,
          "internalType": "address",
          "name": "owner",
          "type": "address"
        },
        {
          "indexed": true,
          "internalType": "address",
          "name": "spender",
          "type": "address"
        },
        {
          "indexed": false,
          "internalType": "uint256",
          "name": "value",
          "type": "uint256"
        }
      ],
      "name": "Approval",
      "type": "event"
    },
    {
      "anonymous": false,
      "inputs": [
        {
          "indexed": true,
          "internalType": "address",
          "name": "previousOperator",
          "type": "address"
        },
        {
          "indexed": true,
          "internalType": "address",
          "name": "newOperator",
          "type": "address"
        }
      ],
      "name": "OperatorTransferred",
      "type": "event"
    },
    {
      "anonymous": false,
      "inputs": [
        {
          "indexed": true,
          "internalType": "address",
          "name": "previousOwner",
          "type": "address"
        },
        {
          "indexed": true,
          "internalType": "address",
          "name": "newOwner",
          "type": "address"
        }
      ],
      "name": "OwnershipTransferred",
      "type": "event"
    },
    {
      "anonymous": false,
      "inputs": [
        {
          "indexed": true,
          "internalType": "address",
          "name": "from",
          "type": "address"
        },
        {
          "indexed": true,
          "internalType": "address",
          "name": "to",
          "type": "address"
        },
        {
          "indexed": false,
          "internalType": "uint256",
          "name": "value",
          "type": "uint256"
        }
      ],
      "name": "Transfer",
      "type": "event"
    },
    {
      "inputs": [
        {
          "internalType": "address",
          "name": "owner",
          "type": "address"
        },
        {
          "internalType": "address",
          "name": "spender",
          "type": "address"
        }
      ],
      "name": "allowance",
      "outputs": [
        {
          "internalType": "uint256",
          "name": "",
          "type": "uint256"
        }
      ],
      "stateMutability": "view",
      "type": "function"
    },
    {
      "inputs": [
        {
          "internalType": "address",
          "name": "spender",
          "type": "address"
        },
        {
          "internalType": "uint256",
          "name": "amount",
          "type": "uint256"
        }
      ],
      "name": "approve",
      "outputs": [
        {
          "internalType": "bool",
          "name": "",
          "type": "bool"
        }
      ],
      "stateMutability": "nonpayable",
      "type": "function"
    },
    {
      "inputs": [
        {
          "internalType": "address",
          "name": "account",
          "type": "address"
        }
      ],
      "name": "balanceOf",
      "outputs": [
        {
          "internalType": "uint256",
          "name": "",
          "type": "uint256"
        }
      ],
      "stateMutability": "view",
      "type": "function"
    },
    {
      "inputs": [
        {
          "internalType": "uint256",
          "name": "amount",
          "type": "uint256"
        }
      ],
      "name": "burn",
      "outputs": [],
      "stateMutability": "nonpayable",
      "type": "function"
    },
    {
      "inputs": [
        {
          "internalType": "address",
          "name": "account",
          "type": "address"
        },
        {
          "internalType": "uint256",
          "name": "amount",
          "type": "uint256"
        }
      ],
      "name": "burnFrom",
      "outputs": [],
      "stateMutability": "nonpayable",
      "type": "function"
    },
    {
      "inputs": [],
      "name": "decimals",
      "outputs": [
        {
          "internalType": "uint8",
          "name": "",
          "type": "uint8"
        }
      ],
      "stateMutability": "view",
      "type": "function"
    },
    {
      "inputs": [
        {
          "internalType": "address",
          "name": "spender",
          "type": "address"
        },
        {
          "internalType": "uint256",
          "name": "subtractedValue",
          "type": "uint256"
        }
      ],
      "name": "decreaseAllowance",
      "outputs": [
        {
          "internalType": "bool",
          "name": "",
          "type": "bool"
        }
      ],
      "stateMutability": "nonpayable",
      "type": "function"
    },
    {
      "inputs": [
        {
          "internalType": "address",
          "name": "spender",
          "type": "address"
        },
        {
          "internalType": "uint256",
          "name": "addedValue",
          "type": "uint256"
        }
      ],
      "name": "increaseAllowance",
      "outputs": [
        {
          "internalType": "bool",
          "name": "",
          "type": "bool"
        }
      ],
      "stateMutability": "nonpayable",
      "type": "function"
    },
    {
      "inputs": [],
      "name": "isOperator",
      "outputs": [
        {
          "internalType": "bool",
          "name": "",
          "type": "bool"
        }
      ],
      "stateMutability": "view",
      "type": "function"
    },
    {
      "inputs": [
        {
          "internalType": "address",
          "name": "recipient_",
          "type": "address"
        },
        {
          "internalType": "uint256",
          "name": "amount_",
          "type": "uint256"
        }
      ],
      "name": "mint",
      "outputs": [
        {
          "internalType": "bool",
          "name": "",
          "type": "bool"
        }
      ],
      "stateMutability": "nonpayable",
      "type": "function"
    },
    {
      "inputs": [],
      "name": "name",
      "outputs": [
        {
          "internalType": "string",
          "name": "",
          "type": "string"
        }
      ],
      "stateMutability": "view",
      "type": "function"
    },
    {
      "inputs": [],
      "name": "operator",
      "outputs": [
        {
          "internalType": "address",
          "name": "",
          "type": "address"
        }
      ],
      "stateMutability": "view",
      "type": "function"
    },
    {
      "inputs": [],
      "name": "owner",
      "outputs": [
        {
          "internalType": "address",
          "name": "",
          "type": "address"
        }
      ],
      "stateMutability": "view",
      "type": "function"
    },
    {
      "inputs": [],
      "name": "renounceOwnership",
      "outputs": [],
      "stateMutability": "nonpayable",
      "type": "function"
    },
    {
      "inputs": [],
      "name": "symbol",
      "outputs": [
        {
          "internalType": "string",
          "name": "",
          "type": "string"
        }
      ],
      "stateMutability": "view",
      "type": "function"
    },
    {
      "inputs": [],
      "name": "totalSupply",
      "outputs": [
        {
          "internalType": "uint256",
          "name": "",
          "type": "uint256"
        }
      ],
      "stateMutability": "view",
      "type": "function"
    },
    {
      "inputs": [
        {
          "internalType": "address",
          "name": "recipient",
          "type": "address"
        },
        {
          "internalType": "uint256",
          "name": "amount",
          "type": "uint256"
        }
      ],
      "name": "transfer",
      "outputs": [
        {
          "internalType": "bool",
          "name": "",
          "type": "bool"
        }
      ],
      "stateMutability": "nonpayable",
      "type": "function"
    },
    {
      "inputs": [
        {
          "internalType": "address",
          "name": "sender",
          "type": "address"
        },
        {
          "internalType": "address",
          "name": "recipient",
          "type": "address"
        },
        {
          "internalType": "uint256",
          "name": "amount",
          "type": "uint256"
        }
      ],
      "name": "transferFrom",
      "outputs": [
        {
          "internalType": "bool",
          "name": "",
          "type": "bool"
        }
      ],
      "stateMutability": "nonpayable",
      "type": "function"
    },
    {
      "inputs": [
        {
          "internalType": "address",
          "name": "newOperator_",
          "type": "address"
        }
      ],
      "name": "transferOperator",
      "outputs": [],
      "stateMutability": "nonpayable",
      "type": "function"
    },
    {
      "inputs": [
        {
          "internalType": "address",
          "name": "newOwner",
          "type": "address"
        }
      ],
      "name": "transferOwnership",
      "outputs": [],
      "stateMutability": "nonpayable",
      "type": "function"
    }
  ],
  "bytecode": "0x60806040523480156200001157600080fd5b50604080518082018252600a815269223ab6b6bcaa37b5b2b760b11b60208083019182528351808501909452600584526444554d4d5960d81b908401528151919291620000619160039162000130565b5080516200007790600490602084019062000130565b505050620000946200008e620000da60201b60201c565b620000de565b600680546001600160a01b031916339081179091556040516000907f74da04524d50c64947f5dd5381ef1a4dca5cba8ed1d816243f9e48aa0b5617ed908290a362000213565b3390565b600580546001600160a01b038381166001600160a01b0319831681179093556040519116919082907f8be0079c531659141344cd1fd0a4f28419497f9722a3daafe3b4186f6b6457e090600090a35050565b8280546200013e90620001d6565b90600052602060002090601f016020900481019282620001625760008555620001ad565b82601f106200017d57805160ff1916838001178555620001ad565b82800160010185558215620001ad579182015b82811115620001ad57825182559160200191906001019062000190565b50620001bb929150620001bf565b5090565b5b80821115620001bb5760008155600101620001c0565b600181811c90821680620001eb57607f821691505b602082108114156200020d57634e487b7160e01b600052602260045260246000fd5b50919050565b61104180620002236000396000f3fe608060405234801561001057600080fd5b506004361061012c5760003560e01c8063570ca735116100ad57806395d89b411161007157806395d89b4114610281578063a457c2d714610289578063a9059cbb1461029c578063dd62ed3e146102af578063f2fde38b146102e857600080fd5b8063570ca7351461020757806370a082311461022c578063715018a61461025557806379cc67901461025d5780638da5cb5b1461027057600080fd5b8063313ce567116100f4578063313ce567146101ac57806339509351146101bb57806340c10f19146101ce57806342966c68146101e15780634456eda2146101f457600080fd5b806306fdde0314610131578063095ea7b31461014f57806318160ddd1461017257806323b872dd1461018457806329605e7714610197575b600080fd5b6101396102fb565b6040516101469190610ebd565b60405180910390f35b61016261015d366004610e7a565b61038d565b6040519015158152602001610146565b6002545b604051908152602001610146565b610162610192366004610e3e565b6103a3565b6101aa6101a5366004610de9565b610452565b005b60405160128152602001610146565b6101626101c9366004610e7a565b610488565b6101626101dc366004610e7a565b6104c4565b6101aa6101ef366004610ea4565b610543565b6006546001600160a01b03163314610162565b6006546001600160a01b03165b6040516001600160a01b039091168152602001610146565b61017661023a366004610de9565b6001600160a01b031660009081526020819052604090205490565b6101aa61054c565b6101aa61026b366004610e7a565b610582565b6005546001600160a01b0316610214565b6101396105ba565b610162610297366004610e7a565b6105c9565b6101626102aa366004610e7a565b610662565b6101766102bd366004610e0b565b6001600160a01b03918216600090815260016020908152604080832093909416825291909152205490565b6101aa6102f6366004610de9565b61066f565b60606003805461030a90610fba565b80601f016020809104026020016040519081016040528092919081815260200182805461033690610fba565b80156103835780601f1061035857610100808354040283529160200191610383565b820191906000526020600020905b81548152906001019060200180831161036657829003601f168201915b5050505050905090565b600061039a338484610707565b50600192915050565b60006103b084848461082b565b6001600160a01b03841660009081526001602090815260408083203384529091529020548281101561043a5760405162461bcd60e51b815260206004820152602860248201527f45524332303a207472616e7366657220616d6f756e74206578636565647320616044820152676c6c6f77616e636560c01b60648201526084015b60405180910390fd5b6104478533858403610707565b506001949350505050565b6005546001600160a01b0316331461047c5760405162461bcd60e51b815260040161043190610f12565b610485816109fa565b50565b3360008181526001602090815260408083206001600160a01b0387168452909152812054909161039a9185906104bf908690610f8b565b610707565b6006546000906001600160a01b031633146104f15760405162461bcd60e51b815260040161043190610f47565b6001600160a01b0383166000908152602081905260409020546105148484610abe565b61051e8484610b9d565b6001600160a01b03841660009081526020819052604081205491909111949350505050565b61048581610c23565b6005546001600160a01b031633146105765760405162461bcd60e51b815260040161043190610f12565b6105806000610c2d565b565b6006546001600160a01b031633146105ac5760405162461bcd60e51b815260040161043190610f47565b6105b68282610b9d565b5050565b60606004805461030a90610fba565b3360009081526001602090815260408083206001600160a01b03861684529091528120548281101561064b5760405162461bcd60e51b815260206004820152602560248201527f45524332303a2064656372656173656420616c6c6f77616e63652062656c6f77604482015264207a65726f60d81b6064820152608401610431565b6106583385858403610707565b5060019392505050565b600061039a33848461082b565b6005546001600160a01b031633146106995760405162461bcd60e51b815260040161043190610f12565b6001600160a01b0381166106fe5760405162461bcd60e51b815260206004820152602660248201527f4f776e61626c653a206e6577206f776e657220697320746865207a65726f206160448201526564647265737360d01b6064820152608401610431565b61048581610c2d565b6001600160a01b0383166107695760405162461bcd60e51b8152602060048201526024808201527f45524332303a20617070726f76652066726f6d20746865207a65726f206164646044820152637265737360e01b6064820152608401610431565b6001600160a01b0382166107ca5760405162461bcd60e51b815260206004820152602260248201527f45524332303a20617070726f766520746f20746865207a65726f206164647265604482015261737360f01b6064820152608401610431565b6001600160a01b0383811660008181526001602090815260408083209487168084529482529182902085905590518481527f8c5be1e5ebec7d5bd14f71427d1e84f3dd0314c0f7b2291e5b200ac8c7c3b925910160405180910390a3505050565b6001600160a01b03831661088f5760405162461bcd60e51b815260206004820152602560248201527f45524332303a207472616e736665722066726f6d20746865207a65726f206164604482015264647265737360d81b6064820152608401610431565b6001600160a01b0382166108f15760405162461bcd60e51b815260206004820152602360248201527f45524332303a207472616e7366657220746f20746865207a65726f206164647260448201526265737360e81b6064820152608401610431565b6001600160a01b038316600090815260208190526040902054818110156109695760405162461bcd60e51b815260206004820152602660248201527f45524332303a207472616e7366657220616d6f756e7420657863656564732062604482015265616c616e636560d01b6064820152608401610431565b6001600160a01b038085166000908152602081905260408082208585039055918516815290812080548492906109a0908490610f8b565b92505081905550826001600160a01b0316846001600160a01b03167fddf252ad1be2c89b69c2b068fc378daa952ba7f163c4a11628f55a4df523b3ef846040516109ec91815260200190565b60405180910390a350505050565b6001600160a01b038116610a665760405162461bcd60e51b815260206004820152602d60248201527f6f70657261746f723a207a65726f206164647265737320676976656e20666f7260448201526c103732bb9037b832b930ba37b960991b6064820152608401610431565b6040516001600160a01b038216906000907f74da04524d50c64947f5dd5381ef1a4dca5cba8ed1d816243f9e48aa0b5617ed908290a3600680546001600160a01b0319166001600160a01b0392909216919091179055565b6001600160a01b038216610b145760405162461bcd60e51b815260206004820152601f60248201527f45524332303a206d696e7420746f20746865207a65726f2061646472657373006044820152606401610431565b8060026000828254610b269190610f8b565b90915550506001600160a01b03821660009081526020819052604081208054839290610b53908490610f8b565b90915550506040518181526001600160a01b038316906000907fddf252ad1be2c89b69c2b068fc378daa952ba7f163c4a11628f55a4df523b3ef9060200160405180910390a35050565b6000610ba983336102bd565b905081811015610c075760405162461bcd60e51b8152602060048201526024808201527f45524332303a206275726e20616d6f756e74206578636565647320616c6c6f77604482015263616e636560e01b6064820152608401610431565b610c148333848403610707565b610c1e8383610c7f565b505050565b6104853382610c7f565b600580546001600160a01b038381166001600160a01b0319831681179093556040519116919082907f8be0079c531659141344cd1fd0a4f28419497f9722a3daafe3b4186f6b6457e090600090a35050565b6001600160a01b038216610cdf5760405162461bcd60e51b815260206004820152602160248201527f45524332303a206275726e2066726f6d20746865207a65726f206164647265736044820152607360f81b6064820152608401610431565b6001600160a01b03821660009081526020819052604090205481811015610d535760405162461bcd60e51b815260206004820152602260248201527f45524332303a206275726e20616d6f756e7420657863656564732062616c616e604482015261636560f01b6064820152608401610431565b6001600160a01b0383166000908152602081905260408120838303905560028054849290610d82908490610fa3565b90915550506040518281526000906001600160a01b038516907fddf252ad1be2c89b69c2b068fc378daa952ba7f163c4a11628f55a4df523b3ef9060200160405180910390a3505050565b80356001600160a01b0381168114610de457600080fd5b919050565b600060208284031215610dfb57600080fd5b610e0482610dcd565b9392505050565b60008060408385031215610e1e57600080fd5b610e2783610dcd565b9150610e3560208401610dcd565b90509250929050565b600080600060608486031215610e5357600080fd5b610e5c84610dcd565b9250610e6a60208501610dcd565b9150604084013590509250925092565b60008060408385031215610e8d57600080fd5b610e9683610dcd565b946020939093013593505050565b600060208284031215610eb657600080fd5b5035919050565b600060208083528351808285015260005b81811015610eea57858101830151858201604001528201610ece565b81811115610efc576000604083870101525b50601f01601f1916929092016040019392505050565b6020808252818101527f4f776e61626c653a2063616c6c6572206973206e6f7420746865206f776e6572604082015260600190565b60208082526024908201527f6f70657261746f723a2063616c6c6572206973206e6f7420746865206f70657260408201526330ba37b960e11b606082015260800190565b60008219821115610f9e57610f9e610ff5565b500190565b600082821015610fb557610fb5610ff5565b500390565b600181811c90821680610fce57607f821691505b60208210811415610fef57634e487b7160e01b600052602260045260246000fd5b50919050565b634e487b7160e01b600052601160045260246000fdfea2646970667358221220aa6df3f44e677b5412426ce3cc5f5a93f797d265d3ea5296b10066d3cf45aff364736f6c63430008070033",
  "linkReferences": {},
  "deployedLinkReferences": {}
}