{
  "_format": "hh-sol-artifact-1",
  "contractName": "Treasury",
  "sourceName": "contracts/Treasury.sol",
  "abi": [
    {
      "anonymous": false,
      "inputs": [
        {
          "indexed": true,
          "internalType": "address",
          "name": "from",
          "type": "address"
        },
        {
          "indexed": false,
          "internalType": "uint256",
          "name": "mryAmount",
          "type": "uint256"
        },
        {
          "indexed": false,
          "internalType": "uint256",
          "name": "bondAmount",
          "type": "uint256"
        }
      ],
      "name": "BoughtBonds",
      "type": "event"
    },
    {
      "anonymous": false,
      "inputs": [
        {
          "indexed": true,
          "internalType": "address",
          "name": "from",
          "type": "address"
        },
        {
          "indexed": false,
          "internalType": "uint256",
          "name": "bondAmount",
          "type": "uint256"
        }
      ],
      "name": "BurnedBonds",
      "type": "event"
    },
    {
      "anonymous": false,
      "inputs": [
        {
          "indexed": false,
          "internalType": "uint256",
          "name": "timestamp",
          "type": "uint256"
        },
        {
          "indexed": false,
          "internalType": "uint256",
          "name": "seigniorage",
          "type": "uint256"
        }
      ],
      "name": "DaoFundFunded",
      "type": "event"
    },
    {
      "anonymous": false,
      "inputs": [
        {
          "indexed": false,
          "internalType": "uint256",
          "name": "timestamp",
          "type": "uint256"
        },
        {
          "indexed": false,
          "internalType": "uint256",
          "name": "seigniorage",
          "type": "uint256"
        }
      ],
      "name": "DevFundFunded",
      "type": "event"
    },
    {
      "anonymous": false,
      "inputs": [
        {
          "indexed": true,
          "internalType": "address",
          "name": "executor",
          "type": "address"
        },
        {
          "indexed": false,
          "internalType": "uint256",
          "name": "at",
          "type": "uint256"
        }
      ],
      "name": "Initialized",
      "type": "event"
    },
    {
      "anonymous": false,
      "inputs": [
        {
          "indexed": false,
          "internalType": "uint256",
          "name": "timestamp",
          "type": "uint256"
        },
        {
          "indexed": false,
          "internalType": "uint256",
          "name": "seigniorage",
          "type": "uint256"
        }
      ],
      "name": "MasonryFunded",
      "type": "event"
    },
    {
      "anonymous": false,
      "inputs": [
        {
          "indexed": true,
          "internalType": "address",
          "name": "from",
          "type": "address"
        },
        {
          "indexed": false,
          "internalType": "uint256",
          "name": "mryAmount",
          "type": "uint256"
        },
        {
          "indexed": false,
          "internalType": "uint256",
          "name": "bondAmount",
          "type": "uint256"
        }
      ],
      "name": "RedeemedBonds",
      "type": "event"
    },
    {
      "anonymous": false,
      "inputs": [
        {
          "indexed": false,
          "internalType": "uint256",
          "name": "timestamp",
          "type": "uint256"
        },
        {
          "indexed": false,
          "internalType": "uint256",
          "name": "seigniorage",
          "type": "uint256"
        }
      ],
      "name": "TreasuryFunded",
      "type": "event"
    },
    {
      "inputs": [],
      "name": "PERIOD",
      "outputs": [
        {
          "internalType": "uint256",
          "name": "",
          "type": "uint256"
        }
      ],
      "stateMutability": "view",
      "type": "function"
    },
    {
      "inputs": [],
      "name": "allocateSeigniorage",
      "outputs": [],
      "stateMutability": "nonpayable",
      "type": "function"
    },
    {
      "inputs": [],
      "name": "bondDepletionFloorPercent",
      "outputs": [
        {
          "internalType": "uint256",
          "name": "",
          "type": "uint256"
        }
      ],
      "stateMutability": "view",
      "type": "function"
    },
    {
      "inputs": [],
      "name": "bootstrapEpochs",
      "outputs": [
        {
          "internalType": "uint256",
          "name": "",
          "type": "uint256"
        }
      ],
      "stateMutability": "view",
      "type": "function"
    },
    {
      "inputs": [],
      "name": "bootstrapSupplyExpansionPercent",
      "outputs": [
        {
          "internalType": "uint256",
          "name": "",
          "type": "uint256"
        }
      ],
      "stateMutability": "view",
      "type": "function"
    },
    {
      "inputs": [
        {
          "internalType": "uint256",
          "name": "_mryAmount",
          "type": "uint256"
        },
        {
          "internalType": "uint256",
          "name": "targetPrice",
          "type": "uint256"
        }
      ],
      "name": "buyBonds",
      "outputs": [],
      "stateMutability": "nonpayable",
      "type": "function"
    },
    {
      "inputs": [],
      "name": "daoFund",
      "outputs": [
        {
          "internalType": "address",
          "name": "",
          "type": "address"
        }
      ],
      "stateMutability": "view",
      "type": "function"
    },
    {
      "inputs": [],
      "name": "daoFundSharedPercent",
      "outputs": [
        {
          "internalType": "uint256",
          "name": "",
          "type": "uint256"
        }
      ],
      "stateMutability": "view",
      "type": "function"
    },
    {
      "inputs": [],
      "name": "devFund",
      "outputs": [
        {
          "internalType": "address",
          "name": "",
          "type": "address"
        }
      ],
      "stateMutability": "view",
      "type": "function"
    },
    {
      "inputs": [],
      "name": "devFundSharedPercent",
      "outputs": [
        {
          "internalType": "uint256",
          "name": "",
          "type": "uint256"
        }
      ],
      "stateMutability": "view",
      "type": "function"
    },
    {
      "inputs": [],
      "name": "discountPercent",
      "outputs": [
        {
          "internalType": "uint256",
          "name": "",
          "type": "uint256"
        }
      ],
      "stateMutability": "view",
      "type": "function"
    },
    {
      "inputs": [],
      "name": "epoch",
      "outputs": [
        {
          "internalType": "uint256",
          "name": "",
          "type": "uint256"
        }
      ],
      "stateMutability": "view",
      "type": "function"
    },
    {
      "inputs": [],
      "name": "epochSupplyContractionLeft",
      "outputs": [
        {
          "internalType": "uint256",
          "name": "",
          "type": "uint256"
        }
      ],
      "stateMutability": "view",
      "type": "function"
    },
    {
      "inputs": [
        {
          "internalType": "uint256",
          "name": "",
          "type": "uint256"
        }
      ],
      "name": "excludedFromTotalSupply",
      "outputs": [
        {
          "internalType": "address",
          "name": "",
          "type": "address"
        }
      ],
      "stateMutability": "view",
      "type": "function"
    },
    {
      "inputs": [],
      "name": "getBondDiscountRate",
      "outputs": [
        {
          "internalType": "uint256",
          "name": "_rate",
          "type": "uint256"
        }
      ],
      "stateMutability": "view",
      "type": "function"
    },
    {
      "inputs": [],
      "name": "getBondPremiumRate",
      "outputs": [
        {
          "internalType": "uint256",
          "name": "_rate",
          "type": "uint256"
        }
      ],
      "stateMutability": "view",
      "type": "function"
    },
    {
      "inputs": [],
      "name": "getBurnableMryLeft",
      "outputs": [
        {
          "internalType": "uint256",
          "name": "_burnableMryLeft",
          "type": "uint256"
        }
      ],
      "stateMutability": "view",
      "type": "function"
    },
    {
      "inputs": [],
      "name": "getMryCirculatingSupply",
      "outputs": [
        {
          "internalType": "uint256",
          "name": "",
          "type": "uint256"
        }
      ],
      "stateMutability": "view",
      "type": "function"
    },
    {
      "inputs": [],
      "name": "getMryPrice",
      "outputs": [
        {
          "internalType": "uint256",
          "name": "mryPrice",
          "type": "uint256"
        }
      ],
      "stateMutability": "view",
      "type": "function"
    },
    {
      "inputs": [],
      "name": "getMryUpdatedPrice",
      "outputs": [
        {
          "internalType": "uint256",
          "name": "_mryPrice",
          "type": "uint256"
        }
      ],
      "stateMutability": "view",
      "type": "function"
    },
    {
      "inputs": [],
      "name": "getRedeemableBonds",
      "outputs": [
        {
          "internalType": "uint256",
          "name": "_redeemableBonds",
          "type": "uint256"
        }
      ],
      "stateMutability": "view",
      "type": "function"
    },
    {
      "inputs": [],
      "name": "getReserve",
      "outputs": [
        {
          "internalType": "uint256",
          "name": "",
          "type": "uint256"
        }
      ],
      "stateMutability": "view",
      "type": "function"
    },
    {
      "inputs": [
        {
          "internalType": "contract IERC20",
          "name": "_token",
          "type": "address"
        },
        {
          "internalType": "uint256",
          "name": "_amount",
          "type": "uint256"
        },
        {
          "internalType": "address",
          "name": "_to",
          "type": "address"
        }
      ],
      "name": "governanceRecoverUnsupported",
      "outputs": [],
      "stateMutability": "nonpayable",
      "type": "function"
    },
    {
      "inputs": [
        {
          "internalType": "address",
          "name": "_mry",
          "type": "address"
        },
        {
          "internalType": "address",
          "name": "_tbond",
          "type": "address"
        },
        {
          "internalType": "address",
          "name": "_tshare",
          "type": "address"
        },
        {
          "internalType": "address",
          "name": "_mryOracle",
          "type": "address"
        },
        {
          "internalType": "address",
          "name": "_masonry",
          "type": "address"
        },
        {
          "internalType": "address",
          "name": "_genesisPool",
          "type": "address"
        },
        {
          "internalType": "uint256",
          "name": "_startTime",
          "type": "uint256"
        }
      ],
      "name": "initialize",
      "outputs": [],
      "stateMutability": "nonpayable",
      "type": "function"
    },
    {
      "inputs": [],
      "name": "initialized",
      "outputs": [
        {
          "internalType": "bool",
          "name": "",
          "type": "bool"
        }
      ],
      "stateMutability": "view",
      "type": "function"
    },
    {
      "inputs": [],
      "name": "isInitialized",
      "outputs": [
        {
          "internalType": "bool",
          "name": "",
          "type": "bool"
        }
      ],
      "stateMutability": "view",
      "type": "function"
    },
    {
      "inputs": [],
      "name": "masonry",
      "outputs": [
        {
          "internalType": "address",
          "name": "",
          "type": "address"
        }
      ],
      "stateMutability": "view",
      "type": "function"
    },
    {
      "inputs": [
        {
          "internalType": "uint256",
          "name": "amount",
          "type": "uint256"
        }
      ],
      "name": "masonryAllocateSeigniorage",
      "outputs": [],
      "stateMutability": "nonpayable",
      "type": "function"
    },
    {
      "inputs": [
        {
          "internalType": "address",
          "name": "_token",
          "type": "address"
        },
        {
          "internalType": "uint256",
          "name": "_amount",
          "type": "uint256"
        },
        {
          "internalType": "address",
          "name": "_to",
          "type": "address"
        }
      ],
      "name": "masonryGovernanceRecoverUnsupported",
      "outputs": [],
      "stateMutability": "nonpayable",
      "type": "function"
    },
    {
      "inputs": [
        {
          "internalType": "uint256",
          "name": "_withdrawLockupEpochs",
          "type": "uint256"
        },
        {
          "internalType": "uint256",
          "name": "_rewardLockupEpochs",
          "type": "uint256"
        }
      ],
      "name": "masonrySetLockUp",
      "outputs": [],
      "stateMutability": "nonpayable",
      "type": "function"
    },
    {
      "inputs": [
        {
          "internalType": "address",
          "name": "_operator",
          "type": "address"
        }
      ],
      "name": "masonrySetOperator",
      "outputs": [],
      "stateMutability": "nonpayable",
      "type": "function"
    },
    {
      "inputs": [],
      "name": "maxDebtRatioPercent",
      "outputs": [
        {
          "internalType": "uint256",
          "name": "",
          "type": "uint256"
        }
      ],
      "stateMutability": "view",
      "type": "function"
    },
    {
      "inputs": [],
      "name": "maxDiscountRate",
      "outputs": [
        {
          "internalType": "uint256",
          "name": "",
          "type": "uint256"
        }
      ],
      "stateMutability": "view",
      "type": "function"
    },
    {
      "inputs": [
        {
          "internalType": "uint256",
          "name": "",
          "type": "uint256"
        }
      ],
      "name": "maxExpansionTiers",
      "outputs": [
        {
          "internalType": "uint256",
          "name": "",
          "type": "uint256"
        }
      ],
      "stateMutability": "view",
      "type": "function"
    },
    {
      "inputs": [],
      "name": "maxPremiumRate",
      "outputs": [
        {
          "internalType": "uint256",
          "name": "",
          "type": "uint256"
        }
      ],
      "stateMutability": "view",
      "type": "function"
    },
    {
      "inputs": [],
      "name": "maxSupplyContractionPercent",
      "outputs": [
        {
          "internalType": "uint256",
          "name": "",
          "type": "uint256"
        }
      ],
      "stateMutability": "view",
      "type": "function"
    },
    {
      "inputs": [],
      "name": "maxSupplyExpansionPercent",
      "outputs": [
        {
          "internalType": "uint256",
          "name": "",
          "type": "uint256"
        }
      ],
      "stateMutability": "view",
      "type": "function"
    },
    {
      "inputs": [],
      "name": "mintingFactorForPayingDebt",
      "outputs": [
        {
          "internalType": "uint256",
          "name": "",
          "type": "uint256"
        }
      ],
      "stateMutability": "view",
      "type": "function"
    },
    {
      "inputs": [],
      "name": "mry",
      "outputs": [
        {
          "internalType": "address",
          "name": "",
          "type": "address"
        }
      ],
      "stateMutability": "view",
      "type": "function"
    },
    {
      "inputs": [],
      "name": "mryOracle",
      "outputs": [
        {
          "internalType": "address",
          "name": "",
          "type": "address"
        }
      ],
      "stateMutability": "view",
      "type": "function"
    },
    {
      "inputs": [],
      "name": "mryPriceCeiling",
      "outputs": [
        {
          "internalType": "uint256",
          "name": "",
          "type": "uint256"
        }
      ],
      "stateMutability": "view",
      "type": "function"
    },
    {
      "inputs": [],
      "name": "mryPriceOne",
      "outputs": [
        {
          "internalType": "uint256",
          "name": "",
          "type": "uint256"
        }
      ],
      "stateMutability": "view",
      "type": "function"
    },
    {
      "inputs": [],
      "name": "nextEpochPoint",
      "outputs": [
        {
          "internalType": "uint256",
          "name": "",
          "type": "uint256"
        }
      ],
      "stateMutability": "view",
      "type": "function"
    },
    {
      "inputs": [],
      "name": "operator",
      "outputs": [
        {
          "internalType": "address",
          "name": "",
          "type": "address"
        }
      ],
      "stateMutability": "view",
      "type": "function"
    },
    {
      "inputs": [],
      "name": "premiumPercent",
      "outputs": [
        {
          "internalType": "uint256",
          "name": "",
          "type": "uint256"
        }
      ],
      "stateMutability": "view",
      "type": "function"
    },
    {
      "inputs": [],
      "name": "premiumThreshold",
      "outputs": [
        {
          "internalType": "uint256",
          "name": "",
          "type": "uint256"
        }
      ],
      "stateMutability": "view",
      "type": "function"
    },
    {
      "inputs": [],
      "name": "previousEpochMryPrice",
      "outputs": [
        {
          "internalType": "uint256",
          "name": "",
          "type": "uint256"
        }
      ],
      "stateMutability": "view",
      "type": "function"
    },
    {
      "inputs": [
        {
          "internalType": "uint256",
          "name": "_bondAmount",
          "type": "uint256"
        },
        {
          "internalType": "uint256",
          "name": "targetPrice",
          "type": "uint256"
        }
      ],
      "name": "redeemBonds",
      "outputs": [],
      "stateMutability": "nonpayable",
      "type": "function"
    },
    {
      "inputs": [],
      "name": "seigniorageExpansionFloorPercent",
      "outputs": [
        {
          "internalType": "uint256",
          "name": "",
          "type": "uint256"
        }
      ],
      "stateMutability": "view",
      "type": "function"
    },
    {
      "inputs": [],
      "name": "seigniorageSaved",
      "outputs": [
        {
          "internalType": "uint256",
          "name": "",
          "type": "uint256"
        }
      ],
      "stateMutability": "view",
      "type": "function"
    },
    {
      "inputs": [
        {
          "internalType": "uint256",
          "name": "_bondDepletionFloorPercent",
          "type": "uint256"
        }
      ],
      "name": "setBondDepletionFloorPercent",
      "outputs": [],
      "stateMutability": "nonpayable",
      "type": "function"
    },
    {
      "inputs": [
        {
          "internalType": "uint256",
          "name": "_bootstrapEpochs",
          "type": "uint256"
        },
        {
          "internalType": "uint256",
          "name": "_bootstrapSupplyExpansionPercent",
          "type": "uint256"
        }
      ],
      "name": "setBootstrap",
      "outputs": [],
      "stateMutability": "nonpayable",
      "type": "function"
    },
    {
      "inputs": [
        {
          "internalType": "uint256",
          "name": "_discountPercent",
          "type": "uint256"
        }
      ],
      "name": "setDiscountPercent",
      "outputs": [],
      "stateMutability": "nonpayable",
      "type": "function"
    },
    {
      "inputs": [
        {
          "internalType": "address",
          "name": "_daoFund",
          "type": "address"
        },
        {
          "internalType": "uint256",
          "name": "_daoFundSharedPercent",
          "type": "uint256"
        },
        {
          "internalType": "address",
          "name": "_devFund",
          "type": "address"
        },
        {
          "internalType": "uint256",
          "name": "_devFundSharedPercent",
          "type": "uint256"
        }
      ],
      "name": "setExtraFunds",
      "outputs": [],
      "stateMutability": "nonpayable",
      "type": "function"
    },
    {
      "inputs": [
        {
          "internalType": "address",
          "name": "_masonry",
          "type": "address"
        }
      ],
      "name": "setMasonry",
      "outputs": [],
      "stateMutability": "nonpayable",
      "type": "function"
    },
    {
      "inputs": [
        {
          "internalType": "uint256",
          "name": "_maxDebtRatioPercent",
          "type": "uint256"
        }
      ],
      "name": "setMaxDebtRatioPercent",
      "outputs": [],
      "stateMutability": "nonpayable",
      "type": "function"
    },
    {
      "inputs": [
        {
          "internalType": "uint256",
          "name": "_maxDiscountRate",
          "type": "uint256"
        }
      ],
      "name": "setMaxDiscountRate",
      "outputs": [],
      "stateMutability": "nonpayable",
      "type": "function"
    },
    {
      "inputs": [
        {
          "internalType": "uint8",
          "name": "_index",
          "type": "uint8"
        },
        {
          "internalType": "uint256",
          "name": "_value",
          "type": "uint256"
        }
      ],
      "name": "setMaxExpansionTiersEntry",
      "outputs": [
        {
          "internalType": "bool",
          "name": "",
          "type": "bool"
        }
      ],
      "stateMutability": "nonpayable",
      "type": "function"
    },
    {
      "inputs": [
        {
          "internalType": "uint256",
          "name": "_maxPremiumRate",
          "type": "uint256"
        }
      ],
      "name": "setMaxPremiumRate",
      "outputs": [],
      "stateMutability": "nonpayable",
      "type": "function"
    },
    {
      "inputs": [
        {
          "internalType": "uint256",
          "name": "_maxSupplyContractionPercent",
          "type": "uint256"
        }
      ],
      "name": "setMaxSupplyContractionPercent",
      "outputs": [],
      "stateMutability": "nonpayable",
      "type": "function"
    },
    {
      "inputs": [
        {
          "internalType": "uint256",
          "name": "_maxSupplyExpansionPercent",
          "type": "uint256"
        }
      ],
      "name": "setMaxSupplyExpansionPercents",
      "outputs": [],
      "stateMutability": "nonpayable",
      "type": "function"
    },
    {
      "inputs": [
        {
          "internalType": "uint256",
          "name": "_mintingFactorForPayingDebt",
          "type": "uint256"
        }
      ],
      "name": "setMintingFactorForPayingDebt",
      "outputs": [],
      "stateMutability": "nonpayable",
      "type": "function"
    },
    {
      "inputs": [
        {
          "internalType": "address",
          "name": "_mryOracle",
          "type": "address"
        }
      ],
      "name": "setMryOracle",
      "outputs": [],
      "stateMutability": "nonpayable",
      "type": "function"
    },
    {
      "inputs": [
        {
          "internalType": "uint256",
          "name": "_mryPriceCeiling",
          "type": "uint256"
        }
      ],
      "name": "setMryPriceCeiling",
      "outputs": [],
      "stateMutability": "nonpayable",
      "type": "function"
    },
    {
      "inputs": [
        {
          "internalType": "address",
          "name": "_operator",
          "type": "address"
        }
      ],
      "name": "setOperator",
      "outputs": [],
      "stateMutability": "nonpayable",
      "type": "function"
    },
    {
      "inputs": [
        {
          "internalType": "uint256",
          "name": "_premiumPercent",
          "type": "uint256"
        }
      ],
      "name": "setPremiumPercent",
      "outputs": [],
      "stateMutability": "nonpayable",
      "type": "function"
    },
    {
      "inputs": [
        {
          "internalType": "uint256",
          "name": "_premiumThreshold",
          "type": "uint256"
        }
      ],
      "name": "setPremiumThreshold",
      "outputs": [],
      "stateMutability": "nonpayable",
      "type": "function"
    },
    {
      "inputs": [
        {
          "internalType": "uint8",
          "name": "_index",
          "type": "uint8"
        },
        {
          "internalType": "uint256",
          "name": "_value",
          "type": "uint256"
        }
      ],
      "name": "setSupplyTiersEntry",
      "outputs": [
        {
          "internalType": "bool",
          "name": "",
          "type": "bool"
        }
      ],
      "stateMutability": "nonpayable",
      "type": "function"
    },
    {
      "inputs": [],
      "name": "startTime",
      "outputs": [
        {
          "internalType": "uint256",
          "name": "",
          "type": "uint256"
        }
      ],
      "stateMutability": "view",
      "type": "function"
    },
    {
      "inputs": [
        {
          "internalType": "uint256",
          "name": "",
          "type": "uint256"
        }
      ],
      "name": "supplyTiers",
      "outputs": [
        {
          "internalType": "uint256",
          "name": "",
          "type": "uint256"
        }
      ],
      "stateMutability": "view",
      "type": "function"
    },
    {
      "inputs": [],
      "name": "xbond",
      "outputs": [
        {
          "internalType": "address",
          "name": "",
          "type": "address"
        }
      ],
      "stateMutability": "view",
      "type": "function"
    },
    {
      "inputs": [],
      "name": "xshare",
      "outputs": [
        {
          "internalType": "address",
          "name": "",
          "type": "address"
        }
      ],
      "stateMutability": "view",
      "type": "function"
    }
  ],
  "bytecode": "0x60806040526001805460ff60a01b191690556000600381905560045534801561002757600080fd5b5061415d806100376000396000f3fe608060405234801561001057600080fd5b50600436106104285760003560e01c806377af5d921161022b578063bcc81f1911610130578063d5d3b26c116100b8578063e90b245411610087578063e90b245414610842578063e9a886b21461084b578063ec5e41ba14610853578063f14698de1461085c578063fcb6f0081461086557600080fd5b8063d5d3b26c14610814578063d98f249514610827578063da3ed41914610830578063de9a84fb1461083957600080fd5b8063c8412d02116100ff578063c8412d02146107c9578063c8f987f3146107d2578063cecce38e146107db578063d4b14944146107ee578063d5035a4d1461080157600080fd5b8063bcc81f1914610793578063be266d54146107a6578063bee2a653146107b9578063c5967c26146107c157600080fd5b8063940e6064116101b3578063a0487eea11610182578063a0487eea14610748578063a204452b1461075b578063b3ab15fb1461076e578063b4d1d79514610781578063b8a878f91461078a57600080fd5b8063940e6064146106fc578063951357d41461070f57806398b762a114610722578063998200251461073557600080fd5b8063874106cc116101fa578063874106cc146106b15780638c664db6146106ba5780638d934f74146106cd578063900cf0cf146106e057806391bbfed5146106e957600080fd5b806377af5d921461067957806378e979251461068c57806381d11eaf1461069557806382cad8381461069e57600080fd5b80634013a08e11610331578063570ca735116102b95780635b756179116102885780635b7561791461063057806362ac58e41461063857806363f96cf41461064b57806372c054f91461065e578063734f70961461066657600080fd5b8063570ca735146105f9578063591663e11461060c57806359bf5d391461061f5780635a0fc79c1461062757600080fd5b806346b068601161030057806346b06860146105af578063499f3f19146105b757806354575af4146105ca57806354f04a11146105dd57806355ebdeef146105f057600080fd5b80634013a08e1461056d57806340af7ba5146105765780634363f654146105895780634390d2a81461059c57600080fd5b8063158ef93e116103b4578063392e53cd11610383578063392e53cd146105245780633ab1f35f146105365780633b8297c0146105495780633c83c40d146105515780633f5cf7d01461056457600080fd5b8063158ef93e146104e557806322f832cd1461050957806329ef1919146105125780632e9c7b651461051b57600080fd5b80630cf60175116103fb5780630cf601751461049c5780630db7eb0b146104a4578063118ebbf9146104ac5780631460e390146104bf578063154ec2db146104d257600080fd5b806303be7e761461042d57806304e5c7b11461044957806307e36ee31461045e5780630b5bcec714610489575b600080fd5b61043660215481565b6040519081526020015b60405180910390f35b61045c610457366004613d1b565b61086e565b005b600854610471906001600160a01b031681565b6040516001600160a01b039091168152602001610440565b61045c610497366004613d1b565b610967565b610436610a06565b610436610ab6565b61045c6104ba366004613d4d565b610b56565b61045c6104cd366004613bb9565b61117f565b61045c6104e0366004613d1b565b6114a9565b6001546104f990600160a01b900460ff1681565b6040519015158152602001610440565b61043660125481565b610436601a5481565b61043660195481565b600154600160a01b900460ff166104f9565b600654610471906001600160a01b031681565b61043661152a565b61045c61055f366004613d1b565b611695565b61043660175481565b610436601d5481565b61045c610584366004613d1b565b61170c565b600754610471906001600160a01b031681565b602054610471906001600160a01b031681565b61043661178d565b61045c6105c5366004613d1b565b61188f565b61045c6105d8366004613c46565b611930565b61045c6105eb366004613d4d565b611a44565b610436601f5481565b600154610471906001600160a01b031681565b61045c61061a366004613d1b565b61215e565b600d54610436565b610436600d5481565b61045c6121bd565b61045c610646366004613b7f565b612833565b600954610471906001600160a01b031681565b6104366128c0565b61045c610674366004613d4d565b61297d565b600a54610471906001600160a01b031681565b61043660025481565b61043660115481565b6104716106ac366004613d1b565b612a10565b61043660165481565b61045c6106c8366004613d1b565b612a3a565b601e54610471906001600160a01b031681565b61043660035481565b61045c6106f7366004613d4d565b612a99565b6104f961070a366004613d6f565b612b95565b61045c61071d366004613c46565b612c92565b61045c610730366004613d1b565b612d2f565b610436610743366004613d1b565b612d5e565b610436610756366004613d1b565b612d7f565b61045c610769366004613d1b565b612d8f565b61045c61077c366004613b7f565b612dbe565b61043661546081565b61043660185481565b61045c6107a1366004613c88565b612e0a565b61045c6107b4366004613d1b565b612f2e565b610436612f89565b610436612fcb565b610436601c5481565b610436601b5481565b61045c6107e9366004613d1b565b612ff5565b6104f96107fc366004613d6f565b613053565b61045c61080f366004613b7f565b613110565b61045c610822366004613b7f565b61315c565b61043660105481565b61043660145481565b610436600c5481565b61043660135481565b6104366131a8565b610436600b5481565b61043660155481565b61043660045481565b6001546001600160a01b031633146108a15760405162461bcd60e51b815260040161089890613f00565b60405180910390fd5b600c548110156109055760405162461bcd60e51b815260206004820152602960248201527f5f7072656d69756d5468726573686f6c642065786365656473206d727950726960448201526863654365696c696e6760b81b6064820152608401610898565b60968111156109625760405162461bcd60e51b8152602060048201526024808201527f5f7072656d69756d5468726573686f6c6420697320686967686572207468616e60448201526320312e3560e01b6064820152608401610898565b601b55565b6001546001600160a01b031633146109915760405162461bcd60e51b815260040161089890613f00565b600a81101580156109a457506103e88111155b610a015760405162461bcd60e51b815260206004820152602860248201527f5f6d6178537570706c79457870616e73696f6e50657263656e743a206f7574206044820152676f662072616e676560c01b6064820152608401610898565b601055565b600080610a11612f89565b9050600b548111610ab257601a54610a2b575050600b5490565b6000610a5482610a4e670de0b6b3a7640000600b546132bb90919063ffffffff16565b906132ce565b90506000610a7f612710610a4e601a54610a79600b54876132da90919063ffffffff16565b906132bb565b600b54909150610a8f90826132e6565b93506000601854118015610aa4575060185484115b15610aaf5760185493505b50505b5090565b600080610ac1612f89565b9050600c54811115610ab2576000610aeb6064610a4e601b54600b546132bb90919063ffffffff16565b9050808210610b4c576000610b17612710610a4e601c54610a79600b54886132da90919063ffffffff16565b600b54909150610b2790826132e6565b93506000601954118015610b3c575060195484115b15610aaf57601954935050505090565b600b549250505090565b4360009081526020818152604080832032845290915290205460ff1615610b8f5760405162461bcd60e51b815260040161089890613f44565b4360009081526020818152604080832033845290915290205460ff1615610bc85760405162461bcd60e51b815260040161089890613f44565b600254421015610bea5760405162461bcd60e51b815260040161089890613f8a565b6006546040805163570ca73560e01b8152905130926001600160a01b03169163570ca735916004808301926020929190829003018186803b158015610c2e57600080fd5b505afa158015610c42573d6000803e3d6000fd5b505050506040513d601f19601f82011682018060405250810190610c669190613b9c565b6001600160a01b0316148015610cfe57506007546040805163570ca73560e01b8152905130926001600160a01b03169163570ca735916004808301926020929190829003018186803b158015610cbb57600080fd5b505afa158015610ccf573d6000803e3d6000fd5b505050506040513d601f19601f82011682018060405250810190610cf39190613b9c565b6001600160a01b0316145b8015610d8c57506008546040805163570ca73560e01b8152905130926001600160a01b03169163570ca735916004808301926020929190829003018186803b158015610d4957600080fd5b505afa158015610d5d573d6000803e3d6000fd5b505050506040513d601f19601f82011682018060405250810190610d819190613b9c565b6001600160a01b0316145b8015610e1a57506009546040805163570ca73560e01b8152905130926001600160a01b03169163570ca735916004808301926020929190829003018186803b158015610dd757600080fd5b505afa158015610deb573d6000803e3d6000fd5b505050506040513d601f19601f82011682018060405250810190610e0f9190613b9c565b6001600160a01b0316145b610e365760405162461bcd60e51b815260040161089890613e5a565b60008211610e9d5760405162461bcd60e51b815260206004820152602e60248201527f54726561737572793a2063616e6e6f742072656465656d20626f6e647320776960448201526d1d1a081e995c9bc8185b5bdd5b9d60921b6064820152608401610898565b6000610ea7612f89565b9050818114610ef45760405162461bcd60e51b8152602060048201526019602482015278151c99585cdd5c9e4e88135496481c1c9a58d9481b5bdd9959603a1b6044820152606401610898565b600c548111610f155760405162461bcd60e51b815260040161089890613e09565b6000610f1f610ab6565b905060008111610f715760405162461bcd60e51b815260206004820152601b60248201527f54726561737572793a20696e76616c696420626f6e64207261746500000000006044820152606401610898565b6000610f89670de0b6b3a7640000610a4e87856132bb565b6006546040516370a0823160e01b815230600482015291925082916001600160a01b03909116906370a082319060240160206040518083038186803b158015610fd157600080fd5b505afa158015610fe5573d6000803e3d6000fd5b505050506040513d601f19601f820116820180604052508101906110099190613d34565b10156110655760405162461bcd60e51b815260206004820152602560248201527f54726561737572793a20747265617375727920686173206e6f206d6f726520626044820152641d5919d95d60da1b6064820152608401610898565b61107d611074600d54836132f2565b600d54906132da565b600d5560075460405163079cc67960e41b81526001600160a01b03909116906379cc6790906110b29033908990600401613dbd565b600060405180830381600087803b1580156110cc57600080fd5b505af11580156110e0573d6000803e3d6000fd5b50506006546110fc92506001600160a01b031690503383613308565b61110461335e565b604080518281526020810187905233917f51e0d16595cabc591e64da08e45bb223577e5b9a39cd947b4ddc3472b2dd8878910160405180910390a25050436000908152602081815260408083203284529091528082208054600160ff1991821681179092553384529190922080549091169091179055505050565b600154600160a01b900460ff16156111d95760405162461bcd60e51b815260206004820152601d60248201527f54726561737572793a20616c726561647920696e697469616c697a65640000006044820152606401610898565b600680546001600160a01b03199081166001600160a01b038a811691909117909255600780548216898416179055600880548216888416179055600a80548216878416179055600980549091169185169190911790556002819055670de0b6b3a7640000600b81905561125490606490610a4e9060656132bb565b600c556005805460018101825560009182527f036b6384b5eca791c62761152d0c79bb0604c104a5fb6f4eb0703f3154bb3db00180546001600160a01b0319166001600160a01b03851617905560408051610120810182529182526969e10de76676d0800000602083015269d3c21bcecceda1000000908201526a013da329b633647180000060608201526a01a784379d99db4200000060808201526a0422ca8b0a00a42500000060a08201526a084595161401484a00000060c08201526a108b2a2c2802909400000060e08201526a295be96e6406697200000061010082015261134390600e906009613ad3565b5060408051610120810182526101c28152610190602082015261015e9181019190915261012c606082015260fa608082015260c860a0820152609660c0820152607d60e082015260646101008201526113a090600f906009613b29565b50610190601055612710601155610dac601281905561012c601355601455606e601b55611b58601c9081556015556101c26016556006546040516370a0823160e01b81523060048201526001600160a01b03909116906370a082319060240160206040518083038186803b15801561141757600080fd5b505afa15801561142b573d6000803e3d6000fd5b505050506040513d601f19601f8201168201806040525081019061144f9190613d34565b600d55600180546001600160a81b03191633908117600160a01b179091556040514381527f25ff68dd81b34665b5ba7e553ee5511bf6812e12adb4a7e2c0d9e26b3099ce799060200160405180910390a250505050505050565b6001546001600160a01b031633146114d35760405162461bcd60e51b815260040161089890613f00565b614e208111156115255760405162461bcd60e51b815260206004820152601d60248201527f5f646973636f756e7450657263656e74206973206f76657220323030250000006044820152606401610898565b601a55565b600654604080516318160ddd60e01b815290516000926001600160a01b031691839183916318160ddd916004808301926020929190829003018186803b15801561157357600080fd5b505afa158015611587573d6000803e3d6000fd5b505050506040513d601f19601f820116820180604052508101906115ab9190613d34565b90506000805b60055460ff8216101561168257611670846001600160a01b03166370a0823160058460ff16815481106115e6576115e66140fc565b60009182526020909120015460405160e083901b6001600160e01b03191681526001600160a01b03909116600482015260240160206040518083038186803b15801561163157600080fd5b505afa158015611645573d6000803e3d6000fd5b505050506040513d601f19601f820116820180604052508101906116699190613d34565b83906132e6565b915061167b816140c6565b90506115b1565b5061168d82826132da565b935050505090565b6001546001600160a01b031633146116bf5760405162461bcd60e51b815260040161089890613f00565b600b5481101580156116eb57506116e76064610a4e6078600b546132bb90919063ffffffff16565b8111155b6117075760405162461bcd60e51b815260040161089890613e91565b600c55565b6001546001600160a01b031633146117365760405162461bcd60e51b815260040161089890613f00565b614e208111156117885760405162461bcd60e51b815260206004820152601c60248201527f5f7072656d69756d50657263656e74206973206f7665722032303025000000006044820152606401610898565b601c55565b600a54600654604051630d01142560e31b81526000926001600160a01b0390811692636808a128926117cf9290911690670de0b6b3a764000090600401613dbd565b60206040518083038186803b1580156117e757600080fd5b505afa925050508015611817575060408051601f3d908101601f1916820190925261181491810190613cf2565b60015b6118815760405162461bcd60e51b815260206004820152603560248201527f54726561737572793a206661696c656420746f20636f6e73756c74204d52592060448201527470726963652066726f6d20746865206f7261636c6560581b6064820152608401610898565b6001600160901b0316919050565b6001546001600160a01b031633146118b95760405162461bcd60e51b815260040161089890613f00565b61271081101580156118cd5750614e208111155b61192b5760405162461bcd60e51b815260206004820152602960248201527f5f6d696e74696e67466163746f72466f72506179696e67446562743a206f7574604482015268206f662072616e676560b81b6064820152608401610898565b601d55565b6001546001600160a01b0316331461195a5760405162461bcd60e51b815260040161089890613f00565b6006546001600160a01b038481169116141561199e5760405162461bcd60e51b81526020600482015260036024820152626d727960e81b6044820152606401610898565b6007546001600160a01b03848116911614156119e55760405162461bcd60e51b815260040161089890602080825260049082015263189bdb9960e21b604082015260600190565b6008546001600160a01b0384811691161415611a2b5760405162461bcd60e51b8152602060048201526005602482015264736861726560d81b6044820152606401610898565b611a3f6001600160a01b0384168284613308565b505050565b4360009081526020818152604080832032845290915290205460ff1615611a7d5760405162461bcd60e51b815260040161089890613f44565b4360009081526020818152604080832033845290915290205460ff1615611ab65760405162461bcd60e51b815260040161089890613f44565b600254421015611ad85760405162461bcd60e51b815260040161089890613f8a565b6006546040805163570ca73560e01b8152905130926001600160a01b03169163570ca735916004808301926020929190829003018186803b158015611b1c57600080fd5b505afa158015611b30573d6000803e3d6000fd5b505050506040513d601f19601f82011682018060405250810190611b549190613b9c565b6001600160a01b0316148015611bec57506007546040805163570ca73560e01b8152905130926001600160a01b03169163570ca735916004808301926020929190829003018186803b158015611ba957600080fd5b505afa158015611bbd573d6000803e3d6000fd5b505050506040513d601f19601f82011682018060405250810190611be19190613b9c565b6001600160a01b0316145b8015611c7a57506008546040805163570ca73560e01b8152905130926001600160a01b03169163570ca735916004808301926020929190829003018186803b158015611c3757600080fd5b505afa158015611c4b573d6000803e3d6000fd5b505050506040513d601f19601f82011682018060405250810190611c6f9190613b9c565b6001600160a01b0316145b8015611d0857506009546040805163570ca73560e01b8152905130926001600160a01b03169163570ca735916004808301926020929190829003018186803b158015611cc557600080fd5b505afa158015611cd9573d6000803e3d6000fd5b505050506040513d601f19601f82011682018060405250810190611cfd9190613b9c565b6001600160a01b0316145b611d245760405162461bcd60e51b815260040161089890613e5a565b60008211611d8d5760405162461bcd60e51b815260206004820152603060248201527f54726561737572793a2063616e6e6f7420707572636861736520626f6e64732060448201526f1dda5d1a081e995c9bc8185b5bdd5b9d60821b6064820152608401610898565b6000611d97612f89565b9050818114611de45760405162461bcd60e51b8152602060048201526019602482015278151c99585cdd5c9e4e88135496481c1c9a58d9481b5bdd9959603a1b6044820152606401610898565b600b548110611e055760405162461bcd60e51b815260040161089890613e09565b600454831115611e6a5760405162461bcd60e51b815260206004820152602a60248201527f54726561737572793a206e6f7420656e6f75676820626f6e64206c65667420746044820152696f20707572636861736560b01b6064820152608401610898565b6000611e74610a06565b905060008111611ec65760405162461bcd60e51b815260206004820152601b60248201527f54726561737572793a20696e76616c696420626f6e64207261746500000000006044820152606401610898565b6000611ede670de0b6b3a7640000610a4e87856132bb565b90506000611eea61152a565b90506000611f7e83600760009054906101000a90046001600160a01b03166001600160a01b03166318160ddd6040518163ffffffff1660e01b815260040160206040518083038186803b158015611f4057600080fd5b505afa158015611f54573d6000803e3d6000fd5b505050506040513d601f19601f82011682018060405250810190611f789190613d34565b906132e6565b9050611f9b612710610a4e601454856132bb90919063ffffffff16565b811115611fe05760405162461bcd60e51b81526020600482015260136024820152726f766572206d6178206465627420726174696f60681b6044820152606401610898565b60065460405163079cc67960e41b81526001600160a01b03909116906379cc6790906120129033908b90600401613dbd565b600060405180830381600087803b15801561202c57600080fd5b505af1158015612040573d6000803e3d6000fd5b50506007546040516340c10f1960e01b81526001600160a01b0390911692506340c10f1991506120769033908790600401613dbd565b602060405180830381600087803b15801561209057600080fd5b505af11580156120a4573d6000803e3d6000fd5b505050506040513d601f19601f820116820180604052508101906120c89190613cd0565b506004546120d690886132da565b6004556120e161335e565b604080518881526020810185905233917f73017f1b70789e2e66759eeb3c7ec11f59e6eedb55d921cfaec5410dd42a4799910160405180910390a25050436000908152602081815260408083203284529091528082208054600160ff19918216811790925533845291909220805490911690911790555050505050565b6001546001600160a01b031633146121885760405162461bcd60e51b815260040161089890613f00565b6103e8811015801561219c57506127108111155b6121b85760405162461bcd60e51b815260040161089890613e91565b601455565b4360009081526020818152604080832032845290915290205460ff16156121f65760405162461bcd60e51b815260040161089890613f44565b4360009081526020818152604080832033845290915290205460ff161561222f5760405162461bcd60e51b815260040161089890613f44565b6002544210156122515760405162461bcd60e51b815260040161089890613f8a565b612259612fcb565b4210156122a85760405162461bcd60e51b815260206004820152601860248201527f54726561737572793a206e6f74206f70656e65642079657400000000000000006044820152606401610898565b6006546040805163570ca73560e01b8152905130926001600160a01b03169163570ca735916004808301926020929190829003018186803b1580156122ec57600080fd5b505afa158015612300573d6000803e3d6000fd5b505050506040513d601f19601f820116820180604052508101906123249190613b9c565b6001600160a01b03161480156123bc57506007546040805163570ca73560e01b8152905130926001600160a01b03169163570ca735916004808301926020929190829003018186803b15801561237957600080fd5b505afa15801561238d573d6000803e3d6000fd5b505050506040513d601f19601f820116820180604052508101906123b19190613b9c565b6001600160a01b0316145b801561244a57506008546040805163570ca73560e01b8152905130926001600160a01b03169163570ca735916004808301926020929190829003018186803b15801561240757600080fd5b505afa15801561241b573d6000803e3d6000fd5b505050506040513d601f19601f8201168201806040525081019061243f9190613b9c565b6001600160a01b0316145b80156124d857506009546040805163570ca73560e01b8152905130926001600160a01b03169163570ca735916004808301926020929190829003018186803b15801561249557600080fd5b505afa1580156124a9573d6000803e3d6000fd5b505050506040513d601f19601f820116820180604052508101906124cd9190613b9c565b6001600160a01b0316145b6124f45760405162461bcd60e51b815260040161089890613e5a565b6124fc61335e565b612504612f89565b601755600d5460009061251f9061251961152a565b906132da565b905060155460035410156125555761255061254b612710610a4e601654856132bb90919063ffffffff16565b6133c2565b6127b7565b600c5460175411156127b757600754604080516318160ddd60e01b815290516000926001600160a01b0316916318160ddd916004808301926020929190829003018186803b1580156125a657600080fd5b505afa1580156125ba573d6000803e3d6000fd5b505050506040513d601f19601f820116820180604052508101906125de9190613d34565b905060006125f9600b546017546132da90919063ffffffff16565b90506000806000612613655af3107a4000610a7988613706565b905080841115612621578093505b61263c612710610a4e601154886132bb90919063ffffffff16565b600d54106126615761265a670de0b6b3a7640000610a4e88876132bb565b91506126cd565b6000612679670de0b6b3a7640000610a4e89886132bb565b9050612696612710610a4e601254846132bb90919063ffffffff16565b92506126a281846132da565b601d54909450156126cb576126c8612710610a4e601d54876132bb90919063ffffffff16565b93505b505b81156126dc576126dc826133c2565b82156127b157600d546126ef90846132e6565b600d556006546040516340c10f1960e01b81526001600160a01b03909116906340c10f19906127249030908790600401613dbd565b602060405180830381600087803b15801561273e57600080fd5b505af1158015612752573d6000803e3d6000fd5b505050506040513d601f19601f820116820180604052508101906127769190613cd0565b5060408051428152602081018590527ff705142bf09f04297640495ddf7c59b7fd6f51894c5aea9602d631cf05f0efc2910160405180910390a15b50505050505b506003546127c69060016132e6565b600355600c546127d4612f89565b116127f2576127ed612710610a4e601354610a7961152a565b6127f5565b60005b600455436000908152602081815260408083203284529091528082208054600160ff1991821681179092553384529190922080549091169091179055565b6001546001600160a01b0316331461285d5760405162461bcd60e51b815260040161089890613f00565b60095460405163b3ab15fb60e01b81526001600160a01b0383811660048301529091169063b3ab15fb906024015b600060405180830381600087803b1580156128a557600080fd5b505af11580156128b9573d6000803e3d6000fd5b5050505050565b6000806128cb612f89565b9050600c54811115610ab2576006546040516370a0823160e01b81523060048201526000916001600160a01b0316906370a082319060240160206040518083038186803b15801561291b57600080fd5b505afa15801561292f573d6000803e3d6000fd5b505050506040513d601f19601f820116820180604052508101906129539190613d34565b9050600061295f610ab6565b90508015610aaf5761168d81610a4e84670de0b6b3a76400006132bb565b6001546001600160a01b031633146129a75760405162461bcd60e51b815260040161089890613f00565b600954604051632ffaaa0960e01b815260048101849052602481018390526001600160a01b0390911690632ffaaa0990604401600060405180830381600087803b1580156129f457600080fd5b505af1158015612a08573d6000803e3d6000fd5b505050505050565b60058181548110612a2057600080fd5b6000918252602090912001546001600160a01b0316905081565b6001546001600160a01b03163314612a645760405162461bcd60e51b815260040161089890613f00565b6101f48110158015612a7857506127108111155b612a945760405162461bcd60e51b815260040161089890613e91565b601155565b6001546001600160a01b03163314612ac35760405162461bcd60e51b815260040161089890613f00565b601c821115612b145760405162461bcd60e51b815260206004820152601e60248201527f5f626f6f74737472617045706f6368733a206f7574206f662072616e676500006044820152606401610898565b60648110158015612b2757506103e88111155b612b8a5760405162461bcd60e51b815260206004820152602e60248201527f5f626f6f747374726170537570706c79457870616e73696f6e50657263656e7460448201526d3a206f7574206f662072616e676560901b6064820152608401610898565b601591909155601655565b6001546000906001600160a01b03163314612bc25760405162461bcd60e51b815260040161089890613f00565b60098360ff1610612be55760405162461bcd60e51b815260040161089890613eb7565b60ff831615612c2457600e612bfb600185614056565b60ff1681548110612c0e57612c0e6140fc565b90600052602060002001548211612c2457600080fd5b60088360ff161015612c6657600e612c3d846001613fd9565b60ff1681548110612c5057612c506140fc565b90600052602060002001548210612c6657600080fd5b81600e8460ff1681548110612c7d57612c7d6140fc565b60009182526020909120015550600192915050565b6001546001600160a01b03163314612cbc5760405162461bcd60e51b815260040161089890613f00565b600954604051631515d6bd60e21b81526001600160a01b038581166004830152602482018590528381166044830152909116906354575af490606401600060405180830381600087803b158015612d1257600080fd5b505af1158015612d26573d6000803e3d6000fd5b50505050505050565b6001546001600160a01b03163314612d595760405162461bcd60e51b815260040161089890613f00565b601855565b600e8181548110612d6e57600080fd5b600091825260209091200154905081565b600f8181548110612d6e57600080fd5b6001546001600160a01b03163314612db95760405162461bcd60e51b815260040161089890613f00565b601955565b6001546001600160a01b03163314612de85760405162461bcd60e51b815260040161089890613f00565b600180546001600160a01b0319166001600160a01b0392909216919091179055565b6001546001600160a01b03163314612e345760405162461bcd60e51b815260040161089890613f00565b6001600160a01b038416612e735760405162461bcd60e51b8152600401610898906020808252600490820152637a65726f60e01b604082015260600190565b610bb8831115612e955760405162461bcd60e51b815260040161089890613e91565b6001600160a01b038216612ed45760405162461bcd60e51b8152600401610898906020808252600490820152637a65726f60e01b604082015260600190565b6103e8811115612ef65760405162461bcd60e51b815260040161089890613e91565b601e80546001600160a01b03199081166001600160a01b0396871617909155601f939093556020805490931691909316179055602155565b6001546001600160a01b03163314612f585760405162461bcd60e51b815260040161089890613f00565b6009546040516397ffe1d760e01b8152600481018390526001600160a01b03909116906397ffe1d79060240161288b565b600a54600654604051633ddac95360e01b81526000926001600160a01b0390811692633ddac953926117cf9290911690670de0b6b3a764000090600401613dbd565b6000612ff0612fe76154606003546132bb90919063ffffffff16565b600254906132e6565b905090565b6001546001600160a01b0316331461301f5760405162461bcd60e51b815260040161089890613f00565b6064811015801561303257506105dc8111155b61304e5760405162461bcd60e51b815260040161089890613e91565b601355565b6001546000906001600160a01b031633146130805760405162461bcd60e51b815260040161089890613f00565b60098360ff16106130a35760405162461bcd60e51b815260040161089890613eb7565b600a82101580156130b657506103e88211155b6130f95760405162461bcd60e51b81526020600482015260146024820152735f76616c75653a206f7574206f662072616e676560601b6044820152606401610898565b81600f8460ff1681548110612c7d57612c7d6140fc565b6001546001600160a01b0316331461313a5760405162461bcd60e51b815260040161089890613f00565b600a80546001600160a01b0319166001600160a01b0392909216919091179055565b6001546001600160a01b031633146131865760405162461bcd60e51b815260040161089890613f00565b600980546001600160a01b0319166001600160a01b0392909216919091179055565b6000806131b3612f89565b9050600b548111610ab25760006131c861152a565b905060006131e7612710610a4e601454856132bb90919063ffffffff16565b90506000600760009054906101000a90046001600160a01b03166001600160a01b03166318160ddd6040518163ffffffff1660e01b815260040160206040518083038186803b15801561323957600080fd5b505afa15801561324d573d6000803e3d6000fd5b505050506040513d601f19601f820116820180604052508101906132719190613d34565b9050808211156132b457600061328783836132da565b905060006132a1670de0b6b3a7640000610a4e84896132bb565b90506132af600454826132f2565b965050505b5050505090565b60006132c78284614020565b9392505050565b60006132c78284613ffe565b60006132c7828461403f565b60006132c78284613fc1565b600081831061330157816132c7565b5090919050565b611a3f8363a9059cbb60e01b8484604051602401613327929190613dbd565b60408051601f198184030181529190526020810180516001600160e01b03166001600160e01b031990931692909217909152613776565b600a60009054906101000a90046001600160a01b03166001600160a01b031663a2e620456040518163ffffffff1660e01b8152600401600060405180830381600087803b1580156133ae57600080fd5b505af19250505080156133bf575060015b50565b6006546040516340c10f1960e01b81526001600160a01b03909116906340c10f19906133f49030908590600401613dbd565b602060405180830381600087803b15801561340e57600080fd5b505af1158015613422573d6000803e3d6000fd5b505050506040513d601f19601f820116820180604052508101906134469190613cd0565b50601f54600090156135325761346d612710610a4e601f54856132bb90919063ffffffff16565b600654601e5460405163a9059cbb60e01b81529293506001600160a01b039182169263a9059cbb926134a59216908590600401613dbd565b602060405180830381600087803b1580156134bf57600080fd5b505af11580156134d3573d6000803e3d6000fd5b505050506040513d601f19601f820116820180604052508101906134f79190613cd0565b5060408051428152602081018390527fcb3f34aaa3445b461e6da5492dc89e5c257a59fa598131f3b6bbc97a3638e409910160405180910390a15b6021546000901561361d57613558612710610a4e602154866132bb90919063ffffffff16565b60065460205460405163a9059cbb60e01b81529293506001600160a01b039182169263a9059cbb926135909216908590600401613dbd565b602060405180830381600087803b1580156135aa57600080fd5b505af11580156135be573d6000803e3d6000fd5b505050506040513d601f19601f820116820180604052508101906135e29190613cd0565b5060408051428152602081018390527fdc8b715b18523e58b7fd0da53259dfa91efd91df4a854d94b136e3333a3b9395910160405180910390a15b61362b8161251985856132da565b60095460065491945061364c916001600160a01b0390811691166000613848565b600954600654613669916001600160a01b03918216911685613848565b6009546040516397ffe1d760e01b8152600481018590526001600160a01b03909116906397ffe1d790602401600060405180830381600087803b1580156136af57600080fd5b505af11580156136c3573d6000803e3d6000fd5b505060408051428152602081018790527fa72fa2f263b243b0f0e1fec5f3d49d33de573d15929b6b730c6b8ab3838c1c4d935001905060405180910390a1505050565b600060085b600e8160ff1681548110613721576137216140fc565b9060005260206000200154831061375c57600f8160ff1681548110613748576137486140fc565b60009182526020909120015460105561376c565b613765816140a9565b905061370b565b5050601054919050565b60006137cb826040518060400160405280602081526020017f5361666545524332303a206c6f772d6c6576656c2063616c6c206661696c6564815250856001600160a01b031661395b9092919063ffffffff16565b805190915015611a3f57808060200190518101906137e99190613cd0565b611a3f5760405162461bcd60e51b815260206004820152602a60248201527f5361666545524332303a204552433230206f7065726174696f6e20646964206e6044820152691bdd081cdd58d8d9595960b21b6064820152608401610898565b8015806138d15750604051636eb1769f60e11b81523060048201526001600160a01b03838116602483015284169063dd62ed3e9060440160206040518083038186803b15801561389757600080fd5b505afa1580156138ab573d6000803e3d6000fd5b505050506040513d601f19601f820116820180604052508101906138cf9190613d34565b155b61393c5760405162461bcd60e51b815260206004820152603660248201527f5361666545524332303a20617070726f76652066726f6d206e6f6e2d7a65726f60448201527520746f206e6f6e2d7a65726f20616c6c6f77616e636560501b6064820152608401610898565b611a3f8363095ea7b360e01b8484604051602401613327929190613dbd565b606061396a8484600085613972565b949350505050565b6060824710156139d35760405162461bcd60e51b815260206004820152602660248201527f416464726573733a20696e73756666696369656e742062616c616e636520666f6044820152651c8818d85b1b60d21b6064820152608401610898565b843b613a215760405162461bcd60e51b815260206004820152601d60248201527f416464726573733a2063616c6c20746f206e6f6e2d636f6e74726163740000006044820152606401610898565b600080866001600160a01b03168587604051613a3d9190613da1565b60006040518083038185875af1925050503d8060008114613a7a576040519150601f19603f3d011682016040523d82523d6000602084013e613a7f565b606091505b5091509150613a8f828286613a9a565b979650505050505050565b60608315613aa95750816132c7565b825115613ab95782518084602001fd5b8160405162461bcd60e51b81526004016108989190613dd6565b828054828255906000526020600020908101928215613b1d579160200282015b82811115613b1d57825182906affffffffffffffffffffff16905591602001919060010190613af3565b50610ab2929150613b6a565b828054828255906000526020600020908101928215613b1d579160200282015b82811115613b1d578251829061ffff16905591602001919060010190613b49565b5b80821115610ab25760008155600101613b6b565b600060208284031215613b9157600080fd5b81356132c781614112565b600060208284031215613bae57600080fd5b81516132c781614112565b600080600080600080600060e0888a031215613bd457600080fd5b8735613bdf81614112565b96506020880135613bef81614112565b95506040880135613bff81614112565b94506060880135613c0f81614112565b93506080880135613c1f81614112565b925060a0880135613c2f81614112565b8092505060c0880135905092959891949750929550565b600080600060608486031215613c5b57600080fd5b8335613c6681614112565b9250602084013591506040840135613c7d81614112565b809150509250925092565b60008060008060808587031215613c9e57600080fd5b8435613ca981614112565b9350602085013592506040850135613cc081614112565b9396929550929360600135925050565b600060208284031215613ce257600080fd5b815180151581146132c757600080fd5b600060208284031215613d0457600080fd5b81516001600160901b03811681146132c757600080fd5b600060208284031215613d2d57600080fd5b5035919050565b600060208284031215613d4657600080fd5b5051919050565b60008060408385031215613d6057600080fd5b50508035926020909101359150565b60008060408385031215613d8257600080fd5b823560ff81168114613d9357600080fd5b946020939093013593505050565b60008251613db3818460208701614079565b9190910192915050565b6001600160a01b03929092168252602082015260400190565b6020815260008251806020840152613df5816040850160208701614079565b601f01601f19169190910160400192915050565b60208082526031908201527f54726561737572793a206d72795072696365206e6f7420656c696769626c6520604082015270666f7220626f6e6420707572636861736560781b606082015260800190565b6020808252601e908201527f54726561737572793a206e656564206d6f7265207065726d697373696f6e0000604082015260600190565b6020808252600c908201526b6f7574206f662072616e676560a01b604082015260600190565b60208082526029908201527f496e6465782068617320746f206265206c6f776572207468616e20636f756e74604082015268206f6620746965727360b81b606082015260800190565b60208082526024908201527f54726561737572793a2063616c6c6572206973206e6f7420746865206f70657260408201526330ba37b960e11b606082015260800190565b60208082526026908201527f436f6e747261637447756172643a206f6e6520626c6f636b2c206f6e652066756040820152653731ba34b7b760d11b606082015260800190565b60208082526019908201527f54726561737572793a206e6f7420737461727465642079657400000000000000604082015260600190565b60008219821115613fd457613fd46140e6565b500190565b600060ff821660ff84168060ff03821115613ff657613ff66140e6565b019392505050565b60008261401b57634e487b7160e01b600052601260045260246000fd5b500490565b600081600019048311821515161561403a5761403a6140e6565b500290565b600082821015614051576140516140e6565b500390565b600060ff821660ff841680821015614070576140706140e6565b90039392505050565b60005b8381101561409457818101518382015260200161407c565b838111156140a3576000848401525b50505050565b600060ff8216806140bc576140bc6140e6565b6000190192915050565b600060ff821660ff8114156140dd576140dd6140e6565b60010192915050565b634e487b7160e01b600052601160045260246000fd5b634e487b7160e01b600052603260045260246000fd5b6001600160a01b03811681146133bf57600080fdfea2646970667358221220629256ef62759c73a6b137be8d4deb35af09ca67c8e9a2728a970404e9322e0764736f6c63430008070033",
  "linkReferences": {},
  "deployedLinkReferences": {}
}