{
  "_format": "hh-sol-artifact-1",
  "contractName": "TaxOfficeV2",
  "sourceName": "contracts/TaxOfficeV2.sol",
  "abi": [
    {
      "inputs": [
        {
          "internalType": "address",
          "name": "_mry",
          "type": "address"
        },
        {
          "internalType": "address",
          "name": "_ftm",
          "type": "address"
        },
        {
          "internalType": "address",
          "name": "_uniRouter",
          "type": "address"
        }
      ],
      "stateMutability": "nonpayable",
      "type": "constructor"
    },
    {
      "anonymous": false,
      "inputs": [
        {
          "indexed": true,
          "internalType": "address",
          "name": "previousOperator",
          "type": "address"
        },
        {
          "indexed": true,
          "internalType": "address",
          "name": "newOperator",
          "type": "address"
        }
      ],
      "name": "OperatorTransferred",
      "type": "event"
    },
    {
      "anonymous": false,
      "inputs": [
        {
          "indexed": true,
          "internalType": "address",
          "name": "previousOwner",
          "type": "address"
        },
        {
          "indexed": true,
          "internalType": "address",
          "name": "newOwner",
          "type": "address"
        }
      ],
      "name": "OwnershipTransferred",
      "type": "event"
    },
    {
      "inputs": [
        {
          "internalType": "uint256",
          "name": "amtMry",
          "type": "uint256"
        },
        {
          "internalType": "uint256",
          "name": "amtMryMin",
          "type": "uint256"
        },
        {
          "internalType": "uint256",
          "name": "amtFtmMin",
          "type": "uint256"
        }
      ],
      "name": "addLiquidityETHTaxFree",
      "outputs": [
        {
          "internalType": "uint256",
          "name": "",
          "type": "uint256"
        },
        {
          "internalType": "uint256",
          "name": "",
          "type": "uint256"
        },
        {
          "internalType": "uint256",
          "name": "",
          "type": "uint256"
        }
      ],
      "stateMutability": "payable",
      "type": "function"
    },
    {
      "inputs": [
        {
          "internalType": "address",
          "name": "token",
          "type": "address"
        },
        {
          "internalType": "uint256",
          "name": "amtMry",
          "type": "uint256"
        },
        {
          "internalType": "uint256",
          "name": "amtToken",
          "type": "uint256"
        },
        {
          "internalType": "uint256",
          "name": "amtMryMin",
          "type": "uint256"
        },
        {
          "internalType": "uint256",
          "name": "amtTokenMin",
          "type": "uint256"
        }
      ],
      "name": "addLiquidityTaxFree",
      "outputs": [
        {
          "internalType": "uint256",
          "name": "",
          "type": "uint256"
        },
        {
          "internalType": "uint256",
          "name": "",
          "type": "uint256"
        },
        {
          "internalType": "uint256",
          "name": "",
          "type": "uint256"
        }
      ],
      "stateMutability": "nonpayable",
      "type": "function"
    },
    {
      "inputs": [],
      "name": "disableAutoCalculateTax",
      "outputs": [],
      "stateMutability": "nonpayable",
      "type": "function"
    },
    {
      "inputs": [],
      "name": "enableAutoCalculateTax",
      "outputs": [],
      "stateMutability": "nonpayable",
      "type": "function"
    },
    {
      "inputs": [
        {
          "internalType": "address",
          "name": "_address",
          "type": "address"
        }
      ],
      "name": "excludeAddressFromTax",
      "outputs": [
        {
          "internalType": "bool",
          "name": "",
          "type": "bool"
        }
      ],
      "stateMutability": "nonpayable",
      "type": "function"
    },
    {
      "inputs": [
        {
          "internalType": "address",
          "name": "_address",
          "type": "address"
        }
      ],
      "name": "includeAddressInTax",
      "outputs": [
        {
          "internalType": "bool",
          "name": "",
          "type": "bool"
        }
      ],
      "stateMutability": "nonpayable",
      "type": "function"
    },
    {
      "inputs": [],
      "name": "isOperator",
      "outputs": [
        {
          "internalType": "bool",
          "name": "",
          "type": "bool"
        }
      ],
      "stateMutability": "view",
      "type": "function"
    },
    {
      "inputs": [],
      "name": "mry",
      "outputs": [
        {
          "internalType": "address",
          "name": "",
          "type": "address"
        }
      ],
      "stateMutability": "view",
      "type": "function"
    },
    {
      "inputs": [],
      "name": "operator",
      "outputs": [
        {
          "internalType": "address",
          "name": "",
          "type": "address"
        }
      ],
      "stateMutability": "view",
      "type": "function"
    },
    {
      "inputs": [],
      "name": "owner",
      "outputs": [
        {
          "internalType": "address",
          "name": "",
          "type": "address"
        }
      ],
      "stateMutability": "view",
      "type": "function"
    },
    {
      "inputs": [],
      "name": "renounceOwnership",
      "outputs": [],
      "stateMutability": "nonpayable",
      "type": "function"
    },
    {
      "inputs": [
        {
          "internalType": "uint256",
          "name": "_burnThreshold",
          "type": "uint256"
        }
      ],
      "name": "setBurnThreshold",
      "outputs": [],
      "stateMutability": "nonpayable",
      "type": "function"
    },
    {
      "inputs": [
        {
          "internalType": "address",
          "name": "_taxCollectorAddress",
          "type": "address"
        }
      ],
      "name": "setTaxCollectorAddress",
      "outputs": [],
      "stateMutability": "nonpayable",
      "type": "function"
    },
    {
      "inputs": [
        {
          "internalType": "address",
          "name": "_address",
          "type": "address"
        },
        {
          "internalType": "bool",
          "name": "_excluded",
          "type": "bool"
        }
      ],
      "name": "setTaxExclusionForAddress",
      "outputs": [],
      "stateMutability": "nonpayable",
      "type": "function"
    },
    {
      "inputs": [
        {
          "internalType": "uint256",
          "name": "_taxRate",
          "type": "uint256"
        }
      ],
      "name": "setTaxRate",
      "outputs": [],
      "stateMutability": "nonpayable",
      "type": "function"
    },
    {
      "inputs": [
        {
          "internalType": "uint8",
          "name": "_index",
          "type": "uint8"
        },
        {
          "internalType": "uint256",
          "name": "_value",
          "type": "uint256"
        }
      ],
      "name": "setTaxTiersRate",
      "outputs": [
        {
          "internalType": "bool",
          "name": "",
          "type": "bool"
        }
      ],
      "stateMutability": "nonpayable",
      "type": "function"
    },
    {
      "inputs": [
        {
          "internalType": "uint8",
          "name": "_index",
          "type": "uint8"
        },
        {
          "internalType": "uint256",
          "name": "_value",
          "type": "uint256"
        }
      ],
      "name": "setTaxTiersTwap",
      "outputs": [
        {
          "internalType": "bool",
          "name": "",
          "type": "bool"
        }
      ],
      "stateMutability": "nonpayable",
      "type": "function"
    },
    {
      "inputs": [
        {
          "internalType": "address",
          "name": "_mryOracle",
          "type": "address"
        }
      ],
      "name": "setTaxableMryOracle",
      "outputs": [],
      "stateMutability": "nonpayable",
      "type": "function"
    },
    {
      "inputs": [
        {
          "internalType": "address",
          "name": "",
          "type": "address"
        }
      ],
      "name": "taxExclusionEnabled",
      "outputs": [
        {
          "internalType": "bool",
          "name": "",
          "type": "bool"
        }
      ],
      "stateMutability": "view",
      "type": "function"
    },
    {
      "inputs": [
        {
          "internalType": "address",
          "name": "_sender",
          "type": "address"
        },
        {
          "internalType": "address",
          "name": "_recipient",
          "type": "address"
        },
        {
          "internalType": "uint256",
          "name": "_amt",
          "type": "uint256"
        }
      ],
      "name": "taxFreeTransferFrom",
      "outputs": [],
      "stateMutability": "nonpayable",
      "type": "function"
    },
    {
      "inputs": [],
      "name": "taxRate",
      "outputs": [
        {
          "internalType": "uint256",
          "name": "",
          "type": "uint256"
        }
      ],
      "stateMutability": "view",
      "type": "function"
    },
    {
      "inputs": [
        {
          "internalType": "address",
          "name": "newOperator_",
          "type": "address"
        }
      ],
      "name": "transferOperator",
      "outputs": [],
      "stateMutability": "nonpayable",
      "type": "function"
    },
    {
      "inputs": [
        {
          "internalType": "address",
          "name": "newOwner",
          "type": "address"
        }
      ],
      "name": "transferOwnership",
      "outputs": [],
      "stateMutability": "nonpayable",
      "type": "function"
    },
    {
      "inputs": [
        {
          "internalType": "address",
          "name": "_newTaxOffice",
          "type": "address"
        }
      ],
      "name": "transferTaxOffice",
      "outputs": [],
      "stateMutability": "nonpayable",
      "type": "function"
    },
    {
      "inputs": [],
      "name": "uniRouter",
      "outputs": [
        {
          "internalType": "address",
          "name": "",
          "type": "address"
        }
      ],
      "stateMutability": "view",
      "type": "function"
    },
    {
      "inputs": [],
      "name": "wftm",
      "outputs": [
        {
          "internalType": "address",
          "name": "",
          "type": "address"
        }
      ],
      "stateMutability": "view",
      "type": "function"
    }
  ],
  "bytecode": "0x60806040523480156200001157600080fd5b5060405162001b0138038062001b0183398101604081905262000034916200012f565b6200003f33620000c2565b600180546001600160a01b031916339081179091556040516000907f74da04524d50c64947f5dd5381ef1a4dca5cba8ed1d816243f9e48aa0b5617ed908290a3600280546001600160a01b039485166001600160a01b03199182161790915560038054938516938216939093179092556004805491909316911617905562000179565b600080546001600160a01b038381166001600160a01b0319831681178455604051919092169283917f8be0079c531659141344cd1fd0a4f28419497f9722a3daafe3b4186f6b6457e09190a35050565b80516001600160a01b03811681146200012a57600080fd5b919050565b6000806000606084860312156200014557600080fd5b620001508462000112565b9250620001606020850162000112565b9150620001706040850162000112565b90509250925092565b61197880620001896000396000f3fe6080604052600436106101815760003560e01c80638da5cb5b116100d1578063c6d69a301161008a578063f1efacf911610064578063f1efacf91461047c578063f2fde38b1461049c578063f4f45b46146104bc578063ff87fc7c146104dc57600080fd5b8063c6d69a301461041c578063d1d31a371461043c578063e1d8752e1461045c57600080fd5b80638da5cb5b1461035e5780639d6b5f211461037c578063a0e47bf61461039c578063a2ff6a9d146103bc578063b87c5a4a146103dc578063be94f86b146103fc57600080fd5b806365bbacd91161013e578063715018a611610118578063715018a6146102d857806373baccc0146102ed578063771a3a1d1461031b5780637fcd79c71461033e57600080fd5b806365bbacd91461028357806366206ce91461029857806369356d47146102b857600080fd5b806313762bdc1461018657806319db099d146101cb57806329605e77146101eb5780633ab1f35f1461020d5780634456eda214610245578063570ca73514610265575b600080fd5b34801561019257600080fd5b506101b66101a13660046116c7565b60056020526000908152604090205460ff1681565b60405190151581526020015b60405180910390f35b3480156101d757600080fd5b506101b66101e63660046116c7565b6104f1565b3480156101f757600080fd5b5061020b6102063660046116c7565b610538565b005b34801561021957600080fd5b5060025461022d906001600160a01b031681565b6040516001600160a01b0390911681526020016101c2565b34801561025157600080fd5b506001546001600160a01b031633146101b6565b34801561027157600080fd5b506001546001600160a01b031661022d565b34801561028f57600080fd5b5061020b61056e565b3480156102a457600080fd5b506101b66102b3366004611840565b610602565b3480156102c457600080fd5b5061020b6102d33660046116c7565b6106be565b3480156102e457600080fd5b5061020b61074b565b6103006102fb3660046117e6565b610781565b604080519384526020840192909252908201526060016101c2565b34801561032757600080fd5b506103306109fc565b6040519081526020016101c2565b34801561034a57600080fd5b5061020b61035936600461171e565b610a7e565b34801561036a57600080fd5b506000546001600160a01b031661022d565b34801561038857600080fd5b5061020b6103973660046117b4565b610ad3565b3480156103a857600080fd5b5060045461022d906001600160a01b031681565b3480156103c857600080fd5b5061020b6103d73660046116c7565b610b2e565b3480156103e857600080fd5b506101b66103f7366004611840565b610b8a565b34801561040857600080fd5b506101b66104173660046116c7565b610bf1565b34801561042857600080fd5b5061020b6104373660046117b4565b610c27565b34801561044857600080fd5b5061020b6104573660046116c7565b610c82565b34801561046857600080fd5b5061020b6104773660046116e2565b610cde565b34801561048857600080fd5b50610300610497366004611755565b610deb565b3480156104a857600080fd5b5061020b6104b73660046116c7565b6111bb565b3480156104c857600080fd5b5060035461022d906001600160a01b031681565b3480156104e857600080fd5b5061020b611253565b6001546000906001600160a01b031633146105275760405162461bcd60e51b815260040161051e906118cb565b60405180910390fd5b610530826112cd565b90505b919050565b6000546001600160a01b031633146105625760405162461bcd60e51b815260040161051e90611896565b61056b816113d0565b50565b6001546001600160a01b031633146105985760405162461bcd60e51b815260040161051e906118cb565b600260009054906101000a90046001600160a01b03166001600160a01b03166365bbacd96040518163ffffffff1660e01b8152600401600060405180830381600087803b1580156105e857600080fd5b505af11580156105fc573d6000803e3d6000fd5b50505050565b6001546000906001600160a01b0316331461062f5760405162461bcd60e51b815260040161051e906118cb565b6002546040516366206ce960e01b815260ff85166004820152602481018490526001600160a01b03909116906366206ce9906044015b602060405180830381600087803b15801561067f57600080fd5b505af1158015610693573d6000803e3d6000fd5b505050506040513d601f19601f820116820180604052508101906106b79190611797565b9392505050565b6001546001600160a01b031633146106e85760405162461bcd60e51b815260040161051e906118cb565b6002546040516369356d4760e01b81526001600160a01b038381166004830152909116906369356d47906024015b600060405180830381600087803b15801561073057600080fd5b505af1158015610744573d6000803e3d6000fd5b5050505050565b6000546001600160a01b031633146107755760405162461bcd60e51b815260040161051e90611896565b61077f6000611494565b565b60008080851580159061079357503415155b6107d45760405162461bcd60e51b81526020600482015260126024820152710616d6f756e74732063616e277420626520360741b604482015260640161051e565b6107dd336114e4565b506002546040516323b872dd60e01b81526001600160a01b03909116906323b872dd9061081290339030908b90600401611872565b602060405180830381600087803b15801561082c57600080fd5b505af1158015610840573d6000803e3d6000fd5b505050506040513d601f19601f820116820180604052508101906108649190611797565b50600254600454610881916001600160a01b039081169116611598565b61088a336112cd565b506004805460025460405163f305d71960e01b81526001600160a01b03918216938101939093526024830189905260448301889052606483018790523360848401524260a484015260009283928392169063f305d71990349060c4016060604051808303818588803b1580156108ff57600080fd5b505af1158015610913573d6000803e3d6000fd5b50505050506040513d601f19601f820116820180604052508101906109389190611812565b91945092509050600061094b8a856116a4565b11156109ed576002546001600160a01b031663a9059cbb3361096d8c876116a4565b6040516001600160e01b031960e085901b1681526001600160a01b0390921660048301526024820152604401602060405180830381600087803b1580156109b357600080fd5b505af11580156109c7573d6000803e3d6000fd5b505050506040513d601f19601f820116820180604052508101906109eb9190611797565b505b91989097509095509350505050565b6002546040805163771a3a1d60e01b815290516000926001600160a01b03169163771a3a1d916004808301926020929190829003018186803b158015610a4157600080fd5b505afa158015610a55573d6000803e3d6000fd5b505050506040513d601f19601f82011682018060405250810190610a7991906117cd565b905090565b6001546001600160a01b03163314610aa85760405162461bcd60e51b815260040161051e906118cb565b6001600160a01b03919091166000908152600560205260409020805460ff1916911515919091179055565b6001546001600160a01b03163314610afd5760405162461bcd60e51b815260040161051e906118cb565b600254604051639d6b5f2160e01b8152600481018390526001600160a01b0390911690639d6b5f2190602401610716565b6001546001600160a01b03163314610b585760405162461bcd60e51b815260040161051e906118cb565b60025460405163d5035a4d60e01b81526001600160a01b0383811660048301529091169063d5035a4d90602401610716565b6001546000906001600160a01b03163314610bb75760405162461bcd60e51b815260040161051e906118cb565b600254604051635c3e2d2560e11b815260ff85166004820152602481018490526001600160a01b039091169063b87c5a4a90604401610665565b6001546000906001600160a01b03163314610c1e5760405162461bcd60e51b815260040161051e906118cb565b610530826114e4565b6001546001600160a01b03163314610c515760405162461bcd60e51b815260040161051e906118cb565b600254604051630c6d69a360e41b8152600481018390526001600160a01b039091169063c6d69a3090602401610716565b6001546001600160a01b03163314610cac5760405162461bcd60e51b815260040161051e906118cb565b600254604051631f83ebb560e11b81526001600160a01b03838116600483015290911690633f07d76a90602401610716565b3360009081526005602052604090205460ff16610d515760405162461bcd60e51b815260206004820152602b60248201527f41646472657373206e6f7420617070726f76656420666f72207461782066726560448201526a65207472616e736665727360a81b606482015260840161051e565b610d5a836114e4565b506002546040516323b872dd60e01b81526001600160a01b03909116906323b872dd90610d8f90869086908690600401611872565b602060405180830381600087803b158015610da957600080fd5b505af1158015610dbd573d6000803e3d6000fd5b505050506040513d601f19601f82011682018060405250810190610de19190611797565b506105fc836112cd565b600080808615801590610dfd57508515155b610e3e5760405162461bcd60e51b81526020600482015260126024820152710616d6f756e74732063616e277420626520360741b604482015260640161051e565b610e47336114e4565b506002546040516323b872dd60e01b81526001600160a01b03909116906323b872dd90610e7c90339030908c90600401611872565b602060405180830381600087803b158015610e9657600080fd5b505af1158015610eaa573d6000803e3d6000fd5b505050506040513d601f19601f82011682018060405250810190610ece9190611797565b506040516323b872dd60e01b81526001600160a01b038916906323b872dd90610eff90339030908b90600401611872565b602060405180830381600087803b158015610f1957600080fd5b505af1158015610f2d573d6000803e3d6000fd5b505050506040513d601f19601f82011682018060405250810190610f519190611797565b50600254600454610f6e916001600160a01b039081169116611598565b600454610f859089906001600160a01b0316611598565b610f8e336112cd565b506004805460025460405162e8e33760e81b81526001600160a01b03918216938101939093528a81166024840152604483018a9052606483018990526084830188905260a483018790523360c48401524260e484015260009283928392169063e8e337009061010401606060405180830381600087803b15801561101157600080fd5b505af1158015611025573d6000803e3d6000fd5b505050506040513d601f19601f820116820180604052508101906110499190611812565b91945092509050600061105c8b856116a4565b11156110fe576002546001600160a01b031663a9059cbb3361107e8d876116a4565b6040516001600160e01b031960e085901b1681526001600160a01b0390921660048301526024820152604401602060405180830381600087803b1580156110c457600080fd5b505af11580156110d8573d6000803e3d6000fd5b505050506040513d601f19601f820116820180604052508101906110fc9190611797565b505b600061110a8a846116a4565b11156111aa576001600160a01b038b1663a9059cbb3361112a8c866116a4565b6040516001600160e01b031960e085901b1681526001600160a01b0390921660048301526024820152604401602060405180830381600087803b15801561117057600080fd5b505af1158015611184573d6000803e3d6000fd5b505050506040513d601f19601f820116820180604052508101906111a89190611797565b505b919a90995090975095505050505050565b6000546001600160a01b031633146111e55760405162461bcd60e51b815260040161051e90611896565b6001600160a01b03811661124a5760405162461bcd60e51b815260206004820152602660248201527f4f776e61626c653a206e6577206f776e657220697320746865207a65726f206160448201526564647265737360d01b606482015260840161051e565b61056b81611494565b6001546001600160a01b0316331461127d5760405162461bcd60e51b815260040161051e906118cb565b600260009054906101000a90046001600160a01b03166001600160a01b031663ff87fc7c6040518163ffffffff1660e01b8152600401600060405180830381600087803b1580156105e857600080fd5b60025460405163ebca1bd960e01b81526001600160a01b038381166004830152600092169063ebca1bd99060240160206040518083038186803b15801561131357600080fd5b505afa158015611327573d6000803e3d6000fd5b505050506040513d601f19601f8201168201806040525081019061134b9190611797565b15610533576002546040516393995d4b60e01b81526001600160a01b038481166004830152909116906393995d4b906024015b602060405180830381600087803b15801561139857600080fd5b505af11580156113ac573d6000803e3d6000fd5b505050506040513d601f19601f820116820180604052508101906105309190611797565b6001600160a01b03811661143c5760405162461bcd60e51b815260206004820152602d60248201527f6f70657261746f723a207a65726f206164647265737320676976656e20666f7260448201526c103732bb9037b832b930ba37b960991b606482015260840161051e565b6040516001600160a01b038216906000907f74da04524d50c64947f5dd5381ef1a4dca5cba8ed1d816243f9e48aa0b5617ed908290a3600180546001600160a01b0319166001600160a01b0392909216919091179055565b600080546001600160a01b038381166001600160a01b0319831681178455604051919092169283917f8be0079c531659141344cd1fd0a4f28419497f9722a3daafe3b4186f6b6457e09190a35050565b60025460405163ebca1bd960e01b81526001600160a01b038381166004830152600092169063ebca1bd99060240160206040518083038186803b15801561152a57600080fd5b505afa15801561153e573d6000803e3d6000fd5b505050506040513d601f19601f820116820180604052508101906115629190611797565b61053357600254604051631bac736760e11b81526001600160a01b03848116600483015290911690633758e6ce9060240161137e565b604051636eb1769f60e11b81523060048201526001600160a01b03828116602483015283169063dd62ed3e9060440160206040518083038186803b1580156115df57600080fd5b505afa1580156115f3573d6000803e3d6000fd5b505050506040513d601f19601f8201168201806040525081019061161791906117cd565b6116a05760405163095ea7b360e01b81526001600160a01b038281166004830152600019602483015283169063095ea7b390604401602060405180830381600087803b15801561166657600080fd5b505af115801561167a573d6000803e3d6000fd5b505050506040513d601f19601f8201168201806040525081019061169e9190611797565b505b5050565b60006106b7828461190f565b80356001600160a01b038116811461053357600080fd5b6000602082840312156116d957600080fd5b6106b7826116b0565b6000806000606084860312156116f757600080fd5b611700846116b0565b925061170e602085016116b0565b9150604084013590509250925092565b6000806040838503121561173157600080fd5b61173a836116b0565b9150602083013561174a81611934565b809150509250929050565b600080600080600060a0868803121561176d57600080fd5b611776866116b0565b97602087013597506040870135966060810135965060800135945092505050565b6000602082840312156117a957600080fd5b81516106b781611934565b6000602082840312156117c657600080fd5b5035919050565b6000602082840312156117df57600080fd5b5051919050565b6000806000606084860312156117fb57600080fd5b505081359360208301359350604090920135919050565b60008060006060848603121561182757600080fd5b8351925060208401519150604084015190509250925092565b6000806040838503121561185357600080fd5b823560ff8116811461186457600080fd5b946020939093013593505050565b6001600160a01b039384168152919092166020820152604081019190915260600190565b6020808252818101527f4f776e61626c653a2063616c6c6572206973206e6f7420746865206f776e6572604082015260600190565b60208082526024908201527f6f70657261746f723a2063616c6c6572206973206e6f7420746865206f70657260408201526330ba37b960e11b606082015260800190565b60008282101561192f57634e487b7160e01b600052601160045260246000fd5b500390565b801515811461056b57600080fdfea2646970667358221220747de94222a1c8d8738fa8817586997c1e8853c7bd2787f1c59764ff7a28878064736f6c63430008070033",
  "linkReferences": {},
  "deployedLinkReferences": {}
}