{
  "_format": "hh-sol-artifact-1",
  "contractName": "MryRewardPool",
  "sourceName": "contracts/distribution/MryRewardPool.sol",
  "abi": [
    {
      "inputs": [
        {
          "internalType": "address",
          "name": "_mry",
          "type": "address"
        },
        {
          "internalType": "uint256",
          "name": "_poolStartTime",
          "type": "uint256"
        }
      ],
      "stateMutability": "nonpayable",
      "type": "constructor"
    },
    {
      "anonymous": false,
      "inputs": [
        {
          "indexed": true,
          "internalType": "address",
          "name": "user",
          "type": "address"
        },
        {
          "indexed": true,
          "internalType": "uint256",
          "name": "pid",
          "type": "uint256"
        },
        {
          "indexed": false,
          "internalType": "uint256",
          "name": "amount",
          "type": "uint256"
        }
      ],
      "name": "Deposit",
      "type": "event"
    },
    {
      "anonymous": false,
      "inputs": [
        {
          "indexed": true,
          "internalType": "address",
          "name": "user",
          "type": "address"
        },
        {
          "indexed": true,
          "internalType": "uint256",
          "name": "pid",
          "type": "uint256"
        },
        {
          "indexed": false,
          "internalType": "uint256",
          "name": "amount",
          "type": "uint256"
        }
      ],
      "name": "EmergencyWithdraw",
      "type": "event"
    },
    {
      "anonymous": false,
      "inputs": [
        {
          "indexed": true,
          "internalType": "address",
          "name": "user",
          "type": "address"
        },
        {
          "indexed": false,
          "internalType": "uint256",
          "name": "amount",
          "type": "uint256"
        }
      ],
      "name": "RewardPaid",
      "type": "event"
    },
    {
      "anonymous": false,
      "inputs": [
        {
          "indexed": true,
          "internalType": "address",
          "name": "user",
          "type": "address"
        },
        {
          "indexed": true,
          "internalType": "uint256",
          "name": "pid",
          "type": "uint256"
        },
        {
          "indexed": false,
          "internalType": "uint256",
          "name": "amount",
          "type": "uint256"
        }
      ],
      "name": "Withdraw",
      "type": "event"
    },
    {
      "inputs": [
        {
          "internalType": "uint256",
          "name": "_allocPoint",
          "type": "uint256"
        },
        {
          "internalType": "contract IERC20",
          "name": "_token",
          "type": "address"
        },
        {
          "internalType": "bool",
          "name": "_withUpdate",
          "type": "bool"
        },
        {
          "internalType": "uint256",
          "name": "_lastRewardTime",
          "type": "uint256"
        }
      ],
      "name": "add",
      "outputs": [],
      "stateMutability": "nonpayable",
      "type": "function"
    },
    {
      "inputs": [
        {
          "internalType": "uint256",
          "name": "_pid",
          "type": "uint256"
        },
        {
          "internalType": "uint256",
          "name": "_amount",
          "type": "uint256"
        }
      ],
      "name": "deposit",
      "outputs": [],
      "stateMutability": "nonpayable",
      "type": "function"
    },
    {
      "inputs": [
        {
          "internalType": "uint256",
          "name": "_pid",
          "type": "uint256"
        }
      ],
      "name": "emergencyWithdraw",
      "outputs": [],
      "stateMutability": "nonpayable",
      "type": "function"
    },
    {
      "inputs": [
        {
          "internalType": "uint256",
          "name": "",
          "type": "uint256"
        }
      ],
      "name": "epochEndTimes",
      "outputs": [
        {
          "internalType": "uint256",
          "name": "",
          "type": "uint256"
        }
      ],
      "stateMutability": "view",
      "type": "function"
    },
    {
      "inputs": [
        {
          "internalType": "uint256",
          "name": "",
          "type": "uint256"
        }
      ],
      "name": "epochMryPerSecond",
      "outputs": [
        {
          "internalType": "uint256",
          "name": "",
          "type": "uint256"
        }
      ],
      "stateMutability": "view",
      "type": "function"
    },
    {
      "inputs": [
        {
          "internalType": "uint256",
          "name": "",
          "type": "uint256"
        }
      ],
      "name": "epochTotalRewards",
      "outputs": [
        {
          "internalType": "uint256",
          "name": "",
          "type": "uint256"
        }
      ],
      "stateMutability": "view",
      "type": "function"
    },
    {
      "inputs": [
        {
          "internalType": "uint256",
          "name": "_fromTime",
          "type": "uint256"
        },
        {
          "internalType": "uint256",
          "name": "_toTime",
          "type": "uint256"
        }
      ],
      "name": "getGeneratedReward",
      "outputs": [
        {
          "internalType": "uint256",
          "name": "",
          "type": "uint256"
        }
      ],
      "stateMutability": "view",
      "type": "function"
    },
    {
      "inputs": [
        {
          "internalType": "contract IERC20",
          "name": "_token",
          "type": "address"
        },
        {
          "internalType": "uint256",
          "name": "amount",
          "type": "uint256"
        },
        {
          "internalType": "address",
          "name": "to",
          "type": "address"
        }
      ],
      "name": "governanceRecoverUnsupported",
      "outputs": [],
      "stateMutability": "nonpayable",
      "type": "function"
    },
    {
      "inputs": [],
      "name": "massUpdatePools",
      "outputs": [],
      "stateMutability": "nonpayable",
      "type": "function"
    },
    {
      "inputs": [],
      "name": "mry",
      "outputs": [
        {
          "internalType": "contract IERC20",
          "name": "",
          "type": "address"
        }
      ],
      "stateMutability": "view",
      "type": "function"
    },
    {
      "inputs": [],
      "name": "operator",
      "outputs": [
        {
          "internalType": "address",
          "name": "",
          "type": "address"
        }
      ],
      "stateMutability": "view",
      "type": "function"
    },
    {
      "inputs": [
        {
          "internalType": "uint256",
          "name": "_pid",
          "type": "uint256"
        },
        {
          "internalType": "address",
          "name": "_user",
          "type": "address"
        }
      ],
      "name": "pendingMRY",
      "outputs": [
        {
          "internalType": "uint256",
          "name": "",
          "type": "uint256"
        }
      ],
      "stateMutability": "view",
      "type": "function"
    },
    {
      "inputs": [
        {
          "internalType": "uint256",
          "name": "",
          "type": "uint256"
        }
      ],
      "name": "poolInfo",
      "outputs": [
        {
          "internalType": "contract IERC20",
          "name": "token",
          "type": "address"
        },
        {
          "internalType": "uint256",
          "name": "allocPoint",
          "type": "uint256"
        },
        {
          "internalType": "uint256",
          "name": "lastRewardTime",
          "type": "uint256"
        },
        {
          "internalType": "uint256",
          "name": "accMryPerShare",
          "type": "uint256"
        },
        {
          "internalType": "bool",
          "name": "isStarted",
          "type": "bool"
        }
      ],
      "stateMutability": "view",
      "type": "function"
    },
    {
      "inputs": [],
      "name": "poolStartTime",
      "outputs": [
        {
          "internalType": "uint256",
          "name": "",
          "type": "uint256"
        }
      ],
      "stateMutability": "view",
      "type": "function"
    },
    {
      "inputs": [
        {
          "internalType": "uint256",
          "name": "_pid",
          "type": "uint256"
        },
        {
          "internalType": "uint256",
          "name": "_allocPoint",
          "type": "uint256"
        }
      ],
      "name": "set",
      "outputs": [],
      "stateMutability": "nonpayable",
      "type": "function"
    },
    {
      "inputs": [
        {
          "internalType": "address",
          "name": "_operator",
          "type": "address"
        }
      ],
      "name": "setOperator",
      "outputs": [],
      "stateMutability": "nonpayable",
      "type": "function"
    },
    {
      "inputs": [],
      "name": "totalAllocPoint",
      "outputs": [
        {
          "internalType": "uint256",
          "name": "",
          "type": "uint256"
        }
      ],
      "stateMutability": "view",
      "type": "function"
    },
    {
      "inputs": [
        {
          "internalType": "uint256",
          "name": "_pid",
          "type": "uint256"
        }
      ],
      "name": "updatePool",
      "outputs": [],
      "stateMutability": "nonpayable",
      "type": "function"
    },
    {
      "inputs": [
        {
          "internalType": "uint256",
          "name": "",
          "type": "uint256"
        },
        {
          "internalType": "address",
          "name": "",
          "type": "address"
        }
      ],
      "name": "userInfo",
      "outputs": [
        {
          "internalType": "uint256",
          "name": "amount",
          "type": "uint256"
        },
        {
          "internalType": "uint256",
          "name": "rewardDebt",
          "type": "uint256"
        }
      ],
      "stateMutability": "view",
      "type": "function"
    },
    {
      "inputs": [
        {
          "internalType": "uint256",
          "name": "_pid",
          "type": "uint256"
        },
        {
          "internalType": "uint256",
          "name": "_amount",
          "type": "uint256"
        }
      ],
      "name": "withdraw",
      "outputs": [],
      "stateMutability": "nonpayable",
      "type": "function"
    }
  ],
  "bytecode": "0x600060045560c06040526910f0cf064dd5920000006080908152690cb49b44ba602d80000060a052620000379060069060026200015a565b503480156200004557600080fd5b5060405162001b0238038062001b028339810160408190526200006891620001cc565b6001600160a01b038216156200009457600180546001600160a01b0319166001600160a01b0384161790555b6005819055620000a8816205460062000208565b6007819055620000bc906206978062000208565b60085560068054620000fe916205460091600090620000df57620000df62000252565b90600052602060002001546200014560201b620010c51790919060201c565b600a5560068054620001239162069780916001908110620000df57620000df62000252565b600b5550506000600c81905580546001600160a01b0319163317905562000268565b60006200015382846200022f565b9392505050565b828054828255906000526020600020908101928215620001a3579160200282015b82811115620001a357825182906001600160501b03169055916020019190600101906200017b565b50620001b1929150620001b5565b5090565b5b80821115620001b15760008155600101620001b6565b60008060408385031215620001e057600080fd5b82516001600160a01b0381168114620001f857600080fd5b6020939093015192949293505050565b600082198211156200022a57634e487b7160e01b600052601160045260246000fd5b500190565b6000826200024d57634e487b7160e01b600052601260045260246000fd5b500490565b634e487b7160e01b600052603260045260246000fd5b61188a80620002786000396000f3fe608060405234801561001057600080fd5b506004361061012c5760003560e01c80635494afe2116100ad57806396805e541161007157806396805e54146102c45780639a25cefc146102d7578063b3ab15fb146102ea578063b89e73c1146102fd578063e2bbb1581461031057600080fd5b80635494afe214610246578063570ca735146102595780635f96dc111461026c578063630b5ba11461027557806393f1a40b1461027d57600080fd5b80633ab1f35f116100f45780633ab1f35f146101cf578063441a3e70146101fa57806351eb05a61461020d5780635312ea8e1461022057806354575af41461023357600080fd5b80631526fe271461013157806317caf6f11461017d5780631ab06ee514610194578063231f0c6a146101a95780632a9b0ee3146101bc575b600080fd5b61014461013f3660046115a7565b610323565b604080516001600160a01b03909616865260208601949094529284019190915260608301521515608082015260a0015b60405180910390f35b61018660045481565b604051908152602001610174565b6101a76101a2366004611651565b610371565b005b6101866101b7366004611651565b61040f565b6101866101ca3660046115d9565b610645565b6001546101e2906001600160a01b031681565b6040516001600160a01b039091168152602001610174565b6101a7610208366004611651565b6107bc565b6101a761021b3660046115a7565b610972565b6101a761022e3660046115a7565b610ad6565b6101a7610241366004611565565b610b78565b6101866102543660046115a7565b610cae565b6000546101e2906001600160a01b031681565b61018660055481565b6101a7610cc5565b6102af61028b3660046115d9565b60036020908152600092835260408084209091529082529020805460019091015482565b60408051928352602083019190915201610174565b6101a76102d2366004611609565b610cf0565b6101866102e53660046115a7565b610ece565b6101a76102f836600461152b565b610eef565b61018661030b3660046115a7565b610f3b565b6101a761031e366004611651565b610f4b565b6002818154811061033357600080fd5b6000918252602090912060059091020180546001820154600283015460038401546004909401546001600160a01b0390931694509092909160ff1685565b6000546001600160a01b031633146103a45760405162461bcd60e51b815260040161039b906116c2565b60405180910390fd5b6103ac610cc5565b6000600283815481106103c1576103c1611818565b60009182526020909120600590910201600481015490915060ff161561040857610404826103fe83600101546004546110d190919063ffffffff16565b906110dd565b6004555b6001015550565b600060025b60018160ff161061062a57600761042c60018361177b565b60ff166003811061043f5761043f611818565b0154831061061a57600761045460018361177b565b60ff166003811061046757610467611818565b015484106104a25761049a600a8260ff166003811061048857610488611818565b015461049485876110d1565b906110e9565b91505061063f565b60006104eb600a8360ff16600381106104bd576104bd611818565b015461049460076104cf60018761177b565b60ff16600381106104e2576104e2611818565b015487906110d1565b90508160ff16600114156105275761051e610517600a60005b015461049488600760005b0154906110d1565b82906110dd565b9250505061063f565b61053260018361177b565b91505b60018260ff161061060b57600761054d60018461177b565b60ff166003811061056057610560611818565b015485106105a05761051e610517600a8460ff166003811061058457610584611818565b01546104948860078760ff166003811061050f5761050f611818565b6105f9610517600a8460ff16600381106105bc576105bc611818565b015461049460076105ce60018861177b565b60ff16600381106105e1576105e1611818565b015460078760ff166003811061050f5761050f611818565b9050610604826117ca565b9150610535565b61051e610517600a6000610504565b610623816117ca565b9050610414565b50600a5461063c9061049484866110d1565b90505b92915050565b6000806002848154811061065b5761065b611818565b60009182526020808320878452600380835260408086206001600160a01b038a81168852945280862060059590950290920190810154815492516370a0823160e01b815230600482015291965093949291909116906370a082319060240160206040518083038186803b1580156106d157600080fd5b505afa1580156106e5573d6000803e3d6000fd5b505050506040513d601f19601f8201168201806040525081019061070991906115c0565b905083600201544211801561071d57508015155b1561078057600061073285600201544261040f565b905060006107596004546107538860010154856110e990919063ffffffff16565b906110c5565b905061077b6107748461075384670de0b6b3a76400006110e9565b85906110dd565b935050505b6107b183600101546107ab670de0b6b3a76400006107538688600001546110e990919063ffffffff16565b906110d1565b979650505050505050565b60003390506000600284815481106107d6576107d6611818565b600091825260208083208784526003825260408085206001600160a01b0388168652909252922080546005909202909201925084111561084d5760405162461bcd60e51b81526020600482015260126024820152711dda5d1a191c985dce881b9bdd0819dbdbd960721b604482015260640161039b565b61085685610972565b600061088782600101546107ab670de0b6b3a7640000610753876003015487600001546110e990919063ffffffff16565b905080156108dd5761089984826110f5565b836001600160a01b03167fe2403640ba68fed3a2f88b7557551d1993f84b99bb10ff833f0cf8db0c5e0486826040516108d491815260200190565b60405180910390a25b84156109075781546108ef90866110d1565b82558254610907906001600160a01b031685876111ab565b6003830154825461092591670de0b6b3a764000091610753916110e9565b600183015560405185815286906001600160a01b038616907ff279e6a1f5e320cca91135676d9cb6e44ca8a08c0b88342bcdb1144f6511b5689060200160405180910390a3505050505050565b60006002828154811061098757610987611818565b90600052602060002090600502019050806002015442116109a6575050565b80546040516370a0823160e01b81523060048201526000916001600160a01b0316906370a082319060240160206040518083038186803b1580156109e957600080fd5b505afa1580156109fd573d6000803e3d6000fd5b505050506040513d601f19601f82011682018060405250810190610a2191906115c0565b905080610a3357504260029091015550565b600482015460ff16610a64576004808301805460ff191660019081179091558301549054610a60916110dd565b6004555b60045415610acb576000610a7c83600201544261040f565b90506000610a9d6004546107538660010154856110e990919063ffffffff16565b9050610ac3610ab88461075384670de0b6b3a76400006110e9565b6003860154906110dd565b600385015550505b504260029091015550565b600060028281548110610aeb57610aeb611818565b600091825260208083208584526003825260408085203380875293528420805485825560018201959095556005909302018054909450919291610b3b916001600160a01b039190911690836111ab565b604051818152849033907fbb757047c2b5f3974fe26b7c10f732e7bce710b0952a71082702781e62ae05959060200160405180910390a350505050565b6000546001600160a01b03163314610ba25760405162461bcd60e51b815260040161039b906116c2565b600854610bb29062278d0061170b565b421015610c95576001546001600160a01b0384811691161415610c005760405162461bcd60e51b815260040161039b90602080825260049082015263216d727960e01b604082015260600190565b60025460005b81811015610c9257600060028281548110610c2357610c23611818565b6000918252602090912060059091020180549091506001600160a01b0387811691161415610c815760405162461bcd60e51b815260206004820152600b60248201526a10b837b7b6173a37b5b2b760a91b604482015260640161039b565b50610c8b816117e7565b9050610c06565b50505b610ca96001600160a01b03841682846111ab565b505050565b600a8160038110610cbe57600080fd5b0154905081565b60025460005b81811015610cec57610cdc81610972565b610ce5816117e7565b9050610ccb565b5050565b6000546001600160a01b03163314610d1a5760405162461bcd60e51b815260040161039b906116c2565b610d238361120e565b8115610d3157610d31610cc5565b600554421015610d5d5780610d495750600554610d71565b600554811015610d5857506005545b610d71565b801580610d6957504281105b15610d715750425b600060055482111580610d845750428211155b6040805160a0810182526001600160a01b03878116825260208201898152928201868152600060608401818152861580156080870190815260028054600181018255945295517f405787fa12a823e0f2b7631cc41b3ba8828b3321ca811111fa75cd3aa3bb5ace600590940293840180546001600160a01b031916919096161790945594517f405787fa12a823e0f2b7631cc41b3ba8828b3321ca811111fa75cd3aa3bb5acf82015590517f405787fa12a823e0f2b7631cc41b3ba8828b3321ca811111fa75cd3aa3bb5ad082015592517f405787fa12a823e0f2b7631cc41b3ba8828b3321ca811111fa75cd3aa3bb5ad184015590517f405787fa12a823e0f2b7631cc41b3ba8828b3321ca811111fa75cd3aa3bb5ad2909201805460ff191692151592909217909155909150610ec757600454610ec390866110dd565b6004555b5050505050565b60068181548110610ede57600080fd5b600091825260209091200154905081565b6000546001600160a01b03163314610f195760405162461bcd60e51b815260040161039b906116c2565b600080546001600160a01b0319166001600160a01b0392909216919091179055565b60078160038110610cbe57600080fd5b6000339050600060028481548110610f6557610f65611818565b600091825260208083208784526003825260408085206001600160a01b0388168652909252922060059091029091019150610f9f85610972565b80541561102f576000610fd782600101546107ab670de0b6b3a7640000610753876003015487600001546110e990919063ffffffff16565b9050801561102d57610fe984826110f5565b836001600160a01b03167fe2403640ba68fed3a2f88b7557551d1993f84b99bb10ff833f0cf8db0c5e04868260405161102491815260200190565b60405180910390a25b505b831561105b57815461104c906001600160a01b03168430876112b1565b805461105890856110dd565b81555b6003820154815461107991670de0b6b3a764000091610753916110e9565b600182015560405184815285906001600160a01b038516907f90890809c654f11d6e72a28fa60149770a0d11ec6c92319d6ceb2bb0a4ea1a159060200160405180910390a35050505050565b600061063c8284611723565b600061063c8284611764565b600061063c828461170b565b600061063c8284611745565b6001546040516370a0823160e01b81523060048201526000916001600160a01b0316906370a082319060240160206040518083038186803b15801561113957600080fd5b505afa15801561114d573d6000803e3d6000fd5b505050506040513d601f19601f8201168201806040525081019061117191906115c0565b90508015610ca9578082111561119857600154610ca9906001600160a01b031684836111ab565b600154610ca9906001600160a01b031684845b6040516001600160a01b038316602482015260448101829052610ca990849063a9059cbb60e01b906064015b60408051601f198184030181529190526020810180516001600160e01b03166001600160e01b0319909316929092179091526112ef565b60025460005b81811015610ca957826001600160a01b03166002828154811061123957611239611818565b60009182526020909120600590910201546001600160a01b031614156112a15760405162461bcd60e51b815260206004820152601d60248201527f4d7279526577617264506f6f6c3a206578697374696e6720706f6f6c3f000000604482015260640161039b565b6112aa816117e7565b9050611214565b6040516001600160a01b03808516602483015283166044820152606481018290526112e99085906323b872dd60e01b906084016111d7565b50505050565b6000611344826040518060400160405280602081526020017f5361666545524332303a206c6f772d6c6576656c2063616c6c206661696c6564815250856001600160a01b03166113c19092919063ffffffff16565b805190915015610ca957808060200190518101906113629190611548565b610ca95760405162461bcd60e51b815260206004820152602a60248201527f5361666545524332303a204552433230206f7065726174696f6e20646964206e6044820152691bdd081cdd58d8d9595960b21b606482015260840161039b565b60606113d084846000856113da565b90505b9392505050565b60608247101561143b5760405162461bcd60e51b815260206004820152602660248201527f416464726573733a20696e73756666696369656e742062616c616e636520666f6044820152651c8818d85b1b60d21b606482015260840161039b565b843b6114895760405162461bcd60e51b815260206004820152601d60248201527f416464726573733a2063616c6c20746f206e6f6e2d636f6e7472616374000000604482015260640161039b565b600080866001600160a01b031685876040516114a59190611673565b60006040518083038185875af1925050503d80600081146114e2576040519150601f19603f3d011682016040523d82523d6000602084013e6114e7565b606091505b50915091506107b1828286606083156115015750816113d3565b8251156115115782518084602001fd5b8160405162461bcd60e51b815260040161039b919061168f565b60006020828403121561153d57600080fd5b81356113d38161182e565b60006020828403121561155a57600080fd5b81516113d381611846565b60008060006060848603121561157a57600080fd5b83356115858161182e565b925060208401359150604084013561159c8161182e565b809150509250925092565b6000602082840312156115b957600080fd5b5035919050565b6000602082840312156115d257600080fd5b5051919050565b600080604083850312156115ec57600080fd5b8235915060208301356115fe8161182e565b809150509250929050565b6000806000806080858703121561161f57600080fd5b8435935060208501356116318161182e565b9250604085013561164181611846565b9396929550929360600135925050565b6000806040838503121561166457600080fd5b50508035926020909101359150565b6000825161168581846020870161179e565b9190910192915050565b60208152600082518060208401526116ae81604085016020870161179e565b601f01601f19169190910160400192915050565b60208082526029908201527f4d7279526577617264506f6f6c3a2063616c6c6572206973206e6f74207468656040820152681037b832b930ba37b960b91b606082015260800190565b6000821982111561171e5761171e611802565b500190565b60008261174057634e487b7160e01b600052601260045260246000fd5b500490565b600081600019048311821515161561175f5761175f611802565b500290565b60008282101561177657611776611802565b500390565b600060ff821660ff84168082101561179557611795611802565b90039392505050565b60005b838110156117b95781810151838201526020016117a1565b838111156112e95750506000910152565b600060ff8216806117dd576117dd611802565b6000190192915050565b60006000198214156117fb576117fb611802565b5060010190565b634e487b7160e01b600052601160045260246000fd5b634e487b7160e01b600052603260045260246000fd5b6001600160a01b038116811461184357600080fd5b50565b801515811461184357600080fdfea2646970667358221220d50ad7b7695fa498f764dfc32a6c4b083e29b1cefbd6fc8292c743dcd323bafb64736f6c63430008070033",
  "linkReferences": {},
  "deployedLinkReferences": {}
}