{
  "_format": "hh-sol-artifact-1",
  "contractName": "TaxOracle",
  "sourceName": "contracts/TaxOracle.sol",
  "abi": [
    {
      "inputs": [
        {
          "internalType": "address",
          "name": "_mry",
          "type": "address"
        },
        {
          "internalType": "address",
          "name": "_wftm",
          "type": "address"
        },
        {
          "internalType": "address",
          "name": "_pair",
          "type": "address"
        }
      ],
      "stateMutability": "nonpayable",
      "type": "constructor"
    },
    {
      "anonymous": false,
      "inputs": [
        {
          "indexed": true,
          "internalType": "address",
          "name": "previousOwner",
          "type": "address"
        },
        {
          "indexed": true,
          "internalType": "address",
          "name": "newOwner",
          "type": "address"
        }
      ],
      "name": "OwnershipTransferred",
      "type": "event"
    },
    {
      "inputs": [
        {
          "internalType": "address",
          "name": "_token",
          "type": "address"
        },
        {
          "internalType": "uint256",
          "name": "_amountIn",
          "type": "uint256"
        }
      ],
      "name": "consult",
      "outputs": [
        {
          "internalType": "uint144",
          "name": "amountOut",
          "type": "uint144"
        }
      ],
      "stateMutability": "view",
      "type": "function"
    },
    {
      "inputs": [],
      "name": "getMryBalance",
      "outputs": [
        {
          "internalType": "uint256",
          "name": "",
          "type": "uint256"
        }
      ],
      "stateMutability": "view",
      "type": "function"
    },
    {
      "inputs": [],
      "name": "getPrice",
      "outputs": [
        {
          "internalType": "uint256",
          "name": "",
          "type": "uint256"
        }
      ],
      "stateMutability": "view",
      "type": "function"
    },
    {
      "inputs": [],
      "name": "getWftmBalance",
      "outputs": [
        {
          "internalType": "uint256",
          "name": "",
          "type": "uint256"
        }
      ],
      "stateMutability": "view",
      "type": "function"
    },
    {
      "inputs": [],
      "name": "mry",
      "outputs": [
        {
          "internalType": "contract IERC20",
          "name": "",
          "type": "address"
        }
      ],
      "stateMutability": "view",
      "type": "function"
    },
    {
      "inputs": [],
      "name": "owner",
      "outputs": [
        {
          "internalType": "address",
          "name": "",
          "type": "address"
        }
      ],
      "stateMutability": "view",
      "type": "function"
    },
    {
      "inputs": [],
      "name": "pair",
      "outputs": [
        {
          "internalType": "address",
          "name": "",
          "type": "address"
        }
      ],
      "stateMutability": "view",
      "type": "function"
    },
    {
      "inputs": [],
      "name": "renounceOwnership",
      "outputs": [],
      "stateMutability": "nonpayable",
      "type": "function"
    },
    {
      "inputs": [
        {
          "internalType": "address",
          "name": "_pair",
          "type": "address"
        }
      ],
      "name": "setPair",
      "outputs": [],
      "stateMutability": "nonpayable",
      "type": "function"
    },
    {
      "inputs": [
        {
          "internalType": "address",
          "name": "_mry",
          "type": "address"
        }
      ],
      "name": "setTomb",
      "outputs": [],
      "stateMutability": "nonpayable",
      "type": "function"
    },
    {
      "inputs": [
        {
          "internalType": "address",
          "name": "_wftm",
          "type": "address"
        }
      ],
      "name": "setWftm",
      "outputs": [],
      "stateMutability": "nonpayable",
      "type": "function"
    },
    {
      "inputs": [
        {
          "internalType": "address",
          "name": "newOwner",
          "type": "address"
        }
      ],
      "name": "transferOwnership",
      "outputs": [],
      "stateMutability": "nonpayable",
      "type": "function"
    },
    {
      "inputs": [],
      "name": "wftm",
      "outputs": [
        {
          "internalType": "contract IERC20",
          "name": "",
          "type": "address"
        }
      ],
      "stateMutability": "view",
      "type": "function"
    }
  ],
  "bytecode": "0x608060405234801561001057600080fd5b50604051610bf1380380610bf183398101604081905261002f916101ed565b61003833610181565b6001600160a01b0383166100935760405162461bcd60e51b815260206004820152601760248201527f6d727920616464726573732063616e6e6f74206265203000000000000000000060448201526064015b60405180910390fd5b6001600160a01b0382166100e95760405162461bcd60e51b815260206004820152601860248201527f7766746d20616464726573732063616e6e6f7420626520300000000000000000604482015260640161008a565b6001600160a01b03811661013f5760405162461bcd60e51b815260206004820152601860248201527f7061697220616464726573732063616e6e6f7420626520300000000000000000604482015260640161008a565b600180546001600160a01b039485166001600160a01b031991821617909155600280549385169382169390931790925560038054919093169116179055610230565b600080546001600160a01b038381166001600160a01b0319831681178455604051919092169283917f8be0079c531659141344cd1fd0a4f28419497f9722a3daafe3b4186f6b6457e09190a35050565b80516001600160a01b03811681146101e857600080fd5b919050565b60008060006060848603121561020257600080fd5b61020b846101d1565b9250610219602085016101d1565b9150610227604085016101d1565b90509250925092565b6109b28061023f6000396000f3fe608060405234801561001057600080fd5b50600436106100cf5760003560e01c80638187f5161161008c578063a8aa1b3111610066578063a8aa1b31146101a1578063c74b60d0146101b4578063f2fde38b146101c7578063f4f45b46146101da57600080fd5b80638187f516146101755780638da5cb5b1461018857806398d5fdca1461019957600080fd5b806315a91e27146100d45780633ab1f35f146100ef5780633ddac9531461011a578063545e88571461015057806357802a6514610165578063715018a61461016d575b600080fd5b6100dc6101ed565b6040519081526020015b60405180910390f35b600154610102906001600160a01b031681565b6040516001600160a01b0390911681526020016100e6565b61012d6101283660046108b5565b610277565b60405171ffffffffffffffffffffffffffffffffffff90911681526020016100e6565b61016361015e36600461089a565b6103f2565b005b6100dc610494565b6101636104cd565b61016361018336600461089a565b610503565b6000546001600160a01b0316610102565b6100dc6105a5565b600354610102906001600160a01b031681565b6101636101c236600461089a565b6106d2565b6101636101d536600461089a565b610774565b600254610102906001600160a01b031681565b6001546003546040516370a0823160e01b81526001600160a01b03918216600482015260009291909116906370a08231906024015b60206040518083038186803b15801561023a57600080fd5b505afa15801561024e573d6000803e3d6000fd5b505050506040513d601f19601f8201168201806040525081019061027291906108df565b905090565b6001546000906001600160a01b038481169116146102d45760405162461bcd60e51b8152602060048201526015602482015274746f6b656e206e6565647320746f206265206d727960581b60448201526064015b60405180910390fd5b6001546003546040516370a0823160e01b81526001600160a01b03918216600482015260009291909116906370a082319060240160206040518083038186803b15801561032057600080fd5b505afa158015610334573d6000803e3d6000fd5b505050506040513d601f19601f8201168201806040525081019061035891906108df565b6002546003546040516370a0823160e01b81526001600160a01b0391821660048201529293506000929116906370a082319060240160206040518083038186803b1580156103a557600080fd5b505afa1580156103b9573d6000803e3d6000fd5b505050506040513d601f19601f820116820180604052508101906103dd91906108df565b90506103e9828261080f565b95945050505050565b6000546001600160a01b0316331461041c5760405162461bcd60e51b81526004016102cb906108f8565b6001600160a01b0381166104725760405162461bcd60e51b815260206004820152601860248201527f7766746d20616464726573732063616e6e6f742062652030000000000000000060448201526064016102cb565b600280546001600160a01b0319166001600160a01b0392909216919091179055565b6002546003546040516370a0823160e01b81526001600160a01b03918216600482015260009291909116906370a0823190602401610222565b6000546001600160a01b031633146104f75760405162461bcd60e51b81526004016102cb906108f8565b6105016000610822565b565b6000546001600160a01b0316331461052d5760405162461bcd60e51b81526004016102cb906108f8565b6001600160a01b0381166105835760405162461bcd60e51b815260206004820152601860248201527f7061697220616464726573732063616e6e6f742062652030000000000000000060448201526064016102cb565b600380546001600160a01b0319166001600160a01b0392909216919091179055565b6001546003546040516370a0823160e01b81526001600160a01b039182166004820152600092839216906370a082319060240160206040518083038186803b1580156105f057600080fd5b505afa158015610604573d6000803e3d6000fd5b505050506040513d601f19601f8201168201806040525081019061062891906108df565b6002546003546040516370a0823160e01b81526001600160a01b0391821660048201529293506000929116906370a082319060240160206040518083038186803b15801561067557600080fd5b505afa158015610689573d6000803e3d6000fd5b505050506040513d601f19601f820116820180604052508101906106ad91906108df565b90506106cb826106c583670de0b6b3a7640000610872565b9061080f565b9250505090565b6000546001600160a01b031633146106fc5760405162461bcd60e51b81526004016102cb906108f8565b6001600160a01b0381166107525760405162461bcd60e51b815260206004820152601760248201527f6d727920616464726573732063616e6e6f74206265203000000000000000000060448201526064016102cb565b600180546001600160a01b0319166001600160a01b0392909216919091179055565b6000546001600160a01b0316331461079e5760405162461bcd60e51b81526004016102cb906108f8565b6001600160a01b0381166108035760405162461bcd60e51b815260206004820152602660248201527f4f776e61626c653a206e6577206f776e657220697320746865207a65726f206160448201526564647265737360d01b60648201526084016102cb565b61080c81610822565b50565b600061081b828461092d565b9392505050565b600080546001600160a01b038381166001600160a01b0319831681178455604051919092169283917f8be0079c531659141344cd1fd0a4f28419497f9722a3daafe3b4186f6b6457e09190a35050565b600061081b828461094f565b80356001600160a01b038116811461089557600080fd5b919050565b6000602082840312156108ac57600080fd5b61081b8261087e565b600080604083850312156108c857600080fd5b6108d18361087e565b946020939093013593505050565b6000602082840312156108f157600080fd5b5051919050565b6020808252818101527f4f776e61626c653a2063616c6c6572206973206e6f7420746865206f776e6572604082015260600190565b60008261094a57634e487b7160e01b600052601260045260246000fd5b500490565b600081600019048311821515161561097757634e487b7160e01b600052601160045260246000fd5b50029056fea2646970667358221220cce86a9189de7f305758f77759f073de9a2370dec8746996dd0fac13dea6302964736f6c63430008070033",
  "linkReferences": {},
  "deployedLinkReferences": {}
}